:10000000400C0020C1170000494B00007917000088
:100010007917000079170000791700000000000030
:1000200000000000000000000000000005140000B7
:100030007917000000000000AD13000079170000E0
:10004000E5140000E5140000E5140000E5140000CC
:10005000E5140000E5140000E5140000E5140000BC
:10006000E5140000E5140000E5140000E5140000AC
:10007000E5140000E5140000E5140000E51400009C
:10008000E5140000E5140000E5140000E51400008C
:10009000E5140000E5140000E5140000E51400007C
:1000A000E5140000E5140000E5140000E51400006C
:1000B000E5140000E5140000E5140000E51400005C
:1000C000E5140000E5140000E5140000E51400004C
:1000D000E5140000E5140000E5140000E51400003C
:1000E000E5140000E5140000E5140000E51400002C
:1000F000E5140000E5140000E5140000E51400001C
:1001000053B94AB9002908BF00281CBF4FF0FF317E
:100110004FF0FF3000F00CB8ADF1080C6DE904CEE3
:1001200000F008F8DDF804E0DDE9022304B07047D0
:10013000704700BF2DE9F04F07468C460846099EE0
:1001400015463C461946002B40F0C6808242B2FA62
:1001500082F746D94FB1C7F1200E24FA0EFE00FAFD
:1001600007F3BD404EEA030CBC404FEA15481FFAA6
:1001700085FEBCFBF8F9220C08FB19C309FB0EFA3B
:1001800042EA03439A4528D9EB1809F1FF3004D21B
:100190009A4502D9A9F102002B44A3EB0A03A4B2A9
:1001A000B3FBF8F208FB123302FB0EFE44EA0344F1
:1001B000A64514D92C1902F1FF3303D2A64501D963
:1001C000931E2C44A4EB0E0443EA00401EB1FC40F5
:1001D000002334607360BDE8F08F4846DDE71346C6
:1001E000F0E702B9FFDE87BB831A01214FEA154E03
:1001F000AAB2B3FBFEFC200C0EFB1C330CFB02F876
:1002000040EA0343984563D9EB180CF1FF3004D260
:10021000984502D9ACF102002B44A3EB0803A4B229
:10022000B3FBFEFC0EFB1C330CFB02F244EA03445E
:10023000A2424FD92C190CF1FF3304D2A24202D9A9
:10024000ACF102032C44A41ABEE7C7F1200C20FA3B
:100250000CF800FA07F324FA0CFCBD404CEA030248
:100260004FEA154EABB2B8FBFEFC110C0EFB1C8026
:100270000CFB03F941EA0040814504FA07F423D955
:1002800028180CF1FF3104D2814502D9ACF10201EA
:100290002844A0EB090092B2B0FBFEFC0EFB1C0050
:1002A0000CFB03F842EA004398450FD9EB180CF118
:1002B000FF3204D2984502D9ACF102022B44A3EBE1
:1002C000080342EA014191E76146E2E76246F6E748
:1002D0006046A2E76346B6E7834205D90EB1C6E998
:1002E00000700021084676E7B3FA83F181B98342B2
:1002F00001D3BA420AD8BC1A60EB030301209C4622
:10030000002E68D0C6E9004C002164E70846F7E7F4
:10031000C1F1200C8B4022FA0CF41C4302FA01F5C7
:1003200000FA01F327FA0CF220FA0CFB4FEA144909
:100330001343BBFBF9F81FFA84FE09FB18BB1A0C28
:1003400008FB0EFA42EA0B42924507FA01F73ED942
:10035000A21808F1FF3004D2924502D9A8F1020098
:100360002244A2EB0A029BB2B2FBF9F809FB182265
:1003700008FB0EFE43EA024296452AD9A21808F16C
:10038000FF3304D2964502D9A8F10203224443EA7E
:100390000040A0FB0593A2EB0E029A42CE4698467F
:1003A00002D306D14F4504D2B9EB050E63EB040826
:1003B000013886B1B7EB0E0362EB080707FA0CFCB5
:1003C000CB404CEA0303CF40C6E900379CE74046E8
:1003D000C7E74346DBE73146FDE6000010B582B0D3
:1003E00005F0C2F80146164804F09AF91548046968
:1003F00083685B6801A99847034618B92168019A88
:100400004A40019213B9019BC3F3C0230D4A1269FC
:10041000126812F4005F02D0B3FA83F35B093BB1B8
:1004200008488368DB684FF40051984702B010BD5C
:10043000044883681B694FF400519847F6E700BFF2
:10044000A85E0000605C000010B5294805F0E6F9E0
:10045000002838D04FF48031264804F00FF90146C7
:10046000002836D1224883689C694FF0C0634FF062
:10047000A0720B21A0470146002831D11E4B1F4A14
:100480005A604FF400629A60194B9B68DB691BB19C
:100490000122194916489847154C0B222168184823
:1004A00004F03EF9204605F0B9F988B14FF4D011B7
:1004B000144804F0E3F800280ADB4FF40040002160
:1004C00003F004FFF9E70A4B19680F4804F028F914
:1004D00010BD0B23064A12680C4804F021F9F7E717
:1004E0000B23034A12680A4804F01AF9F0E700BF28
:1004F000605C0000685F000050020020DD03000027
:100500004C5F0000705F0000C05E0000E85E00000D
:10051000145F000008B50B6801330B60014B1B68CA
:10052000984708BD00000020014B1860704700BFCD
:100530000000002000B583B002460B460021019167
:1005400001A9034800F03CFA03B05DF804FB00BFCA
:10055000150500002DE9F04383B004460846154612
:10056000238B13F0080F05D103F007060023009337
:10057000019369E0012909D043F02003238385F327
:100580001188BFF36F8F03B0BDE8F08343F0100311
:100590002383F4E7204604F0F8F857E0D4F81490E9
:1005A0004A466946204604F009F900275AE02369C3
:1005B0001F680621204604F0C1F84FF0000951E001
:1005C00023695F680421204604F0B8F84FF0000961
:1005D00048E023699F680521204604F0AFF84FF0FA
:1005E00000093FE0002246E0002244E043F0080317
:1005F000238385F31188BFF36F8F002944D1009BBB
:100600002BB14B4642466946204604F04EF917B1DD
:1006100025492046B8474FF02003EFF3118583F3B7
:100620001288BFF36F8F238B23F008032383238B60
:1006300013F0100F2ED023F0100323830120268BFC
:1006400006F0070600289AD00228A3D0002896D0EA
:100650000128A3D00328AAD00428B1D00528B8D0F7
:100660000027B946238B03F00708B045BAD0A2682B
:10067000002AB9D001221146002AB7D1009A002AD7
:10068000B4D1002FB2D1D2E74A464146204604F009
:100690005DF8B4E713F0200F04D023F02003238388
:1006A0000220CCE70020CAE7D948000070B582B02C
:1006B000044600230360436083604B78252B02D0FF
:1006C0004E1C01251FE0881CE37045E1237843F0B0
:1006D00004032370B5B1013614E0237843F0080316
:1006E0002370F7E7237843F010032370F2E72378B1
:1006F00043F020032370EDE7237843F04003237099
:10070000E8E7002545B33378203B102BF9D801A248
:1007100052F823F0E506000003070000030700007D
:10072000EF060000030700000307000003070000B6
:100730000307000003070000030700000307000091
:10074000DB06000003070000CD06000003070000E1
:1007500003070000F9060000237803F04403442B4C
:100760005FD00196237843F08003237033782A2BDF
:100770005CD001A804F041F9019B9E420FD0237880
:1007800043F0800323706060DBB2C3F340030028B2
:1007900054DB00221343227863F341022270019B51
:1007A00001931B782E2B14BF00230123627863F37F
:1007B00041026270002B43D0019B5A1C01925B786E
:1007C0002A2B3FD001A804F018F9A0602378C3F3C6
:1007D000400300283EDB00221343227863F34102EA
:1007E0002270019803784C3B2E2B00F29D80DFE8AD
:1007F00003F0909B9B9B9B9B9B9B9B9B9B9B9B9B97
:100800009B9B9B9B9B9B9B9B9B9B9B9B9B9B339BA0
:10081000579B459B9B9B9B9B9B9B899B9B9B9B9BD4
:10082000820023786FF3861323709AE7637843F08E
:1008300001036370334601330193B1E70122A9E755
:100840000198CFE7637843F00403637010460130EA
:100850000190C7E70122BFE7421C4378682B06D00E
:100860006378022161F3C603637010461EE063786B
:10087000012262F3C6036370023017E0421C437822
:100880006C2B06D06378032161F3C60363701046B6
:100890000CE06378042262F3C6036370023005E063
:1008A0006378052262F3C6036370013010F8013BE0
:1008B000E370A3F14102372A7DD8DFE802F05E7CC5
:1008C0007C7C5E5E5E7C7C7C7C7C7C7C7C7C7C7CC2
:1008D0007C7C7C7C7C4F7C7C7C7C7C7C7C7C5E7CA3
:1008E0004F3A5E5E5E7C3A7C7C7C7C654F717C7CA2
:1008F000717C4F7C7C4F6378062262F3C603637081
:100900000130D3E76378072262F3C60363700130D6
:10091000CCE76378082262F3C60363700130237862
:1009200043F002032370C1E763786FF3C60363707B
:10093000BCE7A278012161F30202A270627802F0A2
:100940007802402A10D0632B13D02378C3F34002DF
:10095000154365F34103237002B070BDA2780221F4
:1009600061F30202A270E9E7217841F001012170F0
:10097000E9E7151E18BF0125E7E7A378042262F313
:100980000203A3700125E0E7A378032262F30203C8
:10099000A370637803F07803402BD6D10125D4E708
:1009A000A378032262F30203A370637813F0780F35
:1009B000CBD00125C9E7237843F001032370C4E7B6
:1009C0002DE9F04F91B006460D4691460393002461
:1009D00099F80000002800F0D582252808D009F1F8
:1009E00001092946B0470028C0F2CD820134EFE763
:1009F00000230493059306930793089309934946AC
:100A000006A8FFF753FE02909DF8193013F0010F6E
:100A100000F09780039B1A1D03921F68002FC0F2FD
:100A200088809DF8193013F0040F00F09C80039B20
:100A30001A1D0392D3F800A0BAF1000FC0F28A8009
:100A40000023079308939DF81A3003F007039DF8DD
:100A50001910C1F3C301012B00F08E80022B00F0AE
:100A6000D380042B00F02481032B00F03B819DF800
:100A7000188018F0030B40F03B819DF81B30253B9C
:100A8000532B00F2E681DFE813F04001E401E401BA
:100A9000E401E401E401E401E401E401E401E4012E
:100AA000E401E401E401E401E401E401E401E4011E
:100AB000E401E401E401E401E401E401E401E4010E
:100AC000E401E401E401E401E401E401E401E401FE
:100AD000E401E401E401E401E401E401E401E401EE
:100AE000E401E401E401E401E401E401E401E401DE
:100AF0008101E401E401E401E401E401E401E40131
:100B0000E401E401E4015E016701E401E401E401C0
:100B1000E4016701E401E401E401E401BE018101B3
:100B2000A201E401E4014D01E4018101E401E401D9
:100B300081019DF8183043F004038DF818307F428E
:100B40006FE79DF91830002B02DB4FF0FF3768E7A5
:100B5000079F66E79DF819306FF341038DF8193050
:100B60004FF0FF3A6CE713F0020F02D0DDF820A03F
:100B700066E74FF0FF3A63E7CB1E042B04D8DFE8AB
:100B800003F00B1D29353500039B1A1D03921B68CA
:100B9000DA170493059206E0039B1A1D03921B6863
:100BA000DA1704930592012928D002297FF45FAF58
:100BB000BDF91030DA170493059258E7039B073309
:100BC00023F0070303F108020392D3E90023CDE9E0
:100BD0000423E8E7039B073323F0070303F108022C
:100BE0000392D3E90023CDE90423DCE7039B1A1D1C
:100BF00003921B68DA1704930592D4E79DF810302E
:100C000004930023059332E7CB1E042B04D8DFE8BE
:100C100003F00B1F35414100039B1A1D03921B6813
:100C20000493002305931EE09DF81B30632B07D02F
:100C3000039B1A1D03921B6804930023059312E083
:100C4000039B1A1D03921B680493002305930AE07B
:100C5000039B073323F0070303F108020392D3E950
:100C60000023CDE9042301291CD002297FF4FFAE23
:100C7000BDF81030049300230593F8E6039B073377
:100C800023F0070303F108020392D3E90023CDE91F
:100C90000423E8E7039B1A1D03921B6804930023B7
:100CA0000593E0E79DF81030049300230593DEE6FA
:100CB00008290BD0039B073323F0070303F1080235
:100CC0000392D3E90023CDE90423D0E6039B073345
:100CD00023F0070303F108020392D3E90023CDE9CF
:100CE0000423C4E6039B1A1D03921B680493BEE60B
:100CF000029F3B464A462946304603F0FAFE00284A
:100D0000C0F241810444B94662E629462520B04735
:100D10000028C0F238810134D8460DF13E0A4FF068
:100D200000099BE0DDF81090BAF1000F07DB514697
:100D3000484603F0CFFF09EB000AD8468EE048464C
:100D400003F0BFFFF7E7049B8DF82830D8460DF17C
:100D5000290A0DF1280981E018F0080F05D118F0D3
:100D6000100804D04FF0200801E04FF02B08049A3F
:100D7000059B002B02DB0492059308E0524263EBD3
:100D80004303049205934FF02D0800E0D8460DF17F
:100D90003E0300930AAB06AADDE9040103F03FFE1F
:100DA0008146BAF1000FC0F288800DF13E03A3EB3B
:100DB00009039DF818206FF386128DF818209A45C4
:100DC0007ED9AAEB030307930DF13E0A46E004988F
:100DD00028B9D846DFF8B4A1AAF105093EE00DF123
:100DE0003E0300930AAB06AA002103F018FE8146D9
:100DF0009DF81A3043F010038DF81A3078238DF8DF
:100E00001B30D846CDE7049A9DF81930C3F3C303CD
:100E1000072B06D8DFE803F0040B0D0F1115191B83
:100E20001460D8460DF13E0A4FF0000916E0147028
:100E3000F7E71480F5E71460F3E7E31714605360F5
:100E4000EFE7E31714605360EBE71460E9E7146021
:100E5000E7E7D8460DF13E0A4FF00009B9F1000F5F
:100E600000F08D80AAEB0903B8F1000F00D0013328
:100E70009DF81A2012F0100F25D0023307990B4469
:100E800012F0400F01D0089A1344002F31DDFF1AF1
:100E90009DF8183013F0040F2BD113F0400F17D02A
:100EA000B8F1000F17D029464046B04700286ADB4A
:100EB0000134D8464FF0300B0FE00DF13E0ACDE77C
:100EC0000DF13E0ACAE712F0080FD7D00133D5E77B
:100ED0004FF0200B01E04FF0300B3B465F1E002B24
:100EE00007DD29465846B04700284CDB01343B4615
:100EF000F4E7B8F1000F05D029464046B047002876
:100F000041DB01349DF81A30C3F30012C3F3C00370
:100F1000134305D029463020B047002833DB013485
:100F20009DF81A3013F0100F06D029469DF81B00CB
:100F3000B047002827DB0134079B03F1FF38002B63
:100F400007DD29463020B04700281CDB013443462A
:100F5000F3E753464A462946304603F0CAFD0028C7
:100F600011DB0444002F07DD29462020B04700286C
:100F700009DB0134013FF5E7DDF8089028E5DDF8ED
:100F8000089025E5204611B0BDE8F08F7D5F000098
:100F900070B52A4B1D7D05F01F0301229A40690997
:100FA000274B03EB8103D043BFF35B8F53E8001F54
:100FB00001EA000443E80046002EF7D1BFF35B8F3F
:100FC0000A4200D170BD1F4805EB45029300C118CD
:100FD0001D4A72B14978C05C03F0E2FE4FF0200375
:100FE000EFF3118683F31288BFF36F8F174B1C68E2
:100FF00010E0002383F31188BFF36F8FEEE70F4BF0
:101000001B7D03EB430399000E4B585C90470CB1DA
:10101000246824B11CB1A268002AF0D1F7E786F356
:101020001188BFF36F8F074805EB4505AA008118AB
:10103000002383504B608B60C4E700BFF0070020A3
:101040007402002064020020A14D00005C02002018
:1010500070B50446574B1D7D6A09BFF35B8F564B35
:1010600053F82230BFF35B8F05F01F02134113F0DA
:10107000010F15D005EB4503504A12F82330F3B1A8
:10108000B4F1FF3F31D102F04DFE4FF02003EFF3FA
:10109000118683F31288BFF36F8F494B1C6845E0BC
:1010A0000146284600F0A4F80028E3D005EB4503EC
:1010B000424A02EB830307C883E80700DAE705F03A
:1010C0001F02012393406D093B4A02EB8505DB4378
:1010D000BFF35B8F55E8002F1A4045E80021002937
:1010E000F8D1BFF35B8F002062E005EB4503334A84
:1010F00002EB83039868410CC003324BC018324A9C
:101100004FF0000341F10001FEF7FAFF0121201A20
:1011100004F02DFDB7E7274B1B7D03EB4303274965
:1011200011F8230090470CB1246824B11CB1626807
:10113000002AF0D1F7E786F31188BFF36F8F05F02F
:101140001F03012199406B09204A02EB8303BFF37F
:101150005B8F53E8002F0A4343E800200028F8D1B2
:10116000BFF35B8F1A4B4BB1144B05EB450203EBFE
:101170008201497813F8220003F006FEFFF708FF0A
:1011800005F01F03012404FA03F36D090A4A02EB78
:101190008505DB43BFF35B8F55E8002F1A4045E818
:1011A00000210029F8D1BFF35B8F02F07DFF2046BC
:1011B00070BD00BFF0070020700200206402002014
:1011C0005C0200203F420F0040420F0074020020EA
:1011D000894D0000BFF35B8F044B53F82000BFF331
:1011E0005B8F003818BF0120704700BF78020020D5
:1011F0002DE9F04182B00E4601A900F043F8441EEB
:1012000024B207E0B6F1FF3F32D04044B0422FD9BC
:10121000013C24B2002C2ADB019B04EB440203EBCB
:10122000820513F82200FFF7D5FF0028F0D1686887
:10123000410CC003104FC019104A4FF0000341F198
:101240000001FEF75DFF8046AB68590CDB03D8193F
:101250000A4A4FF0000341F10001FEF751FF084B2D
:101260001B68B3F1FF3FCDD08342CBD8D0E7002538
:10127000284602B0BDE8F0813F420F0040420F0017
:101280000400002008B9024B0B600020704700BF2B
:10129000805F0000014910220A60704710ED00E0F5
:1012A00072B6404080F31188BFF36F8FBFF34F8F4A
:1012B00030BF62B6BFF36F8F704700BF72B6494050
:1012C00081F3118820BF80F3118862B6704700BF98
:1012D00040B2002807DB00F01F02400901239340C1
:1012E000014A42F82030704700E100E04209054B16
:1012F00053F8222000F01F00012303FA00F01040F1
:10130000704700BF00E100E0013140B2002808DB77
:101310004901C9B200F1604000F5614080F8001356
:10132000704700F00F004901C9B2014B19547047D2
:1013300014ED00E030BFFFF7FDBF00BF08B50B4B59
:101340000B4A22F07F029A60BFF34F8FBFF36F8F7B
:10135000D3F8882022F47002C3F8882002F080FAC3
:1013600003F00EF800F012FA02F0D8FA00ED00E0F7
:10137000000000000A4A9368C3F8A80009490968F8
:10138000C3F8AC1008494B6843F080534B6000230E
:1013900083F31188BFF36F8F9368D3F8AC00704765
:1013A000F0070020FC60000000ED00E013498A68AF
:1013B0004FF030001044EFF3098C80E8F01F20203C
:1013C00080F31288BFF36F8F0D4F4FF00066CA692C
:1013D0008A603E60D2F8A8000023C2F8A83080F3EB
:1013E000118804B5104600F07BFABDE8044002F114
:1013F000300090E8F01F8CF309887047F007002058
:1014000004ED00E01EF0040F0CBFEFF30880EFF3D3
:101410000980816911F8021C0229FFD001B503F08F
:1014200087FB01BD10B4A2F120040E4942F8081C4C
:1014300021F0010142F8081C42F8203C019B42F8CF
:101440001C3C029B42F8183C039B42F8143C4FF0B2
:10145000807342F8043C04650023C0F8A83010BC37
:10146000704700BFE7490000124B9A6802B310F1C1
:10147000160F11D0D2F89830A3F1200C844505D86E
:10148000834205D98B4205D800210BE0002109E0F9
:10149000002107E0012105E0D2F898308B4294BF8B
:1014A0000021012109B900207047D2F89800704747
:1014B00000207047F007002008B50D461446084B81
:1014C000986000F00DFA204685F30988002163B684
:1014D00081F31188BFF36F8F0022002303F083FA9A
:1014E000F007002001B572B60B4A906900281EBFB4
:1014F0000021916104F0E8F962B6EFF30580A0F1F4
:1015000010004FEAC0000549014409C99847BDE8E9
:101510000140034908470000F0070020A85C0000D4
:1015200025150000044B9968D869884203D0034907
:101530004FF080520A607047F007002004ED00E091
:1015400010B51446124B9A6A9A6A9B6A13F4007F8C
:101550000BD00F4B9A6B9B6A13F4004F05D021B14F
:101560000B4A936A23F400439362094B9A6A9B6A7D
:1015700013F4807F01D1064B9B6A054A936A43F4BA
:101580007F439362012103F0E5FA2070002010BD33
:1015900000ED00E0074B9A6A9A6A9A6A9A6A9A6A18
:1015A0009A6A9A6A6FEA02426FEA12429A620020CD
:1015B000704700BF00ED00E070B505461646254BAC
:1015C0009A6A9A6A9B6A13F0020F0CD0214B586BEF
:1015D0009B6A13F0800F2FD039B11E4A936A23F013
:1015E0008003936201E06FF015001A4B9A6A9A6AC1
:1015F0009B6A13F0100F04D1164B9C6A14F002047E
:1016000004D0144B5C6814F4006418D1114B9B6A2D
:1016100013F0200F04D00F4A536A23F4005353628F
:101620000C4A936A43F0FF0393620121284603F0BA
:1016300091FA3070204670BD6FF01500D5E729464D
:10164000FFF712FF04460028E0D080F30988022447
:10165000DCE700BF00ED00E008B5844600230B7016
:101660001B4BD86A10F002002ED1DB6A002B2CDB5A
:10167000174BDB6A13F0804328D0DCF8183033F8BE
:10168000022C4DF602739A420FD0114B93F828307A
:1016900073B90F4B93F8293083B90D4B5B8D9BB217
:1016A0009BB16046FFF776FF0FE0DCF800000CE02E
:1016B0000A4601216046FFF77FFF06E00A46012146
:1016C0006046FFF73DFF00E0002008BD1846FCE73C
:1016D00000ED00E070B58AB00C46224B5968C1F3AA
:1016E0000801002383F31188BFF36F8F02F07F435B
:1016F000B3F17F4F15D102F00C03082B14D012F078
:10170000080F0BD000260DF12702204603F027FA20
:1017100005469DF8273053B10AB070BD0446012636
:10172000F1E700263446EEE700263446EBE72022B8
:10173000214601A803F0D8FA4EB1089BC3F3080272
:101740005AB96FEA53236FEA4323089305E0089BD5
:1017500023F4FF7323F00103089301A9284603F043
:10176000E3F9D9E700ED00E0024A536943F01003C2
:101770005361704700ED00E0EFF30880EFF309815B
:1017800001B57246FFF7A6FF01BD00BF002206E0CB
:1017900002F00F01094B0B442021197601322F2A48
:1017A0000ADC53B2002BF3DB03F1604303F5614322
:1017B000202183F80013F1E7704700BFFCEC00E044
:1017C000002080F31488BFF36F8F04F007FA002025
:1017D0000D490860BFF34F8F0C4880F3088800F074
:1017E0002DF8202080F3118809484FF40261401839
:1017F00080F30988EFF314800221084380F31488F2
:10180000BFF36F8FFFF79AFD94ED00E0400C0020CE
:10181000C00D0020084BD3F89000C0F30720002330
:1018200006E0054AC2F898300021C2F8A010013342
:101830008342F6DB704700BF00ED00E010B572B6E2
:10184000002484F31388FFF7E5FF234608E003F143
:1018500020010E4A4FF0FF3042F821000133DBB285
:10186000072BF4D9002308E003F16001074A4FF089
:10187000FF3042F821000133DBB2072BF4D962B606
:10188000BFF34F8FBFF36F8F10BD00BF00E100E0CB
:1018900008B50A4B9B68834202D002F049FD08BD9F
:1018A000EFF30583002BF8D0054B5A6842F08052C5
:1018B0005A605A6A22F400425A62EEE7F0070020AA
:1018C00000ED00E008B5034B034A0121034803F093
:1018D000CCF908BD0000022000000020805F00005D
:1018E00008B5D0F89830203B0448036020234360BB
:1018F000034B8360012103F0BCF908BD9402002072
:1019000000000B15084AC2F898000B6823F01F036B
:10191000034343F01003C2F89C308B6843F001038B
:10192000C2F8A030704700BF00ED00E010B5034CD6
:101930000123227803F071F9207010BD2C080020DB
:1019400008B50023094A127803F067F910F1160F61
:101950000AD0034606E0064AC2F898300021C2F8D1
:10196000A0100133072BF6DD08BD00BF2C080020B6
:1019700000ED00E0044B0522C3F89420BFF34F8F25
:10198000BFF36F8F704700BF00ED00E0BFF35F8FC4
:10199000024B0022C3F89420704700BF00ED00E026
:1019A00038B50E4B1D68082D15D8FFF7EFFF002442
:1019B00009E00A4B596804EB44029300194420469D
:1019C000FFF7A0FF0134A542F3D8054B1D70FFF7C8
:1019D000D1FF002038BD4FF0FF30FBE79C5F0000D7
:1019E0002C080020014B1860704700BF0800002041
:1019F0004FF02003EFF3118283F31288BFF36F8F50
:101A000001230649C1F840354FF08041C1F87835CF
:101A100082F31188BFF36F8F0020704700E0014010
:101A2000C0B24FF08042C2F81C05BFF34F8F05498A
:101A3000CA6802F4E062044B1343CB60BFF34F8FDC
:101A400000BFFDE700ED00E00400FA0530B108B585
:101A50008001034B43F00103984708BD704700BF66
:101A6000A05E000000487047F0020020034BC01A3F
:101A70008010034B03FB00F0704700BFB002002052
:101A8000B76DDBB638B505460C46FFF7EFFF0146EC
:101A90004022034803F0FFF901462846A04738BD1D
:101AA000305C000030B583B005460C46FFF7DEFF22
:101AB0000146402300932346054A064803F005FAF1
:101AC000011E01DB03B030BD2846A047FAE700BF86
:101AD000134F0000305C000008B510B101280DD094
:101AE00008BD0021084803F061F9836813F0070F6F
:101AF000F6D10021044803F0BCF9F1E701210248C6
:101B000003F0B7F9ECE700BF305C000010B54FF010
:101B10002003EFF3118483F31288BFF36F8F134A0E
:101B2000136843F00203136013F0010F08D1002380
:101B300084F31188BFF36F8F9BB903F0F2F910BDE6
:101B40004FF08043D3F80C24D3F80C3412F0010F7B
:101B500001D10023ECE7FFF785FF03F077F90123BC
:101B6000E6E70021024803F084F9E8E700030020DB
:101B7000305C000008B50A4BBFF35B8F53E8002FC1
:101B800022F0020143E800100028F7D1BFF35B8F79
:101B900012F0010F00D008BD03F0CDF9FBE700BF44
:101BA0000003002000B585B0CDF800D0CDF804D0FA
:101BB00000230293012303936B46074A03F0A1F924
:101BC000002805DB4FF480420023684602F008F845
:101BD00005B05DF804FB00BF4B4F000070B5064632
:101BE000002201211046FFF78FFB114801F042F857
:101BF000104B984219D103F088FD0024012C12D813
:101C00002146304603F0D2F805462146304603F01F
:101C1000D8F8094902F06EFE002805DB0123AB600D
:101C20001C44E4B2EAE7002070BD6FF00400FBE75B
:101C3000D91A00000000AD0BEC5F000070B505463E
:101C4000012807D14FF08043D3F81C3403F003037D
:101C5000012B5AD003F023FE28B92F4B1B78002B01
:101C600043D0002300E001231C46002B3FD04FF05F
:101C70002003EFF3118683F31288BFF36F8F24B92B
:101C80004FF080430222C3F808234FF08042D2F87D
:101C9000183403F00303D2F8182412F4803F2DD136
:101CA00000221AB1012B2BD0012D29D00CB33046C4
:101CB000FFF704FB4FF08043D3F81835002BE4D135
:101CC0004FF08043D3F80431002BDED04FF0804337
:101CD0000022C3F80421D3F804210122C3F81825F7
:101CE0000E49C1F880219A60CFE70123BCE70026A6
:101CF000C5E72120002102F0E9FADBE70122D0E765
:101D000024B186F31188BFF36F8F70BD4FF080430D
:101D10000222C3F80423F8E72D08002000E100E0C8
:101D200010B50446104B0121BFF35B8F53E8002F21
:101D300043E800100028F9D1BFF35B8F1AB1631E8E
:101D4000012B0DD910BD094803F03BF808490023C9
:101D50004B608B60CB6001238B6002F0E8FDEEE707
:101D60002046FFF76BFFEDE704030020305C000026
:101D7000A002002010B504460A2807D0074B1868B7
:101D8000E1B283685B689847204610BD034B186832
:101D900083685B680D219847F0E700BF08030020C7
:101DA00010B5044C2046FFF71DFE2046FEF7BCFB95
:101DB00010BD00BF751D000008B50648064B186031
:101DC00003F02CFD18B1FFF7EBFF002008BD6FF00A
:101DD0001200FBE7905C00000803002028B10128F6
:101DE00001D103487047002070470248704700BF88
:101DF000485C0000605C0000F0B585B00E461946F6
:101E000043681B7B06F01F0545EA4315B2F5001F2A
:101E100022D007461446002302930393104603F092
:101E200012F98DF808007B689968F14011F0010FF4
:101E300002D1B4F1A07F14D0002302AA194628468B
:101E400001F082F91B4B984231D10121284601F063
:101E500059FB002005B0F0BD284601F0B7FB00207B
:101E6000F8E705F01F036A09012A14D04FF0A042D9
:101E700003F5E07352F8233013F0010FDCD10DF1BC
:101E80000701284601F0E2FA0B4B984205D00DF10C
:101E900007030393D0E7094AEAE70DF1070001F0D1
:101EA00029FB044B9842F2D06FF00B00D2E76FF0A1
:101EB0000400CFE70000AD0B0400AD0B00030050A1
:101EC00030B583B004460DF1070101F0BFFA0546B5
:101ED000204601F0ABFB0B4B98420FD19D4205D041
:101EE000084B984207D1002003B030BD9DF8070091
:101EF00001F0F8FAF4E76FF00400F5E76FF0040082
:101F0000F2E700BF0000AD0B2DE9F04387B0D0F839
:101F1000048098F80C3001F01F0545EA4315002AAB
:101F200044D00C4617460026039604960DF117017F
:101F3000204601F08BFA8146334603AA31462846F3
:101F400001F002F9304B98425BD1994536D017F435
:101F5000003F43D00DF10301384602F0FBFF064677
:101F600040BB9DF803308DF8043017F4803F0CBF60
:101F7000012300238DF80530384603F031F88DF841
:101F8000060017F4002F1ED0D8F80430012101FA02
:101F900004F4C3F80845002201A9284601F08CF991
:101FA000194B984206D06FF0150603E02846FFF75C
:101FB00087FF0646304607B0BDE8F0839DF817005E
:101FC00001F090FAC3E717F4802FE4D0D8F804208A
:101FD000012303FA04F4C2F80C45DCE7384602F0AA
:101FE000FFFF8DF8080000231A4602A9284601F0D9
:101FF000ABF8054B984201D10026DBE76FF01506E0
:10200000D8E76FF01506D5E70000AD0B08B501F075
:102010005FFA08B1002008BD01F030FA084B984281
:102020000AD10021074801F00BFA00220521062001
:10203000FFF76AF90020EEE76FF00400EBE700BF5E
:102040000000AD0BE550000043681A68B1F5164F6B
:102050006FD03AD8B1F5165F6ED00AD9B1F5E14F1D
:1020600075D024D947F6122399422BD14FF400039F
:1020700013E0B1F5966F61D007D9B1F5166F63D053
:10208000B1F5965F10D13C4B07E0B1F5967F58D083
:10209000B1F5167F05D14FF41C33C2F8243500206A
:1020A00070476FF0150070476FF015007047B1F57D
:1020B000615F4ED0B1F5964F01D1304BEDE76FF037
:1020C000150070476FF015007047B1F5613F42D0C1
:1020D00009D9B1F5612F46D01FD9294B994248D172
:1020E0004FF08053D9E7B1F5963F37D005D9B1F518
:1020F000E13F0FD14FF0EB73CFE74DF6C02399428C
:102100002ED0B1F5614F02D14FF46B03C5E76FF0EC
:10211000150070476FF0150070471A4B994225D093
:10212000B1F5E12F02D14FF0E863B6E76FF015008B
:1021300070474FF41D03B0E7134BAEE74FF49E23F7
:10214000ABE74FF4A033A8E74FF41D23A5E70F4BEF
:10215000A3E70F4BA1E74FF06C739EE70D4B9CE795
:102160004FF4650399E74FF0706396E74FF0806393
:1021700093E76FF01500704700B0130000A04E0009
:1021800040420F0090D003000050270000C07500AF
:1021900000F03A0000903A012DE9F04105460F4663
:1021A000D0F8108003F07BFB20B9164B1B7843B1AD
:1021B000002300E0012353B9284603F0B9F806468E
:1021C00013E00123F7E784F31188BFF36F8F4FF01B
:1021D0002003EFF3118483F31288BFF36F8F264639
:1021E000284603F057F80028EDD0414601F8107F4B
:1021F0000122284603F068F886F31188BFF36F8F39
:10220000BDE8F0812D08002038B504460D4601F1E7
:10221000120001F05FFA0C4B984211D1AB7C04F52F
:1022200090710C34094AA23342F8331002EBC30315
:102230005C60A97C01238B40C2F80435002038BDC6
:102240006FF00400FBE700BF0000AD0B00F00140A1
:1022500021F07F4100F5A870014B43F82010704732
:102260000010014000F5A870014B53F820007047A2
:10227000001001404FF480338340024AC2F84433D7
:10228000704700BF001001404FF480338340024A82
:10229000C2F84833704700BF00100140014BD3F82B
:1022A000040570470010014010B5012383406FEA18
:1022B000030C104ABFF35B8F52E8001F01EA0C0EBB
:1022C00042E800E4002CF7D1BFF35B8F4FF480327B
:1022D00002FA00F002F1804202F58052C2F80803CF
:1022E000BFF35F8FBFF36F8F0B4214BF012000203D
:1022F00010BD00BF2803002070B5044603F0D2F8DB
:1023000005464FF48033A340174AD2F80423134202
:1023100005D10026284603F0CEF8304670BD0123D3
:10232000A340DB43114ABFF35B8F52E8001F01EA71
:10233000030042E80006002EF7D1BFF35B8F59B9C6
:1023400004F150039B009BB203F1804303F58833F3
:102350001B6813B1012300E001231E46002BD9D0D6
:10236000204603F090F8D5E7001001402403002038
:1023700001B9704701238340114ABFF35B8F52E8D4
:10238000001F194342E8001CBCF1000FF7D1BFF356
:102390005B8F4FF4803383400A4AC2F80433BFF3A3
:1023A0005B8F094B1B68BFF35B8F23FA00F010F0C3
:1023B000010FDED0054B4FF40032C3F80021D8E7FF
:1023C00028030020001001402403002000E100E069
:1023D0002DE9F843074614461E461046194603F0F9
:1023E0005EF80546154B1A68A01A1C605E60A5F5DC
:1023F0000013B3F5400F09D3002402F0AFF83846BC
:10240000FFF730FFA8420ED0BDE8F8830C4B1B68E5
:102410001A0A1B0615EB030842F10009094BC3E930
:1024200000890124E9E71CB13846FFF723FFEBE7F9
:102430004FF400013846FFF70BFFF5E7E0000020FE
:102440002C030020C800002038B50D4B1C68250A5D
:102450002406BFF35F8FFFF721FF0346001945F104
:102460000001B3F5801F0AD2064BD3E90023904246
:1024700071EB030303D210F1807041F1000138BD0C
:102480002C030020C8000020F8B5064614461D465F
:102490001046194603F003F80746FFF7D5FFA042A0
:1024A00071EB05031DD2231A65EB01011B4A934210
:1024B00071F100032FD21A4B03EB0613D3E9022369
:1024C000AB4208BFA2421AD03946304602F0F8FFAC
:1024D000394602F0D4FF001945F1000304461D46B9
:1024E0000DE00123B3400F4ABFF35B8F52E8001F9A
:1024F000194342E800100028F8D1BFF35B8F084B66
:10250000320103EB0616C6E9024506999950079B6E
:1025100073600020F8BD6FF01500FBE701000001BB
:10252000D00000202403002030B583B000231D4AD2
:10253000C2F80835002B24DD1A4C0225C4F80453D8
:10254000194B4FF40032C3F88021002201211120E1
:10255000FEF7DAFE1120FEF7BBFE0123A360236025
:10256000124A136000240194114B0093114A002376
:10257000204602F0E0FF2846FFF7D2FB204603B0DA
:1025800030BD0D4A02EB03124FF0FF304FF0FF3128
:10259000C2E902014FF480329A400249C1F8042393
:1025A0000133C7E70010014000E100E028030020EC
:1025B000D1230000FFFF7F00D00000202DE9F0476D
:1025C00082B00446FFF798FE10B902B0BDE8F0876C
:1025D000FFF73AFF82460E4602F064FF0546134BB2
:1025E00003EB0413D3E90289C24576EB09030BD24E
:1025F0000026284602F05FFF002EE6D000974246F4
:102600004B462046B047E0E7084A230102EB04119D
:10261000D6584F680020D0504FF0FF324FF0FF33B4
:10262000C1E902232046FFF72FFEE2E7D000002099
:1026300010B50E4BD3F8043313F0020F0DD00B4B33
:10264000D3F804314BB1094B0022C3F80421D3F86D
:102650000431074A1368013313600024002C00DDA5
:1026600010BD2046FFF7AAFF0134F7E70010014034
:102670002C03002010B582B0B0F1FF3F06D0012836
:1026800006DDB0F5000F05DA441E04E00F48F8E758
:10269000002400E00D4CFFF7D7FE0D4B19685B6876
:1026A000401AB0F5000F00D300242044421CB2F5BC
:1026B000000F00D3054A00208A18019005490091B7
:1026C00043F1000302F037FF02B010BDFFFF7F00AF
:1026D000E0000020D123000008B5FFF7B5FE024B53
:1026E0001B68C01A08BD00BFE000002000B510F450
:1026F000805F01D001220021C0F3811EC0F3032CB2
:1027000000F01F0310F0200F0DD14FF0A04041EA60
:10271000420141EA8E0141EA0C2103F5E07340F8E1
:1027200023105DF804FB0148F1E700BF00030050EF
:102730002DE9F04106460F469046002417E005F0CB
:102740003F05C8F80C5556F8241001F01F0211F08F
:10275000200F4FD14FF0A045012101FA02F2C5F838
:1027600008250A463058FFF7C1FF0134E4B2BC42E5
:1027700080F06E81A00056F82450C5F303232A0C84
:10278000192A00F2678101A151F822F03F270000C9
:10279000F92700000F2800004128000057280000FA
:1027A00089280000BB280000552A0000552A000097
:1027B000552A0000552A0000D1280000E928000011
:1027C000552A0000552A0000552A0000552A00000D
:1027D000552A0000552A0000552A0000552A0000FD
:1027E000552A00000129000055290000A9290000F0
:1027F000FD290000994DAFE705F03F05C8F81455D5
:102800000022114656F82400FFF770FFADE705F0EF
:102810003F05C8F8085556F8241001F01F0211F0C2
:10282000200F0BD14FF0A045012101FA02F2C5F8AB
:1028300008250A463058FFF759FF96E7874DF3E71A
:1028400005F03F05C8F810550022114656F824003F
:10285000FFF74CFF89E705F03F05C8F8085556F823
:10286000241001F01F0211F0200F0BD14FF0A045F2
:10287000012101FA02F2C5F80C2500223058FFF7B9
:1028800035FF72E7754DF3E705F03F05C8F80C55C5
:1028900056F8241001F01F0211F0200F0BD14FF059
:1028A000A045012101FA02F2C5F80C250A4630586C
:1028B000FFF71CFF59E7694DF3E705F03F05C8F83E
:1028C00010550022114656F82400FFF70FFF4CE781
:1028D00005F03F05C8F8085503B906230022114644
:1028E0003058FFF703FF40E705F03F05C8F80C55E7
:1028F00003B90623002211463058FFF7F7FE34E7EC
:1029000005F03F05C8F8605556F8242002F03F0155
:1029100012F4005F11D101F01F054A090BD14FF0ED
:10292000A0410122AA40C1F80C25012211463058CD
:10293000FFF7DCFE19E74949F3E701F01F054A09F3
:1029400006D14FF0A0410122AA40C1F80825ECE7CA
:102950004249F8E705F03F05C8F8645556F82420C9
:1029600002F03F0112F4005F11D101F01F054A0986
:102970000BD14FF0A0410122AA40C1F80C25012241
:1029800011463058FFF7B2FEEFE63449F3E701F0A5
:102990001F054A0906D14FF0A0410122AA40C1F803
:1029A0000825ECE72D49F8E705F03F05C8F868551C
:1029B00056F8242002F03F0112F4005F11D101F01B
:1029C0001F054A090BD14FF0A0410122AA40C1F8CE
:1029D0000C25012211463058FFF788FEC5E61F4935
:1029E000F3E701F01F054A0906D14FF0A04101228B
:1029F000AA40C1F80825ECE71849F8E705F03F05BB
:102A0000C8F86C5556F8242002F03F0112F4005F1C
:102A100011D101F01F054A090BD14FF0A04101224D
:102A2000AA40C1F80C25012211463058FFF75EFE7E
:102A30009BE60A49F3E701F01F054A0906D14FF06A
:102A4000A0410122AA40C1F80825ECE70349F8E7B4
:102A5000002001E06FF08500BDE8F0810003005028
:102A6000024BD3F80034002BFAD0704700E001404D
:102A700008B5034BC3F80405FFF7F2FF08BD00BF1C
:102A800000E00140014B024A1A6070473400002008
:102A90000090D00338B502F089FD40B14FF080437B
:102AA0000022C3F80C21C3F81021C3F8382502F026
:102AB00087FD002846D04FF08052D2F80414454BD1
:102AC000C3F82015D2F80814C3F82415D2F80C1452
:102AD000C3F82815D2F81014C3F82C15D2F8141422
:102AE000C3F83015D2F81814C3F83415D2F81C14F2
:102AF000C3F84015D2F82014C3F84415D2F82414B2
:102B0000C3F84815D2F82814C3F84C15D2F82C1481
:102B1000C3F85015D2F83014C3F85415D2F8341451
:102B2000C3F86015D2F83814C3F86415D2F83C1411
:102B3000C3F86815D2F84014C3F86C15D2F84424D1
:102B4000C3F8702502F046FD60B14FF08043D3F822
:102B5000003413F0010F05D04FF080436FF00102F5
:102B6000C3F8002402F040FD38B14FF01023D3F831
:102B700008224FF08043C3F858254FF01023D3F8B4
:102B80000032002B08DB4FF01023D3F80432002B67
:102B900002DBFFF777FF38BD0120FFF769FF4FF039
:102BA00010241225C4F80052FFF75AFFC4F804524B
:102BB000FFF756FF0020FFF75BFFBFF34F8F06497B
:102BC000CA6802F4E062054B1343CB60BFF34F8F3A
:102BD00000BFFDE700C0004000ED00E00400FA0582
:102BE00010B50468B4FA84F3C3F11F035FFA83FCE1
:102BF000002B16DB012202FA03F324EA0303BFF3DE
:102C00005B8F50E8002FA24204D140E8003EBEF1A5
:102C1000000FF6D1BFF35B8FE3D181F800C002480B
:102C200010BD0248FCE700BF0000AD0B0200AD0B79
:102C30000368CB4013F0010F15D100B502680123E2
:102C40008B401343BFF35B8F50E800CF944504D112
:102C500040E8003EBEF1000FF6D1BFF35B8FEDD12F
:102C600002485DF804FB0248704700BF0000AD0B4E
:102C70000400AD0B054B1B792BB9044B18600122E6
:102C80001A71034870470348704700BF30030020A3
:102C90000000AD0B0C00AD0B08B54FF08043D3F82E
:102CA000003163B14FF080430020C3F80001D3F836
:102CB00000210122C3F80823134B1B6898474FF0EB
:102CC0008043D3F804319BB14FF080430022C3F816
:102CD0000421D3F80421D3F81824D3F8183412F0BF
:102CE000030F06D14FF080430122C3F818259A60E4
:102CF00008BD4FF080430222C3F80823024B1B6833
:102D000001209847F4E700BF300300200830034B50
:102D100033F8100000F00100704700BF38000020B9
:102D20000830034B33F81000C0F34010704700BF69
:102D3000380000200830044B33F8100010F01C005D
:102D400018BF0120704700BF380000200830034B37
:102D500033F81000C0F34000704700BF3800002077
:102D60000830024B33F81000400B70473800002049
:102D7000002204E04FF0FF3383420FD00132292AB2
:102D80000AD802F10803064931F8133013F4807FA2
:102D9000F0D0C3F34323EFE70020704701207047D2
:102DA00038000020002313B14FF0FF307047074A6E
:102DB00052F83320824201D00133F4E7034A02EB98
:102DC000C30252688A42F7D1184670473800002083
:102DD0000830064B33F8100010F4807F04D0C0F3A5
:102DE000432003EBC00070470020704738000020EC
:102DF00070B504460D46FFF7EBFF20B10668426848
:102E000029462046B047044B9B6823B1024AD2684A
:102E100029462046984770BD3800002000F108027E
:102E20000E4B33F8123013F4807F16D010B5C3F375
:102E30004324104623F4F853084A22F81030204661
:102E4000FFF796FF00B110BD0448002340F834306E
:102E500021466830FFF7ECFEF5E7704738000020A8
:102E600010B50446FFF75CFF40B12046FFF778FF3E
:102E700000F5A270064B002243F820202046FFF701
:102E8000CDFF0834034B002223F8142010BD00BFEF
:102E9000006000403800002070B582B006460C4645
:102EA0001546FFF7BBFF24B329462046FFF77AFFFC
:102EB000031E13DB104A42F8334002EBC3014D609E
:102EC0005B029BB206F1080032F810100B4343F48A
:102ED000807322F81030094802B070BD0DF107016F
:102EE0000748FFF77DFE054B9842F5D19DF8073066
:102EF000E0E70248F0E700BF380000200000AD0B1B
:102F0000A000002038B5044618E094FAA4F3B3FA00
:102F100083F301229A4024EA02040A4A03F5A273C9
:102F200052F82350C5F3052552F82300C0F30140A1
:102F300002F064FC01462846FFF75AFF002CE4D15A
:102F400038BD00BF0060004082B08446114B93E85A
:102F5000030002AB03E90300604600230BE002AA72
:102F600002EB830252F8082CD2F8201540F8041B1B
:102F7000C2F820150133012BF1D90023012B04D80D
:102F80005CF8232022B90133F8E7002002B0704733
:102F90000120FBE7905E000070B504460D46164622
:102FA000084602F02DFCD0B9022E52D0022004F0C7
:102FB0001F02610901294ED04FF0A04102F5E072D5
:102FC00051F8223023F4403343EA004341F82230E1
:102FD000032D44D0022E40D0032E45D070BD29468B
:102FE0002046FFF705FF04F01F036209012A2AD0DB
:102FF0004FF0A04203F5E07352F82330C3F30143CE
:103000009E42EBD104F01F036209012A1DD04FF04C
:10301000A04103F5E07351F8232022F4403241F837
:10302000232004F01F036409012C10D04FF0A041AD
:1030300003F5E07351F8232022F4403242EA0646B9
:1030400041F82360CAE70A4AD4E70949E1E7084999
:10305000EEE70320ABE70649B0E7012DBCD12946D6
:103060002046FFF7C5FEB9E7022DB7D1F7E700BF4D
:103070000003005070B584B02F4A6B4692E80300FD
:1030800083E80300002302A80BE004AA02EB8302FA
:1030900052F8102CD2F8201540F8041BC2F8201565
:1030A0000133012BF1D942E0244E05F5E07356F8C7
:1030B0002320C2F30142FFF76FFF0123AB40C6F8A4
:1030C000203504AB03EB840353F8080C10B390FADB
:1030D000A0F0B0FA80F000EB441000F10802184BA9
:1030E00033F81210C1F38201C50800F007020DF198
:1030F000080C012303FA02F21CF8053023EA02034C
:103100000CF8053000F01F054309012BCCD04FF01F
:10311000A046CAE70134012CD3D90A4B0022C3F8D8
:103120007C21D3F87C3102A8FFF70EFF08B1002400
:10313000F1E704B070BD00BF905E000000030050D6
:1031400038000020006000402DE9F041044615469B
:103150001E4671B30F4602F03BFB002840F09980F9
:1031600004F01F026309012B45D04FF0A04002F587
:10317000E07350F82330002F3FD00C2141F00301C1
:1031800023EA0103002F3AD0397889000B4302F576
:10319000E07240F82230434A04F1080132F811305D
:1031A00023F002039BB222F8113043F0010322F80E
:1031B0001130BDB12F78D5F804802046FFF7C6FD49
:1031C000F8B1B8F1000F66D1364A04F1080132F8BF
:1031D000113023F01C039BB222F8113043EA87031D
:1031E00022F81130002E5AD0726831682046FFF75D
:1031F00053FEBDE8F0812C48B9E70021BEE700216D
:10320000C4E7284A04F1080132F8113023F0200302
:10321000DB04DB0C22F81130B8F1000FD4D0032FFF
:103220003BD86B681D7837B905F5A2751F4B002296
:1032300043F82520C8E7384602F0E1FA1B4B05F5B4
:10324000A27253F8221021F0030143F8221053F820
:10325000221021F44F3121F4407143F8221053F829
:1032600022C0210201F47C51000400F440300143EB
:103270004CEA010143F822106B039BB2094A04F1A6
:10328000080132F81100034343F0200322F8113003
:103290009AE70748ADE70648ABE70548A9E70548C0
:1032A000A7E700BF38000020000300500060004086
:1032B0000400AD0B0000AD0BF8B50446154600291F
:1032C00055D00E4602F093FA28B12046FFF728FDAC
:1032D000002840F0A2802046FFF72CFD18B173783B
:1032E000012B00F09C8006F1010CB71C04F01F02BA
:1032F0006309012B57D04FF0A04102F5E07351F85C
:103300002300BCF1000F50D0022343F00103002F33
:103310004DD04FF00C0E43EA0E03002E4AD04FF46E
:10332000E06E43EA0E0320EA0300BCF1000F44D034
:1033300073785B0043F00103002F40D096F802C081
:103340004FEA8C0C43EA0C03002E3BD03678360251
:103350003343034302F5E07241F82230334A04F16B
:10336000080132F8113043F0030322F81130002D28
:1033700057D0204602F03BFA002854D12B7803F5B1
:10338000A2712B4A42F82100284904F1080031F8C3
:10339000102022F02002D204D20C21F810206A78EA
:1033A00092B92448F8BD2449A7E70023ADE74FF0C0
:1033B000000EB0E74FF0000EB3E70023BAE74FF07E
:1033C000000CBFE70026C3E7AF78194803F5A275E4
:1033D00050F8251021F4991121F4F85140F82510E6
:1033E00050F82560210201F47C51120402F44032AD
:1033F0000A43390501F480110A43324340F825207D
:103400005B039BB2094A083432F814100B4343F0B3
:10341000200322F814300748C4E70848C2E70748E9
:10342000C0E70448BEE70548BCE700BF38000020FD
:10343000006000400000AD0B000300500400AD0B25
:10344000014B9860D96070473800002038B50446B9
:103450000D46FFF765FC40B104F10800044B33F85A
:1034600010305B0B2B70034838BD0348FCE700BFEE
:10347000380000200000AD0B0400AD0B104B93F89A
:103480006C300BB10F48704710B50D4C5422002121
:1034900004F1100001F057FC0620FDF719FF0A4B5C
:1034A0000022C3F87C21D3F87C214FF00042C3F8FE
:1034B0000423012384F86C30A366044810BD00BFC8
:1034C000380000200500AD0B006000400000AD0B8F
:1034D000034B93F86C00003818BF0120704700BF01
:1034E0003800002008B501460148FFF7A1FB08BDE0
:1034F0009C00002008B501460148FFF771FB08BD9C
:103500009C00002038B504460D46FFF709FC08B3BF
:10351000204602F06CF9E8B12046FFF721FC830059
:1035200003F580739BB203F1804303F5C04300228F
:103530001A601B68224A00F5A27152F8213043F04C
:10354000010342F821309DB3012303FA00F0C2F8D1
:1035500004032DE004F108031A4A32F81330C3F3D0
:103560008203042B12D0052B23D004F01F02630921
:10357000012B09D04FF0A043D3F81035D34013F0FE
:10358000010F18D0032002E00F4BF5E7032004F0F1
:103590001F026409012C10D04FF0A04102F5E07227
:1035A00051F8223023F4403343EA004341F82230FB
:1035B00038BD0220EBE70220E9E70349EEE700BF50
:1035C00000600040380000200003005010B50446A1
:1035D000FFF7A6FBA0B1204602F009F980B1204612
:1035E000FFF7BEFB012282400E4BC3F8082300F513
:1035F000A27053F8202022F0030243F820200EE0AE
:1036000004F01F036409012C0AD04FF0A04103F518
:10361000E07351F8232022F4403241F8232010BDFA
:103620000149F4E7006000400003005010B5044673
:10363000FFF76CFB08B90C4810BD2046FFF7C6FF2A
:103640002046FFF70DFC04F01F036409012C08D08D
:103650004FF0A04203F5E073022142F82310034823
:10366000EAE7034AF6E700BF0400AD0B0000AD0B2C
:103670000003005038B501204FF4807300210C4640
:1036800003E0400004339BB20131072914D803F151
:10369000804202F5C0421268002AF2D00C4AD2F8E9
:1036A00004231042EDD003F1804202F5C042002510
:1036B000156012680443E4E7054BD3F87C311BB96D
:1036C0002046FFF71FFC38BDFFF7D4FCF8E700BF2A
:1036D0000060004008B501460148FFF781FA08BDC7
:1036E000A800002010B5144C032323616361134A22
:1036F000A261134BE3614FF4806323620023A36252
:103700006362E36222660F4A62661022A266236742
:10371000E36663670C49E01D01F0AFFABFF35F8F0A
:103720000A49204601F0A9FABFF35F8F2023A37155
:10373000BFF35F8F10BD00BF38030020D0600000D2
:10374000F0030020E0030020DC600000E0600000E7
:10375000034B00E01833034A9342FBD3704700BF8A
:10376000305C0000A85C000070B50646114B53F8B1
:10377000204009E0404217E0EB681870EA6853788F
:1037800043F0010353700834731C0A4A52F8233083
:10379000A3420DD96568236828469847002DF2D0CA
:1037A0000028EBD00028E5DBFF28E5DDFF20E3E77C
:1037B00070BD00BFE860000010B586B0114CB023AA
:1037C00003FB004400EB40020F4B03EBC2030F4A24
:1037D0000592012204920F2203920022029201928A
:1037E00000930B4B4FF4A0720A494FF4B07C0CFBD2
:1037F0000011204600F004F9637B23F00403637397
:1038000006B010BDE8000020F007002000610000B5
:103810005D3B0000600C002008B50A4B01221A70C5
:103820000220FFF7A1FF00F01BFF0320FFF79CFF22
:1038300000F04AF9FCF708FE034A137B23F001036A
:10384000137308BD2D0800209801002008B501461B
:10385000014A0248FDF730FE1938000098010020A7
:1038600008B50348034A121A002101F0FEFF08BD03
:10387000C80000203008002010B50446FFF79CFF68
:103880000B49B02303FB04110A4A04EB440302EB87
:10389000C303D9601C7504EB8411074B03EB411380
:1038A00003F5026304EB440402EBC404636010BD3F
:1038B000E8000020F0070020C00D002070B586B0A1
:1038C00000F068FC104D114BDD61114B0593012395
:1038D0000493002403940294019400940D4B4FF43C
:1038E00080620D49284600F08BF806466B7B23F07A
:1038F00004036B73284602F01FF82046FFF7BCFF55
:10390000304606B070BD00BF98010020F0070020CF
:1039100008610000193800004008002000B5ADB073
:103920001D4B83F308881D4C636943F40073636186
:10393000E02384F822300025E57725766576A576A4
:1039400084F82050636A43F4E023636284F82350D0
:10395000FDF70AFFFDF79EFC4FF0FF33A362E36221
:10396000FEF71EF8FDF7AEFF01248DF80D408DF82F
:103970000C40269527952995094BC3F808D0FFF7E9
:10398000E7FE2846FFF7F0FE2046FFF7EDFEFFF7C3
:1039900095FFFFF75BFF00BFE015002000ED00E0A2
:1039A000F00700204FF02003EFF3118183F312881A
:1039B000BFF36F8F0A4B9B6A834204D11A6F084B87
:1039C0009A6207E0134613B11A6F8242FAD10BB123
:1039D000026F1A6781F31188BFF36F8F704700BFC2
:1039E000F007002008B553EA020102D101F05DFFA3
:1039F00008BD0249183000F025FDF9E771590000B3
:103A00002DE9F04F85B004460F4615461E46DDF8F9
:103A100038A0DDF83C90DDF84080DDF84CB000F1D6
:103A200058038365C365129B0422119901F041FF7D
:103A30002A463946204601F020FF0546CDF8088089
:103A4000CDF80490CDF800A0334602463946204612
:103A5000FDF7E8FC002363652666C4F864A0C4F89B
:103A60006890C4F86C804FF02003EFF3118283F369
:103A70001288BFF36F8F134B996A21679C6282F3A0
:103A80001188BFF36F8FBBF1000F13D01F2259466F
:103A900004F1740001F0FBF8002384F89330094B23
:103AA0009B685BB1D3F8A430C4F8A430284605B0B5
:103AB000BDE8F08F002384F87430F0E7C4F8A43038
:103AC000F4E700BFF007002030B587B0214C14E0C8
:103AD000E36A0593236A0493E3690393A36902935A
:103AE0006369019323690093E368A26861682068B1
:103AF000FFF786FF23685C653034174B9C42E7D3A1
:103B000000F010F9134C00E03034134B9C421CD2EF
:103B1000606AB0F1FF3FF7D0256820EAE070C11776
:103B2000C90341EA5041C00340F2E733C0184FF4E3
:103B30007A724FF0000341F10001FCF7E1FA02460E
:103B40000B462846FFF74EFFDEE700F0ADFA07B060
:103B500030BD00BFC8000020C800002008B501E04B
:103B6000FDF79EFB4FF02002EFF3118382F31288E2
:103B7000BFF36F8F01F0E4FF054B9861054B1B7895
:103B8000002BEDD0FDF764FA0028EBD1E8E700BF89
:103B9000F00700202D08002038B504464FF0200320
:103BA000EFF3118583F31288BFF36F8F01F064FF89
:103BB00048B10022C0F8AC2001F0BEFE29460748FB
:103BC00000F094F838BDA368E268934203D0012264
:103BD0001344A360F2E70022FAE700BF1C080020AC
:103BE00010B582B04FF02004EFF3118184F31288F6
:103BF000BFF36F8F846844B1013C846081F3118806
:103C0000BFF36F8F002002B010BD53EA020406D04C
:103C1000009201930246054800F0F0F9F3E781F3C2
:103C20001188BFF36F8F6FF00F00ECE71C080020C6
:103C3000B3F1FF3F08BFB2F1FF3F00D1704708B5B5
:103C40000249183000F0FEFB08BD00BF71590000AA
:103C500010B5074B1C6804B910BDFEF73DFD0444C8
:103C6000044B1C610021024B186801F080FFF3E750
:103C700024080020F007002070B504460D460023FC
:103C80004FF02002EFF3118682F31288BFF36F8F9B
:103C90000EE00228B8BF02201860114B1D60114BC6
:103CA0009868FFF7D5FF86F31188BFF36F8F012364
:103CB000A3B90C4B00221A61610CE30340F2E73018
:103CC00018184FF47A724FF0000341F10001FCF72D
:103CD00017FA054B1860002CDBDCDEE770BD00BF77
:103CE00020080020F00700202408002008B508461E
:103CF00021B9EFF3058313B9012100E0002111F090
:103D0000010F07D0064BDA699B689A4202D0FDF793
:103D100031FB03E080F31188BFF36F8F08BD00BF54
:103D2000F007002000234FF02002EFF3118182F30F
:103D30001288BFF36F8F09E0064B9A68D37B013B73
:103D4000D37381F31188BFF36F8F0123002BF3D05E
:103D5000704700BFF007002038B50446104801F056
:103D6000E4FD054670B184B90E4B9B685A7B12F096
:103D70001F0F0AD1AA6942B9DA897F2A05D9094AEF
:103D8000D3610BE0074BDD68EDE7064B9B68AB4268
:103D900002D02846FFF75CFF024BDD6138BD00BF53
:103DA00010080020F007002038B50546427B90F946
:103DB0000D30002B28DB6B7B63F07F036B731A4B9A
:103DC00053F8204F9C422DD06CB12146284601F07B
:103DD00085FD002820DC34B1134B5B6A9C4202D085
:103DE0002468002CF0D1104B5A6A03F1200129609D
:103DF0006A6015605D620C4B9868A84214BF002091
:103E00000120FFF7A9FF38BD02F07F02427301468F
:103E1000064801F082FDCEE763686B602C601D6090
:103E20006560E8E70024CFE7F007002010080020D5
:103E300038B50446074B9D686B7B13F01F0F04D009
:103E40002846FFF705FF204638BD2846FFF7ACFFA0
:103E5000F6E700BFF007002038B54FF02003EFF37E
:103E6000118483F31288BFF36F8F224B9B68224A21
:103E70001268934218D021461F4A002515601F4A38
:103E8000126872B3DA897F2A16D85A7B12F01F0F94
:103E90001CD193F90E501A4A1268954218DB194A40
:103EA000934217D0012308E01846FFF7D1FE84F3B0
:103EB0001188BFF36F8F1BE0002393B10D4B1B697B
:103EC000834209DD181A0B4B18610DE00023F4E75B
:103ED0000023F2E70023F0E72046FFF7A9FF0146A1
:103EE00002E0044B00221A6181F31188BFF36F8F47
:103EF00038BD00BFF00700201C0800202408002067
:103F000020080020E800002038B5437B90F90D2000
:103F1000002A2DDB044613F01F0F05D182690AB178
:103F2000002202E0012200E000220AB363F07F03D6
:103F30006373144B53F8205F9D4220D06DB1294626
:103F4000204601F0CBFC002813DC35B10D4B5B6A39
:103F50009D4202D02D68002DF0D10A4B5A6A03F120
:103F600020012160626014605C620020FFF7F4FEB3
:103F700038BD6B68636025601C606C60F5E70025E8
:103F8000DCE700BFF007002010B54FF02003EFF38F
:103F9000118483F31288BFF36F8F437B13F0040FF8
:103FA00004D184F31188BFF36F8F10BD23F0040395
:103FB0004373FFF7A9FF21460148FFF797FEF4E797
:103FC0002008002010B50446427B90F90D30002BEC
:103FD00008DB084B9868A04214BF00200120FFF7BF
:103FE000BBFE10BD02F07F0242730146024801F0A1
:103FF00094FCEEE7F00700201008002010B50C46F6
:104000001146064B9868064B1860DDE9022301F063
:1040100011FD2046FDF7AEF910BD00BFF0070020EE
:104020001C08002038B50446183001F06BFD002351
:104030004FF02002EFF3118582F31288BFF36F8FE8
:1040400010E0637B43F010036373154B9868A04244
:1040500014BF00200120FFF77FFE85F31188BFF316
:104060006F8F012363B9627B94F90D30002BE8DA7E
:1040700002F07F02627321460A4801F04EFCE0E73D
:10408000074B9B68A34200D038BD4FF02003EFF3ED
:10409000118083F31288BFF36F8F01F029FCF3E7DF
:1040A000F00700201008002010B500234FF0200278
:1040B000EFF3118482F31288BFF36F8F0CE00D4B86
:1040C0009A68D37B0133D3730020FFF745FE84F356
:1040D0001188BFF36F8F0123002BF0D04FF0200326
:1040E000EFF3118083F31288BFF36F8F01F000FCB0
:1040F00010BD00BFF0070020F8B5437B13F0080F98
:1041000045D1054643F00803437303F0DF034373CF
:1041100013F0800F2DD1AB685BB1284601F0DCFBBA
:10412000294601F0FAFB6B7B23F002036B7300233B
:10413000AB6005F1180001F0E5FC05F158073C689B
:10414000BC421ED0ECB1204601F0C6FB214601F076
:10415000E4FB637B23F0020363730026A66004F193
:10416000180001F0CFFCC4F8AC602046FFF7CCFE8D
:10417000E5E703F07F0343730146054801F0CDFBFB
:10418000C9E70120FFF7E8FD2846FFF70BFCF8BD63
:104190001008002008B5044801F099FC00210846E9
:1041A000FFF76AFD08BD00BF0C080020F8B54FF00E
:1041B0002003EFF3118683F31288BFF36F8F1C4C3B
:1041C000A1684B7B03F07F034B7304F12007384653
:1041D00001F0A3FBA5686B7B63F07F036B73246A1C
:1041E000BC4223D06CB12146284601F077FB002861
:1041F00016DC34B10E4B5B6A9C4202D02468002C62
:10420000F0D10B4B5A6A03F1200129606A601560F6
:104210005D620120FFF7A0FD3046FDF7ABF8F8BD69
:1042200063686B602C601D606560F2E70024D9E76D
:10423000F00700202DE9F04150EA010338D0044690
:104240000E466FF001031B1A4FF0FF3262EB0102C2
:10425000012B72F100032FDB6FF001052D1A4FF0D7
:104260002003EFF3118883F31288BFF36F8F144F8D
:10427000B868144B1860FFF7A5FEB86822463346AD
:104280001149183000F0DEF8BA68537B43F0100390
:1042900053734046FDF76EF801F094FC281A63EB67
:1042A0000303012873F1000300DA0020BDE8F08168
:1042B000FFF77CFF0020F9E701F084FC0519CEE749
:1042C000F00700201C0800207159000008B5B1F16A
:1042D000FF3F08BFB0F1FF3F1AD0FFF7ABFF8446A6
:1042E000C217510141EAD06143011B1A61EB02017F
:1042F000880040EA93709B0013EB0C0342EB000034
:10430000C00040EA5370C3F3103343EA404008BD95
:10431000034B9868FFF786FE4FF0FF30F7E700BFCA
:10432000F0070020014B9868704700BFF00700209D
:1043300038B54FF02003EFF3118583F31288BFF3F4
:104340006F8F437B13F0080F04D085F31188BFF300
:104350006F8F38BD0446FFF7CFFE084B9B68A34222
:1043600004D085F31188BFF36F8FF2E7EFF3058375
:10437000002BF6D12846FCF7FDFFF2E7F0070020FE
:1043800008B50648064A121A064901F072FA064AAA
:104390000649074801F06DFA08BD00BF0000002083
:1043A000C8000020486100000000000048610000D3
:1043B00000000020034B1868984200D0704700208E
:1043C000FCE700BFAC00002030B1044A52689042C4
:1043D00001D0006870470020704700BFAC0000208B
:1043E00008B5044B1B680BB1002008BDFEF774F93B
:1043F000FBE700BF2808002010B5FFF7DBFF0446ED
:10440000FFF7EEFF7CB1236962691B1A62EBE07073
:10441000B3F1004F70F1000208DA002801DB184602
:1044200006E00023FBE76FF0004001E06FF0004082
:10443000034B1B6913B1834200DA184610BD00BF5D
:10444000F0070020B3F1FF3F08BFB2F1FF3F7DD07E
:104450002DE9F047044692461D46816000234FF047
:104460002002EFF3118782F31288BFF36F8F21E0F0
:104470001AF1010845F10009FFF7B2FF18EB00033C
:1044800049EBE0702361606136E0511A66EB03038B
:10449000016143614368636020601C6044600028E0
:1044A0003ED0FFF787FF844241D087F31188BFF3E6
:1044B0006F8F0123002B47D153466FF00101B1EB01
:1044C0000A014FF0FF3060EB0502002AD0DB204AE2
:1044D000116852685B1842EB05026FF00101CB1ABC
:1044E00060EB020218461146012B72F1000301DA5B
:1044F0000120002120616161FFF75CFF0028CED020
:104500000269466921696369914273EB060CBCDB61
:10451000891A63EB060321616361FFF755FFEDE73D
:104520000C4B5A682360626014605C60B9E7FFF767
:1045300063FF034618B1084A12698242B5D00021D0
:104540001846FEF797F8B0E7BDE8F087704700BF60
:1045500048020020AC000020F007002070B504469F
:10456000FFF77AFC4FF02003EFF3118583F31288F5
:10457000BFF36F8F284B1C6020E028480168466815
:10458000891846EBE276016046609B1A224A136066
:1045900000220023C4E90423204601F09CFA85F39D
:1045A0001188BFF36F8FA368204698474FF0200310
:1045B000EFF3118583F31288BFF36F8FFFF7FAFED5
:1045C000044640B102694169134B1B68D8179342F6
:1045D00070EB0101D1DA44B10F4B196823696269AC
:1045E0005B1A62EBE172236162610C4A0A4E306829
:1045F000136851681B1841EBE0711360516000248F
:104600003460FFF7F9FE2146FEF734F885F3118890
:10461000BFF36F8F70BD00BF280800204802002044
:1046200010B500234FF02002EFF3118482F31288BB
:10463000BFF36F8F184619460CE0FEF74DF8074A96
:1046400013685168C01841F1000184F31188BFF369
:104650006F8F0123002BF0D010BD00BF4802002057
:1046600008B5034A0349044800F05AF808BD00BFE2
:10467000105F0000106100002061000010B50246CC
:10468000006892F804C0D3880B438468016913F46E
:10469000801F07D013F4402F04D013F0010F01D076
:1046A00083F4402323F4801213F0010F0AD0012376
:1046B00003FA0CFE0B6843EA0E030B6023686146A5
:1046C000984710BD012303FA0CFE0B6823EA0E0382
:1046D0000B60F3E7024658B1436803F00303012B74
:1046E00003D0032B07D1036843B1002090607047CB
:1046F0006FF0150070476FF0150070476FF01500F0
:1047000070470346426802F003028160032A03D126
:10471000006800225A6070470020FAE700207047C6
:104720000FB400B583B004A951F8040B0191FBF755
:1047300001FF03B05DF804EB04B0704701F007031C
:10474000018B21F007011943018370472DE9F041E6
:1047500006460F469046816819B10C4631B10C6887
:1047600004E00C4602E0234621461C4659B14D6840
:1047700043463A463046A847002CF4D02346002C46
:10478000F2D02368F0E7BDE8F081038B13F0070354
:1047900003D102680AB103207047022B03D0012B1A
:1047A00006D000207047428B002AF8D104207047C1
:1047B00003680BB1052070470020704710B5044610
:1047C0008C46038B002A07DB03F007035A1F012ADC
:1047D0000ED9042B33D010BDD0E900018CE80300C2
:1047E00000232360636001212046FFF7A7FFF2E763
:1047F000D0E900018CE80300002222606260062BF1
:1048000018D1DCF800303BB1628B01326283002B9F
:10481000F9D01B68002BF6D102212046FFF78EFF4E
:104820002046FFF7B2FF0028D5D0238B43F02003AA
:104830002383D0E700212046FFF780FFF0E7002127
:10484000FFF77CFF2046FFF7A0FF0028C3D0238B93
:1048500043F020032383BEE758B110B50C4659B18D
:10486000081DFFF737FF18B9A36833F0030306D11B
:1048700010BD6FF0150070476FF01500F8E76FF08E
:104880001500F5E72DE9F04107460C4616461D4692
:104890001946201DFFF735FF28B180462B463246CA
:1048A00021463846C047BDE8F0812DE9F0418046F9
:1048B0000C4617461E4604E033463A464046FFF78C
:1048C000E1FF216831B10D68256063688B42F3D147
:1048D0006560F1E7BDE8F08108B54FF0200CEFF31B
:1048E00011828CF31288BFF36F8F41610121FBF7B6
:1048F00031FE08BD034670B181B10A688AB14A68C9
:1049000092B10020186058609860D86018615861B2
:104910009861196170476FF0150070476FF01500CE
:1049200070476FF0150070476FF015007047F8B5CD
:1049300004460F46FFF790FF061E37DB4FF02003BB
:10494000EFF3118283F31288BFF36F8F258B05F08D
:104950000705638B4FF6FF718B422FD02E46022D39
:104960000CD08DB1042D0FD0062D0DD0052D1FD0EC
:104970006FF0040600210B4608460AE0013363830A
:1049800001210023184604E0B5FA85F35B090021F4
:10499000012028B1002038606068A8B10760676016
:1049A000ABB982F31188BFF36F8FA9B93046F8BD58
:1049B0006FF0850600210B460846EAE76FF00A060D
:1049C00000210B460846E4E767602760E8E702211C
:1049D0002046FBF7BFFDE9E700232A46394620467B
:1049E000FFF750FFE2E708B50446084611461A46AD
:1049F000A047FFF797FCFCF74BFF844602680020B6
:104A000005E000EB8000013203EB40003038137802
:104A1000A3F130010929F4D9CCF8002070472DE921
:104A2000F04F83B004460D4601929A460C9ED3780F
:104A3000A3F1410B6F2B0FD006D9702B0FD0782B21
:104A400010D14FF0100926E0582B02D04FF00A0980
:104A500021E04FF010091EE04FF008091BE04FF075
:104A6000100918E04FF00A0915E0BBF1190F21D821
:104A7000D2B23732D2B206F8012D3A46434620462A
:104A80002946FBF73DFBBC4275F1000316D35645A2
:104A900014D904460D464FF000084F464A46434697
:104AA00020462946FBF72CFB092ADED8D2B2303249
:104AB000D2B2E0E7D2B25732D2B2DCE7019B1B7828
:104AC00013F0200F05D0B9F1080F06D0B9F1100F7F
:104AD00009D0304603B0BDE8F08F019A937843F0D7
:104AE00008039370F5E7019A937843F010039370ED
:104AF000EFE72DE9F04107460E461446984600259B
:104B000006E0314614F8010BB847002809DB0135EF
:104B10004445F6D3B8F1000F02D12378002BF0D131
:104B20002846BDE8F081704708B500F084FE08BD56
:104B300008B501460068FFF7F7FF08BD08B500217A
:104B40000120FFF7F1FF08BD08B5FCF7F3FBFCF708
:104B5000E9FC08BD0020704700230B70704708B5C2
:104B600000231370CB1E092B1AD8DFE803F00509C8
:104B70000D111919191919141146FCF76DFD10E0E2
:104B80000021FCF719FD0CE00021FCF7D9FC08E03E
:104B9000FCF700FD05E01146FFF7DEFF002000E016
:104BA000002008BD43685A1E134206D11F2B06D9A8
:104BB00003681A4205D0002070470020704700208B
:104BC000704701207047072805D810B50446FCF748
:104BD00099FE204610BD6FF01500704700B585B0F6
:104BE0000B6801934B688A68202B12D9B3F1004FF0
:104BF00011D8013BB3FA83F3C3F11F035B0003F049
:104C00003E031343039301A9FFF7DDFF05B05DF8F1
:104C100004FB0823F5E73E23F3E72DE9F84380463C
:104C20000F4699461646002509E02146F0B2FFF7E7
:104C3000D5FF064610F1160F14D001360135BD42DE
:104C400010DA05EB450408EB84046268002AF5D00D
:104C5000B9F1000FE9D02046FFF7A4FF0028E4D106
:104C60006FF015063046BDE8F88308B5FCF75EFE28
:104C700008BD08B5FCF764FE08BD024602E002F874
:104C8000013B01310B78002BF9D1137070470346BB
:104C9000A2B110B40C782CB103F8014B0131013AE8
:104CA000002AF7D122B1002103F8011B013AF9E7EC
:104CB00010BC7047002103F8011B013A002AF9D10A
:104CC00070470346002001E0013301301A78002AC2
:104CD000FAD170470346002001E0013301301A7811
:104CE0000AB18842F9D3704780EA010313F0030F39
:104CF00001D0034623E0034613F0030F0FD00AB39D
:104D000011F801CB03F801CB013AF5E711F801CB1B
:104D100003F801CB013A002AF8D110BC7047032AEE
:104D20000DD910B451F8044B43F8044B043A032A4C
:104D3000F8D8F0E711F801CB03F801CB013A002ACB
:104D4000F8D1704770475FFA81FC034602E003F830
:104D500001CB013A13F0030F02D0002AF7D10FE084
:104D6000C9B241EA012141EA0141032A06D943F8C7
:104D7000041B043AF9E703F801CB013A002AFAD1FF
:104D800070474FF0FF307047062800D070474FF053
:104D900080430122C3F80025BFF34F8F20BFFDE7FA
:104DA000002383F31188BFF36F8F7047006901EB15
:104DB00041018900383108447047406800EBC10068
:104DC00070470069C1EBC10100EB8100704708B575
:104DD000C9B2FFF7EBFF806800F0070008BD4FF095
:104DE0002003EFF3118283F31288BFF36F8F036800
:104DF00013F0C00301D08B4207D1012303600020D0
:104E000082F31188BFF36F8F70474FF0FF30F7E7E1
:104E10004FF02003EFF3118283F31288BFF36F8FFB
:104E2000036803F0C00C03F00703012B08D08C4586
:104E300009D04FF0FF3082F31188BFF36F8F7047B6
:104E400001600020F7E76FF07700F4E74FF02003F0
:104E5000EFF3118283F31288BFF36F8F036803F0BF
:104E6000C00343F00203036082F31188BFF36F8F26
:104E70007047F8B506460C46FFF798FF0568476887
:104E8000002340F8083BFFF7E1FF1DB13A462146F9
:104E90003046A847F8BD70B506461546CCB2214647
:104EA000FFF784FF29460830FFF799FF002806DB4B
:104EB00021463046FFF781FF43689847002070BDC8
:104EC00008B58022FFF7E7FF08BD2DE9F04106464F
:104ED00090461F46CDB22946FFF768FF0446069963
:104EE0000830FFF795FF002809DBC4F800806760F1
:104EF00029463046FFF761FF036898470020BDE868
:104F0000F08110B582B080240094FFF7DEFF02B07C
:104F100010BD10B51446C9B2FFF753FF0021A047DA
:104F200010BD08B5012000F0FFFB08BD08B500204A
:104F300000F0FAFB08BD08B5012000F045FC08BDF3
:104F400008B5002000F040FC08BD08B51046FEF78B
:104F500023FE08BD20F4FC7020F001004005400D48
:104F600040F20623984233D016D806282CD006D912
:104F7000B0F5007F0DD101230B700020704700B306
:104F8000022803D104230B70002070476FF0150036
:104F900070476FF01500704740F2024398421BD0F3
:104FA000B0F5C06F03D103230B7000207047B0F53C
:104FB000806F03D102230B70002070476FF0150043
:104FC000704700200870704706230B700020704760
:104FD00007230B700020704705230B7000207047DB
:104FE00010F0100F04D110F0200F03D100207047F3
:104FF000032070470120704743685B68D3F8103581
:105000000B600020704743685B68D3F8040542409A
:105010000A404240C3F804250020704743685B689B
:10502000C3F808150020704743685B68C3F80C1587
:105030000020704743685A68D2F804354B40C2F8E4
:10504000043500207047B0F5800F07D0B1F1C06F74
:105050000DD0B1F1007F08D001207047B1F1007F81
:1050600001D00520704704207047022070470320BC
:10507000704710B4046904F1040C6368FBB10020AC
:105080000DE00B686360DCF80400814212D1CCF8BB
:1050900004300FE0CCF804000CE018461B6863B144
:1050A0009942FAD10028ECD00B680360DCF8043098
:1050B0009942EFD000230B60012303B962B172B1B2
:1050C00063680B606160DCF804300BB1002007E01E
:1050D000CCF80410002003E06FF0150000E0002081
:1050E00010BC704770B500F01F044009FCF776FE55
:1050F000D8B1064603690125A540596819B10C4687
:1051000049B10C6807E00C4605E064B1234604B1E0
:10511000236821461C4641B18A682A40F5D04B6875
:1051200030469847F1E72346F3E770BD43681B68B4
:105130004FF02001EFF3118281F31288BFF36F8FDC
:10514000D3F8201131B10021C3F82011D3F8201178
:105150000121D96082F31188BFF36F8F704738B592
:1051600045682C68D4F8043313F4807F02D0D4F857
:105170002031D3B96B6813F0100F15D04FF0200217
:10518000EFF3118382F31288BFF36F8FD4F85821A5
:1051900012B10022C4F800254FF48002C4F808239D
:1051A00083F31188BFF36F8F38BDFFF7BFFFE1E7CF
:1051B00070B582B005460C4606694B79012B06D0C6
:1051C000032B11D06FF08502104602B070BD002392
:1051D0008DF80230A379032B46D1E37943B1012B3B
:1051E00015D06FF08502EFE710238DF80230F1E75C
:1051F00000238DF800300023ADF804302379012B13
:105200002AD0022B24D033B16FF08502DCE70123D2
:105210008DF80030EFE78DF8013021682846FCF763
:1052200013FF024618BB6B6819689DF801309DF8A2
:1052300002000343BDF8040003439DF8000003434C
:10524000C1F86C35043694E8030086E80300BBE738
:105250000E238DF80130E0E70E238DF801304FF476
:105260008073ADF80430D8E76FF08502ACE76FF0DB
:105270008502A9E70A460369043393E8030082E83C
:1052800003000020704743681B68D3F88004C3F80C
:105290008004704743681A685B6803F00203D2F821
:1052A000581129B933B9D2F820312BB900207047F1
:1052B00001207047002070470120704743681B6839
:1052C0000822C3F80025704710B543681C68C4F86D
:1052D0004415C4F848250022C4F82021D4F8201130
:1052E000C4F85821D4F858215B6813F0100F02D18C
:1052F0000123A36010BD0121FFF7E0FF4FF48003FD
:10530000C4F80433F4E710B4046943681B68D3F8A5
:10531000102152B1627C0A700020C3F81001D3F84A
:10532000102101221A6010BC70474FF0FF30FAE7DD
:1053300070B5064614E07DB14FF02003EFF3118401
:1053400083F31288BFF36F8F3046FFF7A3FFA0B936
:1053500084F31188BFF36F8F21200021FEF7B6FF81
:1053600064243046FFF796FF05460028E3D101206C
:1053700000F04CF9013CF4D1DDE7204670BD2DE989
:10538000F04383B0054647683E68D0F8108000219E
:10539000C6F80015C8F80000D7F80C9001AA4846D6
:1053A00000F0E6F8041E07DB019BD9F8002019790C
:1053B0001868FDF7BDF90446002C35DB08F104013F
:1053C0002846FFF7F5FE044670BB7B6813F0020F1A
:1053D0002ED10823C6F800353B7A5BB9C6F81031E8
:1053E000D6F8103108F11103C6F834350123C6F898
:1053F000383533607B6813F0020F03D14FF48073AC
:10540000C6F804337B6813F0100F03D04FF4800309
:10541000C6F8043308F11003C6F844350023C6F873
:1054200048350123B360F360204603B0BDE8F08344
:1054300041463046FCF7E8FE0028CADA0446F3E7A6
:1054400010B50446002201210220FBF75DFF022077
:10545000FBF73EFF00212046FFF791FF10BD10B57E
:105460000446002201212820FBF74EFF2820FBF7ED
:105470002FFF00212046FFF782FF10BD7047401A22
:1054800020F07F40704700F150039B009BB203F176
:10549000804303F5883300221A601B68704720F0B0
:1054A0007F4070474FF02003EFF3118083F31288A1
:1054B000BFF36F8F704780F31188BFF36F8F704712
:1054C000F8B5064621F07F45FCF7CCFE074619E00B
:1054D000132000F07BFB22E03046FFF7D4FF30467C
:1054E000FCF7C8FE29463046FCF7B2FEFCF7D6FEB4
:1054F00084421ED0811C2846FFF7C1FFB0F5000F83
:1055000017D92F46FCF7CAFE044601463046FCF781
:105510009FFE21463846FFF7B2FF0128D8D0A71CCE
:1055200039462846FFF7ABFFB0F5000FD4D93D460A
:10553000D2E72846F8BDF0B583B0044617461D46AD
:10554000FCF7B2FE0646099B0193089B00933A467E
:105550002B462046FCF798FF054631462046FCF7CF
:1055600007FF284603B0F0BD08B5FCF76DFF08BD86
:1055700010B44368136001E0083414601468037ABF
:1055800003F10053013BD0F804C00CEBC3039C4271
:1055900004D863798B42EFD1002001E06FF0010065
:1055A00010BC704708B50020FCF73AFA4FF0805362
:1055B000D3F830310D2B01D0002070470120704707
:1055C0004FF08053D3F830310D2B01D000207047BD
:1055D000012070474FF08053D3F830310D2B01D0AC
:1055E00000207047012070474FF08053D3F83021DE
:1055F000D3F834310D2A01D0002070470BB10120BF
:1056000070470020704708B5804708BD08B500F016
:10561000DDFA08BD0020704770B582B0054618B1AC
:10562000012816D002B070BD4FF080430222C3F8AB
:1056300008230022C3F80421D3F804210122DA60F0
:1056400001238DF807309D420FD0002642F21074DE
:105650002AE04FF080430122C3F808230021C3F859
:105660000011D3F800115A60EAE70DF10706EDE7E3
:1056700036B14FF08043D3F8183403F0030333609E
:105680004FF08043D3F8183413F4803F23D1002324
:10569000002BC7D01EB19DF80730012BC2D10120CD
:1056A000FFF7B4FF013CBDD0002DE1D0012D01D0AA
:1056B0000023EDE736B14FF08043D3F80C3403F00C
:1056C000010333704FF08043D3F80C3413F4803F60
:1056D00003D10023DCE70123DAE70123D8E738B55B
:1056E00004460368012B02D033B9012300E00123F3
:1056F0001D461BB1284638BD0023F9E70020FFF7FF
:105700008BFFFFF787FF2060F4E708B50020FBF769
:10571000EDFD30B1FFF77EFF4FF08043C3F8180571
:1057200008BDFBF7D5FDF5E710B1012840D0704763
:1057300000B583B04FF08042D2F8183403F0030371
:105740000193D2F8183413F4803F1BD14FF08043FB
:10575000D3F8143413F0010F18D1FFF75BFF019059
:105760004FF08043019AC3F818250022C3F80421A2
:10577000D3F804210222C3F8042301229A6003B063
:105780005DF804FB01A8FFF7AAFFE9E74FF08043AB
:10579000D3F81C3403F00303019301A8FFF79FFF24
:1057A0000028DDD04FF080430222C3F80423E6E74F
:1057B0004FF080430022C3F80021D3F800210122DA
:1057C000C3F804231A60704708B5FFF725FF08BD2A
:1057D00010B50446FDF7BAFA28B12046FDF7A0FA45
:1057E00018B1012000E0002010BD0020FCE708B542
:1057F000FDF7ACFA80F00100C0B208BD70477047F9
:10580000032894BF00200120704708B5FDF76AFF08
:1058100008BD08B5FFF7F9FF002008BD48B1C3680F
:105820001888C0F30800B0F5807F14BF0020012065
:10583000704700207047F8B505460E464FF020032C
:10584000EFF3118783F31288BFF36F8FFEF76AFDC2
:10585000044631462846FFF7A5FE87F31188BFF3BB
:105860006F8F2046FCF714F8F8BD08B5FFF76BFA08
:1058700008BD08B5FFF738FA08BD10B4073222F0AA
:10588000070202F1200301F12004C0F89840C0F89B
:105890009C200022C0F8A020C81810BC7047EFF36D
:1058A0000580003818BF0120704708B5FEF76CFB73
:1058B00008BD10B400248460037342738173C47301
:1058C0008461C46110BC704708B5FBF761FBFFF74A
:1058D000D5FD08BD002070478068704790F90E30F4
:1058E00091F90E00834201D0C01A70470020704722
:1058F00008B5034620B9EFF3058242B9012200E062
:10590000002232B983F31188BFF36F8F08BD0022E4
:10591000F7E71846FBF72EFDF8E74A680B681360B7
:105920005A6000230B604B60704703460068834257
:1059300000D070470020FCE738B5044600234FF044
:105940002002EFF3118582F31288BFF36F8F04E01A
:1059500085F31188BFF36F8F012343B92046FFF70A
:10596000B9FF0028F4D12046FEF7CEFAF0E738BDA3
:1059700070B50446A0F1180500234FF02002EFF3A4
:10598000118682F31288BFF36F8F11E014F80B3C7D
:1059900003F0FB0304F80B3C23F0100304F80B3C6A
:1059A0002846FEF7B1FA86F31188BFF36F8F012303
:1059B000ABB914F80B3C13F0280FF4D154F8103C99
:1059C000002BE3D02846FFF787FF2946FFF7A5FF06
:1059D0006B7B23F002036B730023AB60D6E770BDD3
:1059E00070B505460E46FEF7EDFA6B7B43F00203F9
:1059F0006B73B6B1AE603468A64219D064B121466B
:105A00002846FFF76BFF00280CDC2CB173689C4222
:105A100002D02468002CF1D173682E606B601D6089
:105A2000756070BD63686B602C601D606560F8E731
:105A30000024E3E72DE9F84305460E4691469846D3
:105A400000244FF02003EFF3118783F31288BFF394
:105A50006F8F08E031462846FFF7C2FF87F31188B1
:105A6000BFF36F8F0124002CF4D04A4643462846EA
:105A7000FEF7DEF8BDE8F88370B5054600234FF069
:105A80002002EFF3118682F31288BFF36F8F1C465A
:105A900004E086F31188BFF36F8F0123ABB928466A
:105AA000FFF743FF04460028F3D0FFF715FF214618
:105AB000FFF733FF637B23F0020363730023A360CC
:105AC00004F1180000F01EF8E3E7204670BD031D46
:105AD00043608360704710B50446FEF775FC48B11B
