:1000000020070020BD150000593F00009115000099
:1000100091150000911500009115000000000000EE
:100020000000000000000000000000009912000025
:10003000911500000000000045120000911500001D
:100040004913000049130000491300004913000040
:100050004913000049130000491300004913000030
:100060004913000049130000491300004913000020
:100070004913000049130000491300004913000010
:100080004913000049130000491300004913000000
:1000900049130000491300004913000049130000F0
:1000A00049130000491300004913000049130000E0
:1000B00049130000491300004913000049130000D0
:1000C00049130000491300004913000049130000C0
:1000D00049130000491300004913000049130000B0
:1000E00049130000491300004913000049130000A0
:1000F0004913000049130000491300004913000090
:1001000053B94AB9002908BF00281CBF4FF0FF317E
:100110004FF0FF3000F00CB8ADF1080C6DE904CEE3
:1001200000F008F8DDF804E0DDE9022304B07047D0
:10013000704700BF2DE9F04F07468C460846099EE0
:1001400015463C461946002B40F0C6808242B2FA62
:1001500082F746D94FB1C7F1200E24FA0EFE00FAFD
:1001600007F3BD404EEA030CBC404FEA15481FFAA6
:1001700085FEBCFBF8F9220C08FB19C309FB0EFA3B
:1001800042EA03439A4528D9EB1809F1FF3004D21B
:100190009A4502D9A9F102002B44A3EB0A03A4B2A9
:1001A000B3FBF8F208FB123302FB0EFE44EA0344F1
:1001B000A64514D92C1902F1FF3303D2A64501D963
:1001C000931E2C44A4EB0E0443EA00401EB1FC40F5
:1001D000002334607360BDE8F08F4846DDE71346C6
:1001E000F0E702B9FFDE87BB831A01214FEA154E03
:1001F000AAB2B3FBFEFC200C0EFB1C330CFB02F876
:1002000040EA0343984563D9EB180CF1FF3004D260
:10021000984502D9ACF102002B44A3EB0803A4B229
:10022000B3FBFEFC0EFB1C330CFB02F244EA03445E
:10023000A2424FD92C190CF1FF3304D2A24202D9A9
:10024000ACF102032C44A41ABEE7C7F1200C20FA3B
:100250000CF800FA07F324FA0CFCBD404CEA030248
:100260004FEA154EABB2B8FBFEFC110C0EFB1C8026
:100270000CFB03F941EA0040814504FA07F423D955
:1002800028180CF1FF3104D2814502D9ACF10201EA
:100290002844A0EB090092B2B0FBFEFC0EFB1C0050
:1002A0000CFB03F842EA004398450FD9EB180CF118
:1002B000FF3204D2984502D9ACF102022B44A3EBE1
:1002C000080342EA014191E76146E2E76246F6E748
:1002D0006046A2E76346B6E7834205D90EB1C6E998
:1002E00000700021084676E7B3FA83F181B98342B2
:1002F00001D3BA420AD8BC1A60EB030301209C4622
:10030000002E68D0C6E9004C002164E70846F7E7F4
:10031000C1F1200C8B4022FA0CF41C4302FA01F5C7
:1003200000FA01F327FA0CF220FA0CFB4FEA144909
:100330001343BBFBF9F81FFA84FE09FB18BB1A0C28
:1003400008FB0EFA42EA0B42924507FA01F73ED942
:10035000A21808F1FF3004D2924502D9A8F1020098
:100360002244A2EB0A029BB2B2FBF9F809FB182265
:1003700008FB0EFE43EA024296452AD9A21808F16C
:10038000FF3304D2964502D9A8F10203224443EA7E
:100390000040A0FB0593A2EB0E029A42CE4698467F
:1003A00002D306D14F4504D2B9EB050E63EB040826
:1003B000013886B1B7EB0E0362EB080707FA0CFCB5
:1003C000CB404CEA0303CF40C6E900379CE74046E8
:1003D000C7E74346DBE73146FDE6000037B503F0EB
:1003E00068FF124C0146124803F08DFC2569A36892
:1003F00001A95B682046984720B92B6801985840AE
:10040000C0F3C02023691B689B0403D520B1A368F7
:100410001B6903E00028FAD0A368DB6803484FF4A7
:10042000005103B0BDE83040184700BFE44700006A
:10043000384B000070B5254C204604F07FF828B9F1
:1004400021682348BDE8704003F05DBC4FF4803163
:10045000204803F019FC014630B122681E480B23E6
:10046000BDE8704003F04FBCA5680B21AE694FF0AA
:10047000C0634FF0A0722046B047014618B1226811
:1004800016480B23ECE71649164B4B604FF40063FC
:100490008B60EB6913B1012220469847216812480E
:1004A0000B2203F030FC094804F048F860B10F4813
:1004B0004FF4D01103F0E8FB002805DB00214FF4D6
:1004C000004003F011FAF9E770BD00BFE4470000F7
:1004D0004E4B0000F8490000744B00009D4B00009B
:1004E000F0010020DD030000D34B0000004A0000B3
:1004F0000B6801330B60014B1B681847000000209C
:10050000014B1860704700BF0000002007B50B4684
:10051000002102460191034801A900F0E5F803B06B
:100520005DF804FBF10400002DE9F84FB0F81890D5
:1005300019F00808044693460DD001290CBF49F074
:10054000100949F02009A0F818908BF31188BFF327
:100550006F8FBDE8F88F09F00709022907D12046FF
:1005600003F0DEFB0028F0D00128238B4ED1676911
:10057000218B002F15DA256821F00701C4E90088D6
:1005800041F0010121830026218B01F0070ACA45B1
:1005900002D0A368002B5AD10DB9002E71D00023D0
:1005A00056E001F007035A1F012A1ED821F0070167
:1005B000062B256889B2C4E900880AD13DB1638B56
:1005C0002A46126801339BB2002AFAD1638341F0B4
:1005D00002012183204603F0A3FB06460028D3D066
:1005E000238B43F020032383CDE7042B0CD121F090
:1005F000070189B22183204603F092FB05460028BB
:10060000C1D041F0200121830025BCE7032809D196
:10061000226923F00703166843F0060323830025AD
:100620002F46B1E7042806D1226923F00703566854
:1006300043F00403F2E7052806D1226923F00703FB
:10064000966843F00503E9E700252E46E8E7012315
:1006500041F0080121838BF31188BFF36F8FFBB941
:1006600085BB16B11F492046B0474FF02003EFF37A
:10067000118B83F31288BFF36F8F238B23F0080352
:100680002383238BDA0625D523F01003238301214E
:10069000B4F8189009F0070900297FF45EAF54E719
:1006A000A1680029DCD0D1F80090D1F804B03B4615
:1006B00052462046D847B9F1000FD1D04946D9F863
:1006C0000090F2E729463B46524620462D6803F04B
:1006D00043FBC5E713F020011EBF23F02003238353
:1006E0000221D5E7853D00002DE9F04F91B08B4602
:1006F000029092461C4600259AF8000008B9284648
:100700005FE325280AF1010707D0029B5946984765
:100710000028C0F25683013512E2182200210AA8EF
:1007200003F03CFC9AF80130252B78D000221046CB
:10073000964694461646394617F8013B2B2B00F097
:100740009D8000F29480202B00F09B80232B00F0F2
:100750009B802EB19DF8306046F004068DF8306025
:10076000BCF1000F05D09DF8306046F008068DF80A
:100770003060BEF1000F05D09DF8306046F01006E5
:100780008DF8306028B19DF8300040F020008DF8E1
:1007900030002AB19DF8302042F040028DF8302020
:1007A0009DF8302002F04400442803D16FF38612F4
:1007B0008DF830209DF830202A2B42F080028DF8F1
:1007C00030207BD19DF8312042F001024B1C8DF886
:1007D00031201A782E2A9DF831200CBF01210021EA
:1007E00061F341028DF8312074D15A782A2A6AD0F7
:1007F000013300210A26184610F8012BA2F1300718
:10080000092F40F28E809DF830200E91C2F34000F7
:1008100040EAD17161F341028DF830205AE00AF1CB
:1008200002078DF833309DF83130D90740F1498106
:1008300054F8049BB9F1000F07DA9DF8302042F01C
:1008400004028DF83020C9F100095A0740F14281B5
:1008500054F8048BB8F1000F80F241819DF83130DB
:100860006FF341038DF831304FF0FF3837E12D2B16
:100870000CD0302B7FF46DAF01225CE74FF0010C00
:1008800059E74FF0010E56E7012054E7012652E7E1
:100890000CFB0202303A33461E4616F8010BA0F15B
:1008A0003007092FF4D9994293D09DF830100D925A
:1008B000D20F62F341018DF830108AE70B46002217
:1008C0004FF00A0CE8E79DF8312042F004028DF861
:1008D000312002331F4617F8012B6C2A41D025D84E
:1008E000682A2BD06A2A46D04C2A4CD01F4617F8CB
:1008F000012B9DF831308DF83320782A00F2D98011
:10090000572A4DD8412A03D0453A022A00F2D18015
:100910009DF83230042262F302038DF83230012355
:100920009EE006FB01213039034664E7742A26D095
:100930007A2ADBD19DF8313006220DE05A78682AF8
:100940009DF8312006D1012161F3C6028DF83120D6
:100950009F1CCCE71346022262F3C6038DF83130A8
:10096000C5E75A786C2A9DF8312001D10421EBE7C4
:1009700013460322F0E79DF831300522ECE79DF89D
:1009800031300722E8E7BDF8303023F4F04323F09C
:10099000020343F4804343F00203ADF83030A6E78E
:1009A000A2F15801202900F2848001A050F821F022
:1009B000750A0000B30A0000B30A0000B30A000081
:1009C000B30A0000B30A0000B30A0000B30A000033
:1009D000B30A000011090000B30A0000750A000004
:1009E000350A00001109000011090000110900007A
:1009F000B30A0000350A0000B30A0000B30A000081
:100A0000B30A0000B30A00007D0A0000750A000066
:100A1000990A0000B30A0000B30A0000990A000016
:100A2000B30A0000750A0000B30A0000B30A000010
:100A3000750A00009DF83210012003F0780360F37E
:100A40000201402B8DF8321002BF9DF8301041F0AA
:100A500001018DF83010632A31D1003B18BF01230A
:100A60009DF83020C2F340010B4363F341028DF83F
:100A70003020D8E69DF832100220DEE79DF83220C3
:100A800003F07803A3F14000032161F30202434223
:100A90008DF832204341E3E79DF83220032113F023
:100AA000780F61F302028DF8322014BF0123002376
:100AB000D6E79DF8303043F001038DF83030002345
:100AC000CEE79DF93020002AB4BFDDF834904FF016
:100AD000FF39BAE69B077FF5C7AEDDF838809DF891
:100AE00031100023CDE90D339DF8323003F00703B8
:100AF000012BC1F3C30138D1CB1E042B22D8DFE870
:100B000003F003090921210054F8043BDA17CDE969
:100B10000A3206E0073424F00704F4E80223CDE9A2
:100B20000A239DF8303013F0030656D002983B4656
:100B30005246594603F0EFF90028C0F242810544BD
:100B4000BA46D9E554F8043B01294FEAE372CDE9EE
:100B50000A3205D19DF828300A9300230B93E0E771
:100B60000229DED1BDF92830D0E7022B23D1CB1EDC
:100B7000042B13D8DFE803F0030A0A1212002268DC
:100B80000A920023201D0B930446CAE7E01D20F0C3
:100B90000700F0E80223CDE90A23F5E754F8043B07
:100BA0000A9301294FF000030B93D3D00229B8D147
:100BB000BDF82830D0E7042B09D1E31D23F007034B
:100BC00003F10804D3E90023CDE90A23A9E7032BA5
:100BD00004BF54F8043B0A93A3E79DF83300782838
:100BE000AED8622822D825283FF48FAD5828A7D147
:100BF0000DF126030093DDE90A0104AB0CAA03F012
:100C000044F98246B8F1000F0DF126000CDB9DF887
:100C10003020A0EB0A036FF3861298458DF8302040
:100C200002D9A8EB03030D9380463DE063381528F5
:100C300086D801A252F820F0B90C00001D0D00006A
:100C4000410B0000410B0000410B0000410B000074
:100C50001D0D0000410B0000410B0000410B000086
:100C6000410B0000770D0000450D0000490D00000C
:100C7000410B0000410B0000910C0000410B0000F3
:100C8000450D0000410B0000410B0000450D000028
:100C9000B8F1000FDDF828A00ADB4146504603F00A
:100CA00069F90AEB00080026BAF1000F0CD147E7FA
:100CB000504603F058F9F4E70A9B8DF810300026EF
:100CC0000DF1100A0DF11108A8EB0A0306B101336A
:100CD0009DF83220D00668D5023352060D9948BFE0
:100CE0000E9A0B4448BF9B18B9F1000F76DD9DF8B2
:100CF0003020A9EB0309C2F38003039353076DD49B
:100D0000500661D546B1029B5946304698470028A7
:100D100057DB039B01351E46302356E01E070FD4D8
:100D200013F0100618BF2026DDE90A23002BBFF6BA
:100D30005FAF524263EB4303CDE90A232D2657E709
:100D40002B26F1E7002653E70A9840B30DF126035E
:100D500000930CAA04AB002103F097F8BDF83230E1
:100D600003F0EF0343F4F04343F010038246ADF881
:100D70003230002646E70A9B07293FF6E1AEDFE85E
:100D800001F00C04060C08080C0C1D70D8E61D8040
:100D9000D6E6EA17C3E90052D2E61D60D0E6DFF8D6
:100DA000C8A006460AF105088EE7110748BF0133BF
:100DB00093E7184603935946029B98470028039BE4
:100DC00004DA11B0BDE8F08F20234D444A46002AD2
:100DD000A5EB090109F1FF39EBDC0D4636B1029BA9
:100DE0005946304698470028EBDB01359DF83230F4
:100DF000D90601D41A0706D5029B594630209847D8
:100E00000028DEDB01359DF83230DB0607D59DF882
:100E10003300029B594698470028D2DB01350D9ECE
:100E20002E44731B002B16DC02984346524659464B
:100E300003F071F80028C4DB0544A944A9EB0503BD
:100E4000002B7FF77DAE029B594620209847002853
:100E5000B7DB0135F2E7029B59463020984700285E
:100E6000AFDB0135DDE700BFEF4B00002DE9F843B4
:100E700005464FF02003EFF3118683F31288BFF38A
:100E80006F8F0E4B1C689CB10D4FDFF838804FF010
:100E90000C09D4E90132002D08BF13462BB198F894
:100EA000142009FB02F2B85C98472468002CF0D1AA
:100EB00086F31188BFF36F8FBDE8F883FC01002033
:100EC00004020020D80200204209012300F01F0084
:100ED00003FA00F0074BBFF35B8FC04303EB8203C1
:100EE00053E8002F024043E800210029F8D1BFF366
:100EF0005B8F70471002002038B51A4B1C7DBFF382
:100F00005B8F04F01F0301229A40174B6109D04305
:100F100003EB810353E8001F01EA000543E8005C8E
:100F2000BCF1000FF6D1BFF35B8F114213D00F4B12
:100F30000F4D8BB10C236343EA18E85C517803F042
:100F400045F80020FFF792FF0C235C432A19002389
:100F50002B51C2E9013338BD83F31188BFF36F8F82
:100F6000EFE700BFD802002014020020CD3F0000B0
:100F7000040200202DE9F843324B334A1C7DBFF3B5
:100F80005B8F63094FEA830952F823302F4EBFF37A
:100F90005B8F04F01F0843FA08F313F0010F0746B4
:100FA0000AD10146204600F069F828B107C80C2391
:100FB00003FB046383E807000C236343F218F55C2A
:100FC0002DB92046FFF780FF2846BDE8F8837B1C3B
:100FD0000FD0D2F808C01E481E4A4FF40045002129
:100FE0000023ECFB0501FFF78BF80121381A03F011
:100FF000A3FB02F041FA0120FFF738FFBFF35B8F3C
:10100000012303FA08F8144B994459E8003F43EAD6
:10101000080349E80032002AF7D1BFF35B8F0F4B7A
:1010200033B10C236343F218F05C517802F0C2FF35
:10103000FFF762FF2046FFF747FF02F0A5FB012004
:10104000C3E700BFD80200201002002004020020E5
:101050003F420F0040420F0014020020B53F000045
:10106000054BBFF35B8F53F82000BFF35B8F003855
:1010700018BF0120704700BF180200202DE9F04F73
:1010800085B00F4603A900F047F8DFF88080DFF84D
:1010900080A0441E24B24FF0000B631C04D1002634
:1010A000304605B0BDE8F08F039A04EB440302EB31
:1010B000830612F82300FFF7D3FF054610BB7068C4
:1010C0004FF40049C4462946E0FB09C152465B463D
:1010D0006046FFF715F80190B068C4462946E0FB6A
:1010E00009C15B4652466046FFF70AF8094B1B6888
:1010F000591C01D0834205D97A1CD1D0019B1844D8
:10110000B842CDD9013C24B2C7E700BF3F420F002F
:1011100040420F000400002008B9024B0B60002081
:10112000704700BF084A0000014910220A6070475A
:1011300010ED00E072B6404080F31188BFF36F8F6E
:10114000BFF34F8F30BF62B6BFF36F8F704700BFE2
:1011500072B6494081F3118820BF80F3118862B6CE
:10116000704700BF43B2002B08DB012200F01F00D4
:1011700002FA00F05B09024A42F82300704700BF00
:1011800000E100E0054B420900F01F0053F8222067
:10119000012303FA00F01040704700BF00E100E0B7
:1011A00043B2002BA8BF03F1604301F10101B8BFB6
:1011B000064B4FEA4111ACBF03F5614300F00F004D
:1011C000C9B2B4BF195483F80013704714ED00E09E
:1011D00030BFFFF7FDBF00BF0B4A08B50B4B22F035
:1011E0007F029A60BFF34F8FBFF36F8FD3F88820D1
:1011F00022F47002C3F8882001F046FF02F0E6FBFB
:1012000000F0D0F901F084FF0000000000ED00E0E4
:10121000094A0A49936809689967094958674B68F8
:1012200043F080534B60002383F31188BFF36F8F2B
:101230009368986F704700BFD8020020344B0000BD
:1012400000ED00E012498A684FF030001044EFF3DF
:10125000098C80E8F01F202080F31288BFF36F8F85
:101260000C4F4FF00066CA698A603E60506F0023E1
:10127000536780F3118804B5104600F02FFABDE8DB
:10128000044002F1300090E8F01F8CF309887047A9
:10129000D802002004ED00E01EF0040F0CBFEFF3B5
:1012A0000880EFF30980816911F8021C0229FFD040
:1012B00001B502F049FE01BD42F8203C009B42F816
:1012C0001C3C0A49019B42F8183C029B42F8143C22
:1012D00021F001014FF0807342F8043C42F8081CF1
:1012E0000023203A02654367704700BF773E000045
:1012F000094A0346906870B113F1160F406E05D08D
:10130000A0F120029A4205D8834203D2814228BF2D
:101310000020704700207047D802002008B5094B14
:1013200098600D46144600F0D9F9204685F30988E7
:10133000002163B681F31188BFF36F8F0022002371
:1013400002F099FDD802002001B572B60B4A9069EF
:1013500000281EBF0021916103F01FF962B6EFF370
:101360000580A0F110004FEAC0000549014409C9F9
:101370009847BDE80140034908470000D802002013
:101380004448000089130000044B9968D8698842DA
:1013900003D003494FF080520A607047D802002002
:1013A00004ED00E038B51C4B14469A6A9A6A9A6AB2
:1013B0000546900720D5586B9A6A12061CD519B1BC
:1013C0009A6A22F080029A629A6A9A6A9A6AD206A5
:1013D00015D49B6A9B0712D400200F4B9A6A920681
:1013E00042BF5A6A22F400525A629A6A42F0FF02DD
:1013F0009A620023237038BD6FF01500E4E7064BB6
:101400005B681905E8D52946FFF772FF0028E3D08D
:1014100080F309880220E0E700ED00E00D4B9A6AB6
:101420009A6A9A6A920508D59A6B9A6A120404D548
:1014300018B19A6A22F400429A62064B9A6A9A6A32
:10144000D20558BF9A6A9A6A002042F47F429A6293
:101450000870704700ED00E070B5484B5B688AB0DB
:101460000D46C3F30803002686F31188BFF36F8F80
:1014700002F07F41B1F17F4F11D102F00C01082938
:101480000DD0110701D4054601260022033B8DF83B
:101490000720032B6BD8DFE803F00455595D354670
:1014A000F3E7364BDC6A14F0020460D1DA6A002AF2
:1014B00015DBDA6A520012D5AA6932F8021C4DF621
:1014C000027291420AD093F828200AB30DF1070264
:1014D00001212846FFF766FF044600E02C689DF8CE
:1014E00007309BB92022294602A802F04CFD099B37
:1014F000002E3ED0C3F3080222B96FEA53236FEAED
:101500004323099302A9204602F01CFD0AB070BDD6
:1015100093F829202AB10DF107010120FFF77EFF82
:10152000DAE75A8D92B2002AD9D09A6A9A6A9A6AF0
:101530009A6A9A6A9A6A9A6A6FEA02426FEA124251
:101540009A62CCE70DF107020021C2E70DF1070115
:101550000020E3E7094B9A6A9A6A9A6A9A6A9A6A39
:101560009A6A9A6A6FEA02426FEA12429A62002409
:10157000B5E723F4FF7323F00103C2E700ED00E0B9
:10158000024A536943F010035361704700ED00E0D5
:10159000EFF30880EFF3098101B57246FFF75CFFB6
:1015A00001BD00BF044800232021C2180133302BA5
:1015B00082F80013F9D1704700E100E0002080F3C9
:1015C0001488BFF36F8F03F0DBF800200D4908602B
:1015D000BFF34F8F0C4880F3088800F02BF82020D1
:1015E00080F3118809484FF40261401880F309889C
:1015F000EFF314800221084380F31488BFF36F8F48
:10160000FFF7EAFD94ED00E020070020A00800208D
:101610000749D1F890200023C2F3072218469342CD
:1016200000D17047C1F89830C1F8A0000133F6E747
:1016300000ED00E008B572B6002383F31388FFF7CE
:10164000E7FF144B4FF0FF32C3F88020C3F884202B
:10165000C3F88820C3F88C20C3F89020C3F89420E6
:10166000C3F89820C3F89C20C3F88021C3F88421D4
:10167000C3F88821C3F88C21C3F89021C3F89421C2
:10168000C3F89821C3F89C2162B6BFF34F8FBFF314
:101690006F8F08BD00E100E0084B9B6883420BD1CF
:1016A000EFF3058343B1064B5A6842F080525A600B
:1016B0005A6A22F400425A6202F036B9D802002077
:1016C00000ED00E0024B034A0348012100F06EB830
:1016D0000000022000000020084A0000426E054B76
:1016E000203A1A60044A2021C3E901121846012158
:1016F00000F066B83402002000000B15F0B51F4F53
:1017000000268E4201DB1046F0BD44689CB353B105
:1017100004F1FF3C14EA0C0F18D11F2C16D90568F0
:101720001CEA050F12D1202C0568D0F808C0D2B2EF
:101730000FD9B4F1004F0ED8013CB4FA84F4C4F1CF
:101740001F046400072A4CEA040406D96FF015024E
:10175000D9E70824F6E73E24F4E725F01F051543F2
:1017600045F0100544F00104C7F89820C7F89C50D4
:101770000132C7F8A04001360C30C2E700ED00E0AE
:10178000044B0522C3F89420BFF34F8FBFF36F8F34
:10179000704700BF00ED00E0BFF35F8F024B0022F7
:1017A000C3F89420704700BF00ED00E010B5034C73
:1017B00001232278FFF7A2FF207010BD1003002044
:1017C00008B5094A00231278FFF798FF10F1160FA9
:1017D00002D0064A072800DD08BDC2F89800C2F80A
:1017E000A0300130F6E700BF1003002000ED00E05C
:1017F00014490868082810B521D8FFF7CDFF124C0E
:1018000049680022904201F10C0105D10F4B18707C
:10181000FFF7B6FF002010BDC4F8982051F80C3C2B
:1018200023F01F03134343F01003C4F89C3051F816
:10183000043C43F00103C4F8A0300132E2E74FF06A
:10184000FF30E8E7144A000000ED00E0100300203C
:10185000014B1860704700BF080000204FF02002C5
:10186000EFF3118382F31288BFF36F8F044A0121D3
:10187000C2F8401583F31188BFF36F8F00207047C3
:1018800000E001404FF08043C0B2C3F81C05BFF335
:101890004F8F0549054BCA6802F4E0621343CB60E1
:1018A000BFF34F8F00BFFDE700ED00E00400FA0535
:1018B00020B1034B800143F001031847704700BF7C
:1018C000F0490000084B70B5C31A0D4607499B103C
:1018D000044659430648402202F09AFB2B46014633
:1018E0002046BDE87040184750020020B76DDBB6B7
:1018F000CC47000073B50C4C0C4A4023041B0093EA
:101900000D460B460A49A41061430646094802F0F9
:10191000ABFB011E05DA30462B4602B0BDE8704035
:10192000184702B070BD00BF50020020D94000002F
:10193000B76DDBB6CC470000002270B5012104462C
:101940001046FFF72DFC0F4800F0BCFF0E4B9842ED
:1019500015D102F050FD26690C49304602F02FFAED
:1019600000280BDB246909490125356404F11C00BA
:1019700002F025FA002801DBE564002070BD6FF05D
:101980000400FBE7C51900000000AD0B5C4A000035
:1019900001460C2309484B4370B5C418D4E90E56D0
:1019A00000224033A263184402F01FFB2DB13246DF
:1019B0002B460348BDE87040184770BD5002002018
:1019C000CC47000010B1012804D07047034B1B6CBA
:1019D0005B0701D1FFF7DCBF704700BF500200205A
:1019E00008B54FF02003EFF3118183F31288BFF3A2
:1019F0006F8F124A136843F0020013F00103106066
:101A00000CD04FF08042D2F80C34D2F80C2413F0F2
:101A1000010303D00A4802F0E8FA012381F3118898
:101A2000BFF36F8F23B1BDE808400020FFF7B0BFC0
:101A3000BDE80840012002F0EBBC00BFA00200207E
:101A4000900200201FB500220123CDE90223094A9C
:101A5000CDF800D06B46CDF804D002F036FB00285C
:101A600005DB4FF480420023684601F085FC05B099
:101A70005DF804FBF7400000094BBFF35B8F53E8B0
:101A8000002F22F0020143E800100028F7D1BFF335
:101A90005B8FD30702D4012002F0F7BC704700BF70
:101AA000A00200202DE9F0413949BFF35B8F0746C2
:101AB000012251E8003F41E800200028F9D1BFF39E
:101AC0005B8F33B9334934484B60CB608A6002F096
:101AD00089F97B1E012B2FD8012F07D14FF08043AE
:101AE000D3F81C3403F00303012B25D002F04FFD83
:101AF000044618B9294B1B78002B41D14FF0200325
:101B0000EFF3118683F31288BFF36F8F0124DFF8A0
:101B100090804FF08045D5F81834D5F81824D203BA
:101B20000CD503F00303012B01D0012F06D10CB318
:101B300086F31188BFF36F8FBDE8F081ACB13046FA
:101B4000FFF706FBD5F81835002BE4D1D5F80421B2
:101B5000002AE0D0C5F80431D5F804310123C5F8D6
:101B60001835C8F88031AB60D5E70021212001F09D
:101B7000BBFEE7E74FF080430222C3F80423DBE714
:101B80004FF080430222C3F808230646BFE700BF98
:101B9000A4020020400200206C020020110300205B
:101BA00000E100E008B5084B0848186002F0C6FCE8
:101BB00038B10748FFF74CFE0548FEF7A1FC0020AE
:101BC00008BD6FF01200FBE7A80200202C480000BF
:101BD000D51B00000A2838B5074D044604D12868F3
:101BE00083680D215B68984728688368E1B25B6869
:101BF0009847204638BD00BFA802002030B5406895
:101C0000047B01F01F05B2F5001F45EA441585B0BD
:101C10004FF0000404D1284601F0D4F8002032E04F
:101C2000B2F5800FCDE902442FD1B3F1007F0CBF94
:101C3000042305238DF80830836823FA01F1C907CE
:101C40002FD4B2F1A07F2CD16A09012A05F01F031D
:101C50001C4A03F5E07318BF4FF0A04252F823303E
:101C6000DB071ED40DF107042146284601F00EF8CB
:101C7000154B984214D1204601F056F8134B984268
:101C80000ED06FF00B0005B030BDB3F1C06F05D0C2
:101C9000B3F1007F0CBF02230123CBE70323C9E785
:101CA00003940023194602AA284600F0C9FE074BF8
:101CB000984204D10121284601F03CF8AEE76FF0CC
:101CC0000400E0E7000300500400AD0B0000AD0B82
:101CD00010B501F019F8044668B900F0EDFF084BA3
:101CE00098420AD10748214600F0CAFF2246052142
:101CF0000620FFF755FA002010BD6FF00400FBE747
:101D00000000AD0B091D0000420970B5034602D06A
:101D1000012A15D070BD0B4E326951680029F9D0E7
:101D200003F01F0301250C689D408A682A4002D0F9
:101D30004B6830469847002CECD021462468F4E7E5
:101D4000014EE9E7E4470000FC4700002DE9F043BD
:101D500047683B7B01F01F0585B00E4645EA4315F9
:101D60001446CAB902A9284600F090FF0446284646
:101D700001F050F84A4B984204D06FF0040005B0CF
:101D8000BDE8F083844205D19DF8080000F0C6FF4D
:101D9000A042F2D10020F2E74FF000090DF103015B
:101DA0003046CDE9029900F071FF4B46804602AA09
:101DB0004946284600F044FE394B984202D06FF065
:101DC0001500DCE7804503D19DF8030000F0A6FF75
:101DD000A30351D540F20663234040F2062293420A
:101DE0003BD00CD8062B15D004D89BB1022BE6D1E2
:101DF00004230FE0B3F5007FE1D101230AE040F2B4
:101E0000024293422BD0B3F5C06F2AD0B3F5806F56
:101E1000D5D102238DF8043084F48033C3F300431A
:101E2000E0068DF8053054BFC4F3401303232103AB
:101E30008DF8063017D57B68012101FA06F6C3F844
:101E40000865002201A9284600F0A8FE144B98421C
:101E500014BF6FF01500002091E70723DAE7052390
:101E6000D8E70323D6E7620341BF7B68012101FA6B
:101E700006F6C3F80C65E4E7E3064FF0000354BF31
:101E8000C4F3401403241A4601A928468DF80440DF
:101E900000F0D6FD024B98423FF47CAF8FE700BFC5
:101EA0000000AD0BF0B54B79012B28D0032B23D1CB
:101EB00010278B79032B1FD1CD790DB1012D1BD1AB
:101EC0000A79012A1DD0022A1FD0AAB914460B682C
:101ED0004668B3F5164F36686ED033D8B3F5165F43
:101EE0006DD01CD8B3F5966F6BD010D8B3F5967F34
:101EF0006AD0B3F5167F6AD06FF085005BE00027EB
:101F0000D7E74FF480740E22E1E70024FBE7B3F536
:101F1000166F5FD0B3F5965FEED1394B3EE0B3F567
:101F2000E14F5AD007D8B3F5615F58D0B3F5964F5B
:101F3000E2D1344B32E047F6122C6345DCD14FF44A
:101F400000032BE0B3F5613F4BD013D8B3F5963FB8
:101F50004AD009D84DF6C02C634547D0B3F5614F40
:101F6000CAD14FF46B0319E0B3F5E13FC4D14FF090
:101F7000EB7313E0B3F5612F3BD009D8DFF888C0CD
:101F8000634539D0B3F5E12FB6D14FF0E86305E0F2
:101F9000DFF878C06345AFD14FF080530069C6F8D1
:101FA0002435031D03C92C433A432243C6F86C254C
:101FB00083E803000020F0BD4FF41D03EEE7144B4F
:101FC000ECE74FF49E23E9E74FF4A033E6E74FF444
:101FD0001C33E3E74FF41D23E0E70E4BDEE70E4B27
:101FE000DCE74FF06C73D9E70C4BD7E74FF4650390
:101FF000D4E74FF07063D1E74FF08063CEE700BFC6
:1020000000B0130000A04E0090D0030040420F002B
:102010000050270000C0750000F03A0000903A011F
:102020002DE9F743D0F804800669D8F80040D8F8C5
:102030000C900021C4F800150746306001AA4846FC
:1020400002F03BF9051E56DB019BD9F800201979F7
:10205000186802F04AF9051E4DDB311D3846FFF7BE
:1020600021FF0546002846D1D8F80430990719D534
:1020700006F1120000F0C8FF224B98423FD1B07C1D
:10208000C30003F1804303F5F83304F10C0204F5B7
:102090009071C3F81015C3F814251B4A012383401F
:1020A000C2F804350823C4F8003598F808305BB945
:1020B000C4F81031D4F8103106F11103C4F83435E6
:1020C0000123C4F838352360D8F804309A075CBF80
:1020D0004FF48072C4F80423DB0644BF4FF480033E
:1020E000C4F8043310360023C4F84465C4F84835F6
:1020F0000123A360E360284603B0BDE8F0836FF0DE
:102100000405F8E70000AD0B00F00140F8B50669E2
:1021100005460F4602F03BFA10B92C4B1B7883B9E9
:102120004FF02003EFF3118483F31288BFF36F8F16
:10213000686802F056F828BB84F31188BFF36F8FEC
:10214000EEE76424686802F04CF870B9012002F0F0
:1021500005F9013CF6D10021212001F0C5FBF0E793
:1021600084F31188BFF36F8FF5E74FF02003EFF38F
:10217000118483F31288BFF36F8F686802F031F81F
:102180000028EDD006F8107F69680B680122C3F8BB
:102190004465C3F848250022C3F82021D3F8200164
:1021A000C3F85821D3F858214A68D20641BF082203
:1021B000C3F800254FF48002C3F8042301229A607B
:1021C00084F31188BFF36F8FF8BD00BF11030020A7
:1021D00010B501238340114ABFF35B8FDC4352E803
:1021E000001F01EA040C42E800CEBEF1000FF6D158
:1021F000BFF35B8F4FF4803202FA00F002F18042AD
:1022000002F58052C2F80803BFF35F8FBFF36F8FF0
:102210000B4214BF0120002010BD00BFC8020020E7
:102220001949F8B5044622F07F450868C1E9002342
:10223000A5F50013101AB3F5400F22D2134B1B68FB
:102240001A0A1B065E19124B42F10007C3E9006728
:10225000012601F099FCA30003F1804303F58833C4
:10226000D3F84025AA420BD11EB94FF40002C3F89F
:102270004025084B4FF4803000FA04F4C3F844437F
:10228000F8BD0026E5E700BFE0000020CC020020FA
:10229000C80000200010014019B3BFF35B8F012379
:1022A000104A834052E8001F194342E8001CBCF169
:1022B000000FF7D1BFF35B8F0B4A4FF4803383409D
:1022C000C2F80433094BBFF35B8F1B68BFF35B8F0E
:1022D00023FA00F0C30742BF054B4FF40032C3F8A6
:1022E00000217047C802002000100140C4020020F5
:1022F00000E100E00D4B1868010A0006BFF35F8F94
:102300000B4BD3F80435181841F10001B3F5801FC9
:102310000AD2084BD3E90023904271EB030303D2A6
:1023200010F1807041F10001704700BFCC02002025
:1023300000100140C80000202DE9F04F85B016467E
:1023400098460546FFF744FF0090FFF7D3FFB042E1
:1023500071EB080378D2464B301A68EB01019842C2
:1023600071F1000380F08180424B03EB0513D3E948
:1023700002ABD84508BF564551D04FEA850909F14F
:10238000804905F1500709F58839BF004FF48031C5
:1023900001FA05F3BFB226F07F4207F180470193AF
:1023A000D9F84005344B07F588371446D3F804159F
:1023B000401A20F07F4021F07F4C0128C9F840C529
:1023C00007D1CDE90221132002F0D4F9DDE9022181
:1023D000294B01F1020CA4EB0C0020F07F40B0F57A
:1023E000000F88BF64460020386038680198C3F841
:1023F000440324F07F40C9F84005D3F80405814226
:1024000006D0201A023820F07F40B0F5000F19D80E
:10241000A41A24F07F4414EB060A48F1000B154976
:102420000E982B0101EB0512C2E902ABC8500F9BBD
:102430005360002428460099FFF72EFF204605B080
:10244000BDE8F08F2046B1E701230C4ABFF35B8F54
:10245000AB4052E8001F194342E800100028F8D1B1
:10246000BFF35B8FB246C346D9E76FF01504E1E7CF
:1024700001000001D000002000100140C402002033
:1024800073B5194B194D00244FF0FF304FF0FF3159
:10249000C5F80845C3E902014FF48033C5F8043399
:1024A000134B02264FF400320121C5F804631120BA
:1024B000C3F880212246FEF773FE1120FEF752FE7C
:1024C0000C4A0123AB602B6013600B4B0B4A00934B
:1024D000019400232046FFF72FFF3046FFF7E2FA72
:1024E000204602B070BD00BFD000002000100140A7
:1024F00000E100E0C802002021220000FFFF7F0071
:102500002DE9F743354CD4F804339A070BD5D4F8AA
:10251000043143B1324A0023C4F80431D4F8043101
:102520001368013313604FF02003EFF3118283F33C
:102530001288BFF36F8FD4F80433DB0312D5BFF3D7
:102540005B8F284B53E8001F21F0010043E8000691
:10255000002EF7D1BFF35B8F002936D1D4F840317C
:10256000002B32D1002382F31188BFF36F8F4BB35E
:10257000FFF7C0FE4FF02003EFF3118C83F31288B6
:10258000BFF36F8F184BD3E90267B04271EB0702BC
:102590004FF0000220D34FF0FF384FF0FF39D3E95E
:1025A0000015C3E902891A604FF48033C4F8483338
:1025B0008CF31188BFF36F8F21B1009532463B46F3
:1025C0000020884703B0BDE8F0830023C4F8403101
:1025D000D4F840310123C6E71146E9E70010014075
:1025E000CC020020C4020020D0000020431C13B500
:1025F00021D0012821DDB0F5000F20DA441EFFF7BD
:1026000079FE104BD3E90013401AB0F5000F28BF34
:102610000024013002190C48824228BF0246521899
:102620004FF0000009490190009143F10003FFF7CA
:1026300083FE02B010BD0448E0E70024DFE7024C4F
:10264000DDE700BFE0000020FFFF7F002122000047
:1026500008B5FFF74FFE024B1B68C01A08BD00BF4C
:10266000E000002000F48053002B30B507BF144673
:102670000D4601240025C0F3811200F01F0110F067
:10268000200F00F4706040EA8202064B42EA050225
:1026900008BF4FF0A04301F5E07142EA440243F85D
:1026A000212030BD0003005000F01F014009012827
:1026B000044B4FF0010218BF4FF0A0438A40C3F80B
:1026C0000825704700030050024AD2F80034002B5E
:1026D000FBD0704700E001404FF0805310B5D3F8B5
:1026E00030210D2A55D14FF080410022C1F80C2134
:1026F000C1F81021C1F83825484AD3F80404C2F8BB
:102700002005D3F80804C2F82405D3F80C04C2F855
:102710002805D3F81004C2F82C05D3F81404C2F825
:102720003005D3F81804C2F83405D3F81C04C2F8F5
:102730004005D3F82004C2F84405D3F82404C2F8B5
:102740004805D3F82804C2F84C05D3F82C04C2F885
:102750005005D3F83004C2F85405D3F83404C2F855
:102760006005D3F83804C2F86405D3F83C04C2F815
:102770006805D3F84004C2F86C05D3F84434C2F8B5
:102780007035D1F80034DB0709D56FF00103C1F8CB
:1027900000344FF08053D3F830310D2B0CD14FF073
:1027A0008053D3F834313BB14FF01023D3F80822D3
:1027B0004FF08043C3F858254FF01023D3F8002280
:1027C000002A03DBD3F80432002B22DA1449012358
:1027D0004FF01020C1F804351224FFF775FFC0F840
:1027E0000042FFF771FFC0F80442FFF76DFF0023BE
:1027F000C1F80435FFF768FFBFF34F8F09490A4B53
:10280000CA6802F4E0621343CB60BFF34F8F00BF8E
:10281000FDE7064B064A1A6010BD00BF00C000402D
:1028200000E0014000ED00E00400FA053400002063
:102830000090D00370B501250268B2FA82F3C3F1AB
:102840001F035E1CDCB214D0BFF35B8F05FA03F3E9
:1028500022EA030350E8006F964204D140E8003CAE
:10286000BCF1000FF6D1BFF35B8FE5D102480C70CD
:1028700070BD0248FCE700BF0000AD0B0200AD0BCD
:102880000368CB40DB0710B515D4012303FA01F12F
:102890000368BFF35B8F41EA030250E8004F9C429C
:1028A00004D140E8002CBCF1000FF6D1BFF35B8FE0
:1028B000EED1024810BD0248FCE700BF0000AD0B9E
:1028C0000400AD0B044B1A7922B9012218601A7169
:1028D0000248704702487047D00200200000AD0B4C
:1028E0000C00AD0B4FF0804310B5D3F8002152B16E
:1028F0000020C3F80001D3F800210122C3F8082307
:10290000104B1B6898474FF08043D3F8042172B1F5
:102910000022C3F80421D3F80421D3F81824D3F8F3
:102920001814920704D10122C3F818259A6010BD2B
:102930000222C3F80823034BBDE810401B680120A6
:10294000184700BFD0020020036803F01F025B0994
:10295000012B0260024818BF4FF0A040704700BF33
:1029600000030050034B083033F81000C0F3401050
:10297000704700BF3800002070B500F108030C4C10
:1029800034F81330DA0505460E4607D5C3F3432362
:1029900004EBC30254F8333052689847A3682BB154
:1029A000E26831462846BDE87040184770BD00BF58
:1029B00038000020124A083010B432F81030D9051F
:1029C0001BD5C3F3432123F4F85322F8103002F14E
:1029D0001004002034F8023B13F4807F03D0C3F3CB
:1029E0004323994209D001302A28F3D1002342F829
:1029F0003130044810BCFFF743BF10BC704700BF24
:102A000038000020A000002038B50246FFF7AAFFDA
:102A1000094C02F1080540B134F8153007495B0B49
:102A200003F5A273002041F823001046FFF7C2FF10
:102A3000002324F8153038BD380000200060004025
:102A40002DE9FF41044617461D4621B34E4E00F1C5
:102A5000080836F818309B0706D5FFF783FF18B132
:102A60004A4804B0BDE8F0810023CDE900338DF879
:102A70000E308DF80F300DF10F020B4620460DF190
:102A80000E0101F004FD36F8183023F0020343F084
:102A9000010326F8183097B13B4B3E787A6804F171
:102AA000080033F810108F070CD5002AD8D133F85E
:102AB000102022F01C0242EA860223F81020CDBB2F
:102AC0003348CEE721F02001C904C90C23F81010C7
:102AD000002AECD0032EC3D817782EB92D4A07F55B
:102AE000A27142F82160E2E7BA0002F1804202F5E9
:102AF000C04241EA4731D2F810C52CF0030CC2F8AD
:102B000010C5D2F810C52CF44F3C2CF4407CC2F810
:102B100010C5D2F810E54FEA042C0CF47C5C4EEAA8
:102B2000064E4CEA0E0C41F0200123F81010C2F8BA
:102B300010C5BCE7D5E900672046FFF73BFF002E34
:102B4000BED0114D2B689E4204D16B689F4201D1CB
:102B500000220AE010480DF10F01FFF76BFE0C4B4D
:102B600098427FF47EAF9DF80F2045F8326005EB68
:102B7000C20308345F6035F8143043EA422343F45B
:102B8000807325F814309BE7380000200400AD0B5B
:102B90000000AD0B00600040A0000020F0B504462E
:102BA00085B0154619B3334E00F1080736F81720E3
:102BB000930703D4FFF7D6FE002858D112F01C0F5C
:102BC00002D04B78012B52D001238DF80F30002317
:102BD000CDE900134A1C8B1C20460DF10F0101F0BA
:102BE00056FC36F8173043F0030326F8173015B9B2
:102BF000214805B0F0BD1F4E04F1080736F8170054
:102C0000830734D595F800C06146890020F0200084
:102C100001F18041C00401F5C041C00C26F8170045
:102C20000023C1F810356A78002AE1D0D1F81035B8
:102C3000AD7823F4991323F4F853C1F81035D1F883
:102C400010E5230203F47C53120402F4403243EAF9
:102C50000E0313432A0502F4801240EA4C3013435A
:102C600040F0200026F81700C1F81035C0E70348EF
:102C7000BFE700BF380000200000AD0B0400AD0B23
:102C8000014BC3E9020170473800002008B5024635
:102C9000FFF768FE38B1054B0548083233F81230AB
:102CA0005B0B0B7008BD0348FCE700BF3800002039
:102CB0000000AD0B0400AD0B38B50F4C94F86C5010
:102CC000BDB95422294604F1100001F067F906202D
:102CD000FEF748FA094B0A48C3F87C51D3F87C2127
:102CE0004FF00042C3F80423012384F86C30A3663C
:102CF00038BD0448FCE700BF3800002000600040F9
:102D00000000AD0B0500AD0B034B93F86C000038D1
:102D100018BF0120704700BF38000020014601485D
:102D2000FFF7AEBD9C00002001460148FFF782BDC1
:102D30009C00002037B50446FFF714FE04F108029A
:102D40001E4B33F81230E8B113F002051AD15B0BB9
:102D50009A0002F1804000F5C24002F1804202F583
:102D6000C04205600068D2F8100540F00100C2F8CA
:102D7000100529B1012202FA03F3114AC2F8043303
:102D800003B030BDC3F38203042B12D0052B12D045
:102D900001A80194FFF7D8FD019BD0F81015D94088
:102DA00001F001010231204603B0BDE8304001F0DE
:102DB000B5BB0321F7E70221F5E700BF380000208B
:102DC0000060004008B50246FFF7CCFDC0B102F13B
:102DD00008010E4B33F81130990711D45B0B012217
:102DE0009A409B000A4903F1804303F5C043C1F8B0
:102DF0000823D3F8102522F00302C3F8102508BDDC
:102E0000BDE808400021104601F088BB38000020D2
:102E1000006000400E4B00F1080213B533F8123089
:102E2000DB07044611D5FFF7CDFF2046FFF7ECFD89
:102E300001A80194FFF788FD019B03F5E0730222CE
:102E400040F82320034802B010BD0348FBE700BF51
:102E5000380000200000AD0B0400AD0B2DE9F04F51
:102E6000644B65486549002687B0012234461D68D9
:102E700035B1D0F8045315421EBF1C601D681643BF
:102E800004338B424FEA4202F1D1DFF86C81D8F86B
:102E90007C31002B00F091804FF0A043D3F8202527
:102EA0000492C3F82025D3F820280592C3F82028DF
:102EB00000270DF110097B0100934FF0010A49E052
:102EC000009B4F4A94FAA4F4B4FA84F41C4404F12D
:102ED0000803E00832F81330039404F007020AFAFA
:102EE00002FC19F8002022EA0C0209F8002003A8CD
:102EF000C3F382059908FFF727FD039A02F5E072F4
:102F00004B0750F82220AB46C2F3014229D5204698
:102F10005946D5B2FFF730FD03A80394FFF714FD1F
:102F2000039B03F5E07350F82330C3F301439D4244
:102F300007D10021204601F0F1FA2946204601F090
:102F4000EDFA03A80394FFF7FFFC039B0AFA03F3CF
:102F5000C0F8203559F82740002CB1D1CFB901274E
:102F6000A9E7022A0CBF032102212046019201F0A9
:102F7000D5FA032D04D0019A022A06D1012DE0D101
:102F800059462046FFF7F8FCDBE7032AD9D1022D8A
:102F9000F5E7C8F87C41D8F87C311A494FF0A043D6
:102FA000D3F820250492C3F82025D1F820350593C5
:102FB000C1F8203513437FF47BAF012416B907B065
:102FC000BDE8F08F96FAA6F3B3FA83F304FA03F29E
:102FD0009B0003F1804303F5C04326EA0206D3F8C1
:102FE0001005D3F81015C0F30520C1F30141FFF718
:102FF000C3FCE3E700610040006000402061004046
:10300000380000200003005001460148FFF712BCC1
:10301000A80000200E4B70B553F82040013053F843
:103020002060A64200D870BDD4E9003528469847F4
:1030300065B1EB6830B10028B8BF4042FF28A8BF97
:10304000FF2018705A7842F001025A700834E8E7FD
:10305000204B000008B50A4B012202201A70FFF72E
:10306000D9FF00F005FE0320FFF7D4FF00F0ECF8D5
:10307000FDF7E0F9034A137B23F00103137308BD46
:10308000110300206801002008B50348034A00210D
:10309000121A01F078FA08BDC800002014030020BD
:1030A00070B5002386B00122CDE90423134E144DE0
:1030B00001930F22CDE902321249182303FB005578
:1030C00006EBC01604464FF4B07000FB04110E4B23
:1030D00000954FF4A072304600F084F8737B0B48E3
:1030E0002C7523F0040373734FF4026303FB040491
:1030F0001C44EE606C6006B070BD00BFE8000020AC
:10310000D80200204007002001330000A008002062
:1031100080B52D4BA6B083F308882C4D2C4E6B69DF
:103120002C4F43F4007300246B61E02385F82230B8
:10313000EC772C766C76AC7685F820406B6A43F49D
:10314000E0236B6285F82340FEF71AFAFDF7ECFFE7
:103150004FF0FF33AB62EB62FEF74AFBFEF7B2FAC9
:1031600040F20113ADF8243006ABB360CDE91F4443
:10317000229401F0E2F92046FFF74CFF0120164DA2
:10318000FFF748FF00F01CFB144BF561059301238A
:1031900013490094CDE903434FF480623B46CDE9E7
:1031A0000144284600F01EF86A7B064622F004021D
:1031B00028466A7301F026FA2046FFF771FF3A4667
:1031C00031462846FEF7AAF8C010002000ED00E0C6
:1031D000D80200205530000068010020264C000075
:1031E000200300202DE9FF410E9E0673042646733E
:1031F0000D9E867300F158050F46D61DC0E9165581
:103200000C9A002526F007062037C0E90655C0E9CC
:1032100019768560C573C56606F1200802920B9A7F
:10322000019288440A9A009242460446FEF744F806
:10323000044B65659B6803B11B6F2367404604B070
:10324000BDE8F081D80200202DE9F043294C2A4D39
:1032500087B02646AE4204F130040FD300F00CF9DB
:10326000244CDFF898904FF4004640F2E737AC4228
:1032700020D307B0BDE8F04300F086BA54F8043C10
:10328000059354F8103C049354F8143C039354F8F9
:10329000183C029354F81C3C019354F8203C0093D2
:1032A00054E90C0154E90A23FFF79CFF54F8303C21
:1032B0005E65CEE7636A5A1C0DD023EAE3730021F2
:1032C0003846C3FB060151EAC333D4F8008004D169
:1032D000404600F0B7F93034C9E74FF47A72002362
:1032E000FCF70EFF02460B4608F11800494600F0B5
:1032F000D1FBF0E7C8000020C800002025460000F0
:1033000008B50B4C0B4D4FF02002EFF3118382F305
:103310001288BFF36F8F01F0FFF92B78A06113B90A
:10332000FDF708FFEFE7FDF725FE0028EBD1F7E7F3
:10333000D80200201103002038B504464FF02003C6
:10334000EFF3118583F31288BFF36F8F01F0B6F9A5
:1033500048B10022826701F055F929460548BDE8C9
:10336000384000F077B8D4E902329A4218BF0133EE
:10337000A360F2E71203002013B54FF02004EFF32F
:10338000118184F31288BFF36F8F846844B1013CCC
:10339000846081F31188BFF36F8F002002B010BDED
:1033A00052EA030406D181F31188BFF36F8F6FF0E7
:1033B0000F00F3E7CDE900230246024800F09EF932
:1033C000ECE700BF1203002038B5074D2C6854B15C
:1033D000FFF73EF9054B04441C6128680021BDE855
:1033E000384001F0A9B938BD08030020D8020020F8
:1033F000F8B504460D464FF02003EFF3118783F331
:103400001288BFF36F8F104E00214FF4004C40F232
:10341000E730316100234FF47A72E4FB0C01FCF7D2
:103420006FFE002C094B0ADC1860094BB0681D6068
:10343000FFF7CAFF87F31188BFF36F8FF8BD02282B
:10344000B8BF0220F0E700BFD80200200803002028
:103450000403002049B9EFF3058030B9054BDA6960
:103460009B689A4201D0FDF7D3BE81F31188BFF368
:103470006F8F7047D80200204FF02003EFF31181C7
:1034800083F31288BFF36F8F044B9A68D37B013BA1
:10349000D37381F31188BFF36F8F7047D802002078
:1034A00038B502460C480D4D01F0A6F8044600B9A7
:1034B000EC68AB684AB95A7BD20606D1A26922B938
:1034C000DA897F2A01D9EB6138BD9C4202D02046BF
:1034D000FFF77AFFEC61F7E7F8020020D80200203E
:1034E00070B590F90D20437B002A014604DA03F001
:1034F0007F03437301F058F84B7B154A63F07F0359
:103500004B73D2E9083402F12005AB421BD0D3B192
:1035100091F90E6093F90E0086420FD0801B0028AF
:103520000CDD5868C1E90030016059609068431AA9
:103530005842BDE870405841FFF7B2BFA34202D0E5
:103540001B68002BE6D1C1E9005421605162EDE710
:10355000D802002038B54FF02003EFF3118583F334
:103560001288BFF36F8F174B174A9C6811688C4203
:1035700007D12046FFF728FF85F31188BFF36F8F2F
:1035800038BD00211160114A1268C2B1E2897F2A58
:1035900015D8627BD20612D10D4A94F90E1012682A
:1035A00091420CDB0B4A944209D01A69824203DC37
:1035B0002046FFF795FFDCE7121A1A61DCE70022CC
:1035C000FBE700BFD8020020000300200803002012
:1035D00004030020E800002070B490F90D20437B24
:1035E000002A2ADBDA0628D1826932BB144A63F04A
:1035F0007F034373D2E9083402F12005AB4217D0B0
:10360000B3B190F90E6093F90E108E420BD0891B66
:10361000002908DD5A68C0E900321060586070BCAB
:103620000020FFF73DBFA34202D01B68002BEAD168
:10363000C0E9005420605062F1E770BC704700BFE1
:10364000D802002010B54FF02002EFF3118482F36E
:103650001288BFF36F8F427B510704D484F3118823
:10366000BFF36F8F10BD22F004024273FFF7B4FF67
:1036700021460248BDE81040FFF7ECBE12030020CF
:1036800008B590F90D20437B002A014604DA03F0C7
:103690007F03437300F088FF044B9868431A584235
:1036A0005841BDE80840FFF7FBBE00BFD80200202C
:1036B0002DE9F041064615461C464FF02003EFF376
:1036C000118783F31288BFF36F8F00F0CDFF87F36C
:1036D0001188BFF36F8FB4F1FF3F08BFB5F1FF3F13
:1036E00008D02A46234606F118000349BDE8F041F8
:1036F00000F0D0B9BDE8F0812546000010B5074BB9
:103700009868074B0C4618601146DDE90223FFF765
:10371000CFFF2046BDE81040FDF77ABDD80200205B
:103720000003002070B50446183000F0DFFF4FF0B2
:103730002003EFF3118683F31288BFF36F8F94F9A0
:103740000D20637B002A05DA03F07F0363732046B4
:1037500000F02AFF0B4D637BA86843F010036373EE
:10376000031B58425841FFF79BFE86F31188BFF3B5
:103770006F8FAB68A34203D1BDE8704000F032BF49
:1037800070BD00BFD802002010B54FF02003EFF34A
:10379000118483F31288BFF36F8F084B9A68D37B31
:1037A0000133D3730020FFF77BFE84F31188BFF34E
:1037B0006F8FBDE8104000F015BF00BFD802002099
:1037C000044B002103F12002C3E908220846FFF759
:1037D0000FBE00BFD8020020F8B54FF02003EFF372
:1037E000118583F31288BFF36F8F1A498868437B72
:1037F00003F07F03437300F0D7FE8B685A7B0846C3
:1038000062F07F025A7350F8202F82421CD0DAB146
:103810004F6A93F90E6092F90E40A6420FD0A41B96
:10382000002C0CDD5168C3E900210B6053600120BE
:10383000FFF736FE2846BDE8F840FDF7E9BCBA427E
:1038400002D01268002AE6D14A6AC3E90002136076
:103850004B62ECE7D802002050EA01032DE9F04169
:1038600005460E4603D1FFF7B7FF002033E06FF0A7
:103870000104241A4FF0FF3363EB0103012C73F1B1
:10388000000302DA00F072FF44194FF02003EFF357
:10389000118883F31288BFF36F8F104F104BB868F5
:1038A0001860FFF7EDFEB8680E492A463346183017
:1038B00000F0F0F8BA68537B43F0100353734046AE
:1038C000FDF7A6FC00F052FF201A63EB030301286A
:1038D00073F10003C9DBBDE8F08100BFD80200200E
:1038E0000003002025460000B1F1FF3F08BFB0F102
:1038F000FF3F08B506D1084B9868FFF713FF4FF05C
:10390000FF3008BDFFF7A8FF4FF47A7380FB030375
:10391000C00B40EA4340F4E7D8020020014B98680E
:10392000704700BFD80200202DE9F04104464FF057
:103930002003EFF3118683F31288BFF36F8F437B6D
:103940001A0705D586F31188BFF36F8FBDE8F081A4
:1039500023F0200242F00801D20920D14173A3686C
:1039600013B1204600F028FE04F1180000F0BEFE5E
:1039700004F158074FF00008A56DBD4200D0B5B95D
:103980000120FFF78DFD104B9B68A342DAD1EFF3C6
:103990000583002BD6D13046FDF73AFCD2E703F081
:1039A0005F0343F00803437300F0FEFDD7E72846AA
:1039B00000F002FE05F1180000F098FEC5F87880CE
:1039C0002846FFF709FED7E7D802002008B50648C9
:1039D000064A0749121A00F0D8FDBDE80840054A1A
:1039E0000549064800F0D1BD00000020C8000020B5
:1039F000644C000000000000644C00000000002047
:103A0000034B1B680BB9FEF723BE0020704700BFB5
:103A10000C030020104B10B51C689C4208BF00240A
:103A2000FFF7EEFFA4B1D4E904321B1A62EBE07099
:103A3000B3F1004F70F100020ADA0028ACBF18465B
:103A40000020064B1B6913B19842A8BF184610BD51
:103A50006FF00040F5E700BFAC000020D802002066
:103A600030B5036868B10A4A5268904209D043B140
:103A7000D3E90421D0E90445121941EB0501C3E95A
:103A80000421426813605A600023C0E9003330BD4E
:103A9000AC000020B3F1FF3F08BFB2F1FF3FF8B523
:103AA00004461F46154667D081604FF02003EFF3B0
:103AB000118683F31288BFF36F8F6FF00102531BDF
:103AC0004FF0FF3C6CEB0703002B1BDB2B4BD3E9C8
:103AD0000013521A6CEB0303551B63EB0703012D14
:103AE00073F10002BCBF01250023C0E90453244840
:103AF000D0E9003C834218D1C4E9000CCCF8004066
:103B0000446026E0FFF77CFF013547F100072D18E0
:103B100047EBE077C4E90457E9E7521A65EB07057C
:103B20009C45C4E90425E7D01B68002BE4D0D3E909
:103B30000417D4E904258A4275EB070EEDDA8A1AD8
:103B400067EB0505C3E904255A68C4E9003214602F
:103B50005C60036883420BD09C4209D1FFF75AFF97
:103B600018B1084B1B69834202D00021FEF73EFDCD
:103B700086F31188BFF36F8FF8BD00BFE801002006
:103B8000AC000020D80200202DE9F8430546FFF7DD
:103B9000E1FC4FF02003EFF3118483F31288BFF3AD
:103BA0006F8F244EDFF890803560244DD8F80000E8
:103BB00032684045D5E9001E4FEAE2770BD050B19C
:103BC000D0E9043C9A4277EB0C0916DA9B1A6CEBAD
:103BD000070CC0E9043C52184EEB0707C5E9002763
:103BE00000253560FFF716FF2946FEF7FFFC84F33A
:103BF0001188BFF36F8FBDE8F88359184EEBE37758
:103C0000D31A336000220023C0E90423C5E900175A
:103C1000FFF726FF84F31188BFF36F8F83689847FF
:103C20004FF02003EFF3118483F31288BFF36F8FFB
:103C3000BCE700BF0C030020AC000020E80100201E
:103C400010B54FF02003EFF3118483F31288BFF314
:103C50006F8FFEF7FDFC054AD2E90031C01841F133
:103C6000000184F31188BFF36F8F10BDE8010020BD
:103C7000024A0349034800F046B800BF604C000008
:103C80002B4C00003A4C0000F0B402460068D38888
:103C900016790B43DC028768016906D513F4402FBF
:103CA00003D0DA0748BF83F440230C680125B540F0
:103CB00023F48012DB074CBF2C43AC430C603B6801
:103CC0003146F0BC1847034658B1426802F003027F
:103CD000012A03D0032A04D1026812B1002098609F
:103CE00070476FF0150070474268816002F0030270
:103CF000032A4FF0000203460CBF006810465A60CA
:103D00007047002070470FB407B504A951F8040BA1
:103D10000191FCF7FBFB03B05DF804EB04B07047C6
:103D2000038B13F0070305D10368002B0CBF0020A1
:103D300003207047022B05D1438B002B14BF0020BA
:103D400004207047012B05D10368002B0CBF002015
:103D500005207047002070472DE9F0410D460746C9
:103D60001946281D90461E46FFF7BEFF044638B18F
:103D70003346424629463846A446BDE8F0416047EE
:103D8000BDE8F08110B44FF02004EFF3118284F30A
:103D90001288BFF36F8F416110BC0121FCF7C4BBD7
:103DA00010B50C4640B139B1081DFFF78CFF28B99A
:103DB000A36833F0030301D06FF0150010BD38B5D0
:103DC0000C46054658B151B10B6843B14B6833B14D
:103DD0001C22002100F0E2F82C61002038BD6FF0B9
:103DE0001500FBE770B504460E46FFF7D9FF051E28
:103DF00031DB4FF02003EFF3118183F31288BFF31F
:103E00006F8F638B208B4FF6FF75AB4200F007027C
:103E10002ED0022A0ED1013363831546012381F38C
:103E20001188BFF36F8FB3B1002331462046FFF7EF
:103E300093FF10E0830701D0062A0ED100233360E0
:103E4000636893B9C4E90066154662B90A4620461C
:103E50000221FCF769FB284670BD052A0CBF6FF0F4
:103E600085056FF004050023D9E71E606660EBE767
:103E70006FF00A05F7E7044608B5084611461A46EA
:103E8000A047FFF74BFDFDF707FC2DE9F84F9A46D9
:103E9000D3786F2B80460F461546A3F1410B29D0EE
:103EA00024D8582B14BF0A261026DDF82890324655
:103EB000002340463946FCF723F9092AD4B21ED81C
:103EC0003034B045E4B277F1000309F8014D01D375
:103ED000D14511D82B789B0605D5082E15D1AB7886
:103EE00043F00803AB704846BDE8F88F03F0F703D2
:103EF000702BD7E70826D8E780460F46D7E7BBF1F7
:103F0000190F94BF37345734DBE7102EEBD1AB7861
:103F100043F01003E6E72DE9F041074688461546D1
:103F20001E461446B442A4EB050002D33EB92378E2
:103F30002BB114F8010B4146B8470028F2DABDE86E
:103F4000F081704700F004BB0146006800F000BB40
:103F500000210120FFF7F6BF08B5FDF739F9BDE8EC
:103F60000840FDF711BA034600201A5C02B97047F9
:103F70000130FAE7034600201A5C0AB1884200D1FA
:103F800070470130F8E710B5431E0A44914200D152
:103F900010BD11F8014B03F8014FF7E7C9B2024415
:103FA0000346934200D1704703F8011BF9E74FF035
:103FB000FF307047062808D14FF080430122C3F834
:103FC0000025BFF34F8F20BFFDE77047002383F329
:103FD0001188BFF36F8F70470369C9B20C2201FBD0
:103FE0000233186C00F0070070474FF02003EFF326
:103FF000118283F31288BFF36F8F036803F0C0034D
:1040000043F00203036082F31188BFF36F8F7047A0
:10401000034670B50069C9B24FF02004EFF3118672
:1040200084F31288BFF36F8F0C2505FB0104246C09
:1040300014F0C00401D0A24210D105FB01000122FE
:104040000264002086F31188BFF36F8F28B95B6884
:1040500003EBC1014B689847002070BD4FF0FF3063
:10406000F0E78022FFF7D4BFF8B5069F0469054644
:10407000C9B24FF02000EFF3118C80F31288BFF328
:104080006F8F0C2606FB0146306C00F0070EBEF168
:10409000010F11D1376400268CF31188BFF36F8FA5
:1040A00046B90C2000FB0144C4E90E236B6853F8A9
:1040B000313098473046F8BD00F0C000874214BF49
:1040C0004FF0FF366FF07706E6E713B580240094D3
:1040D000FFF7CAFF02B010BD006910B4CBB21C24B8
:1040E00003FB0400002110BC1047002000F090B931
:1040F000002000F0CAB91046FFF71EB943685B689C
:10410000D3F810350B600020704743685B68D3F824
:10411000040542400A404240C3F80425002070478D
:1041200043685B680020C3F80815704743685B6804
:104130000020C3F80C15704743685A68D2F804355C
:104140004B40C2F80435002070470369586830B509
:1041500058B10024814212D108689D6854B98D423B
:10416000586000D19860002008606AB9002030BD16
:104170002846EFE78D42206008BF9C60F3E70568A2
:104180000446002DF4D13AB198685A680A60596023
:104190000028EBD19960EAE76FF01500E7E70269C4
:1041A0000B46D2E9010183E8030000207047436811
:1041B0001B68D3F88004C3F8800470474368026921
:1041C0001B68D3F8100148B1527C0A700020C3F874
:1041D0001001D3F8102101221A6070474FF0FF3010
:1041E000704702680346D2F8580140B95B689B07E4
:1041F00006D4D2F82001003818BF012070470120F2
:10420000704742681368D3F80413C90518D5D3F86A
:104210002011A9B14FF02000EFF3118180F3128833
:10422000BFF36F8FD3F8200130B10020C3F8200115
:10423000D3F820010120D86081F31188BFF36F8F7C
:104240005268D20615D54FF02001EFF3118281F3A9
:104250001288BFF36F8FD3F8581111B10021C3F842
:1042600000154FF48001C3F8081382F31188BFF3DF
:104270006F8F704710B50022044601212820FCF7FB
:104280008FFF2820FCF76EFF2046BDE81040FDF7A9
:10429000C7BE10B50022044601210220FCF780FFB2
:1042A0000220FCF75FFF2046BDE81040FDF7B8BED6
:1042B000704708B5FEF71EF808BD30B543681360B7
:1042C000037A03F10053013BDB00456814681D4489
:1042D000AC4202D96FF0010030BD65798D4202D049
:1042E00008341460F1E70020F6E770B5154604467F
:1042F00000EB8106B44201D1002070BD23681A0C86
:10430000032A23D8DFE802F00212181D03F03F034E
:10431000C5F80C35206800F03F00FEF7C5F9012212
:1043200020681146FEF79EF90434E3E703F03F03EB
:10433000C5F814350022F3E703F03F03C5F808354C
:10434000E8E703F03F03C5F81035F3E76FF08500A9
:10435000D3E708B50020FDF795FA004700F00ABA48
:10436000F7B5044618B1012824D003B0F0BD4FF0D2
:1043700080430222C3F80823C3F80401D3F80421C0
:104380000122DA6001239C428DF8073014BF00251A
:104390000DF1070542F210774FF08046ACB1012CC9
:1043A000E3D125B1D6F80C3403F001032B70D6F815
:1043B0000C3412E04FF080430022C3F80803C3F826
:1043C0000021D3F800215860DCE725B1D6F8183475
:1043D00003F003032B60D6F81834DB03C5D52DB9E1
:1043E0000120FFF7BBFF013FD8D1BEE79DF80730A2
:1043F000012BF5D0B9E708B50020FCF7C3FE08B9DA
:10440000FCF7B0FE4FF080430022C3F8182508BD2A
:1044100008B510B101282DD008BD4FF08042D2F868
:104420001814D2F8183413F480330BD1D2F81414C2
:10443000C90710D5D2F81C349B0708D40223C2F850
:104440000433E9E701F00303012B04D01BB1002082
:10445000FFF786FF00234FF08042C2F81835002393
:10446000C2F80431D2F804310223C2F80433012324
:104470009360D1E74FF080430022C3F80021D3F8C6
:104480000021C3F804031860C6E7FFF769BFF7B55A
:10449000019001A8DDE9084617461D46FEF754FACB
:1044A000019B002F00EB830014BF0223002300298F
:1044B00018BF43F00103002D14BF4FF00C0C4FF058
:1044C000000C002C43EA0C0314BF4FF4E06C4FF0D7
:1044D000000C002E43EA0C03D0F8002714BF4FF461
:1044E000403C4FF0000C43EA0C0322EA030301B105
:1044F00009780FB13F787F0019430DB12D78AD00D9
:1045000039430CB1227814020D430EB136783604CB
:104510002C433443C0F8004703B0F0BD1FB50DF184
:104520000F03019300238DF80F1000931A461946CC
:10453000FFF7ADFF05B05DF804FB704738B1C36805
:104540001888C0F30800A0F580735842584170479E
:10455000F8B505460E464FF02003EFF3118783F3BD
:104560001288BFF36F8FFFF7D9F93146044628460A
:10457000FFF7EFFE87F31188BFF36F8F2046BDE88A
:10458000F840FDF789B8FFF709BDFFF7FCBCEFF372
:104590000580003818BF0120704708B5FCF7ACFC57
:1045A000BDE80840FFF784BED0E9003213605A60CE
:1045B0000023C0E90033704708B5FFF7F5FF437BE0
:1045C00023F0020343730023836008BD034620B930
:1045D000EFF305820AB9FCF71BBE83F31188BFF322
:1045E0006F8F70474FF02003EFF3118083F3128831
:1045F000BFF36F8FFFF7EABF03460068834208BF2F
:104600000020704710B54FF02003EFF3118483F3BF
:104610001288BFF36F8FFEF7DFFF84F31188BFF3BB
:104620006F8F10BD10B501464FF02003EFF31184DA
:1046300083F31288BFF36F8F10F80B3C13F0280F31
:104640000DD151F8103C18380BB1FFF7B5FF11F838
:104650000B3C23F0140301F80B3CFEF7BDFF84F381
:104660001188BFF36F8F10BD38B504460D46FFF7B4
:1046700007F8637B43F00203637395B12B68A56071
:104680009D4215D0A3B194F90E1093F90E209142DA
:1046900008D0521A002A05DD5A68C4E900321460B5
:1046A0005C6038BD6A68934202D01B68002BECD175
:1046B0006B68C4E900531C606C60F2E738B54FF0DA
:1046C0002003EFF3118583F31288BFF36F8FFFF799
:1046D00093FF044620B1FFF76FFF183000F006F893
:1046E00085F31188BFF36F8F204638BD10B54FF0AA
:1046F0002002EFF3118482F31288BFF36F8F0368F7
:104700003BB1FFF7ADF9002084F31188BFF36F8F41
:1047100010BD6FF01500F7E710B54FF02003EFF371
:10472000118483F31288BFF36F8FFFF773F984F35B
:104730001188BFF36F8F10BD70B504460D464FF062
:104740002003EFF3118683F31288BFF36F8FFFF717
:1047500061F9012805DDA04203DB29462046FDF76B
:1047600045FF86F31188BFF36F8F70BD08B5FFF763
:1047700067FA08BD08B1FDF79BB8704770470000A5
:04478000FDF7AABFD8
:08478400B0B9FF7F0100000045
:10478C005D1800000000000039190000CC47000043
:10479C00D11C0000FC470000D11C0000E4470000C5
:1047AC007542000014480000934200002C480000A1
:1047BC00A51B000000000000812400000000000088
:1047CC00044C00004C4A0000344A0000B4000020A5
:1047DC0050020020DC490000114C00008C4A000003
:1047EC00684A0000BC000020AC020020D649000042
:1047FC000A4C00009C4A0000684A0000B8000020E7
:10480C00B8020020D0490000184C0000104B0000EA
:10481C00EC4A0000C000002020000020CA49000023
:10482C001F4C0000004B0000EC4A0000C4000020AC
:08483C000C000020C44900003B
:10484400E52800005B43000000000000513F000029
:104854002C4800000342000000000000513F00000B
:1048640000000000513F000000000000513F000024
:104874005D2E00005B43000000000000513F00007B
:1048840000000000513F000000000000513F000004
:1048940000000000513F000000000000513F0000F4
:1048A40000000000513F000000000000513F0000E4
:1048B40000000000513F000000000000513F0000D4
:1048C40000000000513F000000000000012500002E
:1048D40000000000513F000000000000513F0000B4
:1048E40000000000513F000000000000513F0000A4
:1048F40000000000513F000000000000513F000094
:1049040000000000513F000000000000513F000083
:1049140000000000513F000000000000513F000073
:1049240000000000513F000000000000513F000063
:1049340000000000513F000000000000513F000053
:1049440000000000513F000000000000513F000043
:1049540000000000513F000000000000513F000033
:1049640000000000513F000000000000513F000023
:1049740000000000513F000000000000513F000013
:10498400144800000342000000000000513F0000F2
:1049940000000000513F000000000000513F0000F3
:1049A40000000000513F000000000000513F0000E3
:1049B40000000000513F000000000000513F0000D3
:1049C40000800080FF7F00800080FF7F00800080E7
:0E49D400FF7F00800080FF7F00800080FF7F5B
:0E49E200FFFFFFFFFFFFFFFFFFFFFFFFFFFFD5
:1049F0000338FDD870470000E44700000B001100A9
:104A0000E44700000D00010000000020000000004D
:104A100000000B06020000001C4A0000000000001D
:104A2000F54B00002400020700000020FD4B0000B1
:104A300020000B11451A000063400000CB4000002D
:104A400000000000D93F000000000000E119000054
:104A5000791A0000EB400000F1400000F51800005A
:104A6000C5180000000000004D1D0000FD400000C2
:104A70000B410000214100002D41000039410000A0
:104A8000FD1B00004B41000000000000FFFFFFFF86
:104A9000000000500000000000000000FF030000C4
:104AA0000003005000000000010000000020004052
:104AB000DC4A00000100000000800240E44A0000DF
:104AC000010000000600000005000200C80001000F
:104AD000C7000300E100010022000000C44A0000FA
:104AE00004000000D44A000002000000BD410000A4
:104AF0000D210000AF410000A51E00009F410000F5
:104B0000002000400200000000000000AC4A00004D
:104B1000008002400200000000000000B84A0000CF
:104B20008C470000C4470000CC470000CC47000081
:104B3000CC470000F5FFFFFF427574746F6E207064
:104B40007265737365642061742025750A0045726F
:104B5000726F723A20627574746F6E206465766944
:104B60006365202573206973206E6F742072656100
:104B700064790A004572726F722025643A2066617A
:104B8000696C656420746F20636F6E666967757207
:104B9000652025732070696E2025640A00457272B5
:104BA0006F722025643A206661696C656420746FB9
:104BB00020636F6E66696775726520696E746572D1
:104BC00072757074206F6E2025732070696E2025B9
:104BD000640A0053657420757020627574746F6E7A
:104BE0002061742025732070696E2025640A0028D6
:104BF0006E696C2900464C4153485F300053524166
:104C00004D5F3000434C4F434B004750494F5F319D
:104C1000004750494F5F3000554152545F310055B5
:104C20004152545F30006D61696E0076332E302E34
:104C300039392D6E6373312D31002A2A2A20426FB3
:104C40006F74696E67205A6570687972204F5320BF
:104C50006275696C64202573202573202A2A2A0A2C
:044C60000000000050
:104C6400033D0000FFFFFFFFAF3F00000000000016
:104C740000C2010000010300000000000000000069
:104C84000000000000C20100000103000000000059
:104C9400000000000090D0030000000000000000AD
:104CA4000000000000000000000000000000000000
:104CB40000000000000000000000000000000000F0
:104CC40000000000000000000000000000000000E0
:104CD40000000000000000000000000000000000D0
:104CE40000000000000000000000000000000000C0
:104CF400000000000000000000000000FF000000B1
:104D04000000000000000000FFFF0F00AC000020C6
:044D1400AC000020CF
:104D1800000000000000000000000000000000008B
:044D28000000000087
:04000003000015BD27
:00000001FF
