:100000006014002005260000115C0000D9250000C6
:10001000D9250000D9250000D925000000000000E6
:10002000000000000000000000000000111F0000A0
:10003000D925000000000000BD1E0000D9250000E9
:10004000C11F0000C11F0000C11F0000C11F000030
:10005000C11F0000C11F0000C11F0000C11F000020
:10006000C11F0000C11F0000C11F0000C11F000010
:10007000C11F0000C11F0000C11F0000C11F000000
:10008000C11F0000C11F0000C11F0000C11F0000F0
:10009000C11F0000C11F0000C11F0000C11F0000E0
:1000A000C11F0000C11F0000C11F0000C11F0000D0
:1000B000C11F0000C11F0000C11F0000C11F0000C0
:1000C000C11F0000C11F0000C11F0000C11F0000B0
:1000D000C11F0000C11F0000C11F0000C11F0000A0
:1000E000C11F0000C11F0000C11F0000C11F000090
:1000F000C11F0000C11F0000C11F0000C11F000080
:1001000053B94AB9002908BF00281CBF4FF0FF317E
:100110004FF0FF3000F00CB8ADF1080C6DE904CEE3
:1001200000F008F8DDF804E0DDE9022304B07047D0
:10013000704700BF2DE9F04F07468C460846099EE0
:1001400015463C461946002B40F0C6808242B2FA62
:1001500082F746D94FB1C7F1200E24FA0EFE00FAFD
:1001600007F3BD404EEA030CBC404FEA15481FFAA6
:1001700085FEBCFBF8F9220C08FB19C309FB0EFA3B
:1001800042EA03439A4528D9EB1809F1FF3004D21B
:100190009A4502D9A9F102002B44A3EB0A03A4B2A9
:1001A000B3FBF8F208FB123302FB0EFE44EA0344F1
:1001B000A64514D92C1902F1FF3303D2A64501D963
:1001C000931E2C44A4EB0E0443EA00401EB1FC40F5
:1001D000002334607360BDE8F08F4846DDE71346C6
:1001E000F0E702B9FFDE87BB831A01214FEA154E03
:1001F000AAB2B3FBFEFC200C0EFB1C330CFB02F876
:1002000040EA0343984563D9EB180CF1FF3004D260
:10021000984502D9ACF102002B44A3EB0803A4B229
:10022000B3FBFEFC0EFB1C330CFB02F244EA03445E
:10023000A2424FD92C190CF1FF3304D2A24202D9A9
:10024000ACF102032C44A41ABEE7C7F1200C20FA3B
:100250000CF800FA07F324FA0CFCBD404CEA030248
:100260004FEA154EABB2B8FBFEFC110C0EFB1C8026
:100270000CFB03F941EA0040814504FA07F423D955
:1002800028180CF1FF3104D2814502D9ACF10201EA
:100290002844A0EB090092B2B0FBFEFC0EFB1C0050
:1002A0000CFB03F842EA004398450FD9EB180CF118
:1002B000FF3204D2984502D9ACF102022B44A3EBE1
:1002C000080342EA014191E76146E2E76246F6E748
:1002D0006046A2E76346B6E7834205D90EB1C6E998
:1002E00000700021084676E7B3FA83F181B98342B2
:1002F00001D3BA420AD8BC1A60EB030301209C4622
:10030000002E68D0C6E9004C002164E70846F7E7F4
:10031000C1F1200C8B4022FA0CF41C4302FA01F5C7
:1003200000FA01F327FA0CF220FA0CFB4FEA144909
:100330001343BBFBF9F81FFA84FE09FB18BB1A0C28
:1003400008FB0EFA42EA0B42924507FA01F73ED942
:10035000A21808F1FF3004D2924502D9A8F1020098
:100360002244A2EB0A029BB2B2FBF9F809FB182265
:1003700008FB0EFE43EA024296452AD9A21808F16C
:10038000FF3304D2964502D9A8F10203224443EA7E
:100390000040A0FB0593A2EB0E029A42CE4698467F
:1003A00002D306D14F4504D2B9EB050E63EB040826
:1003B000013886B1B7EB0E0362EB080707FA0CFCB5
:1003C000CB404CEA0303CF40C6E900379CE74046E8
:1003D000C7E74346DBE73146FDE6000037B505F0E9
:1003E000D1FD124C0146124805F027F82569A36893
:1003F00001A95B682046984720B92B6801985840AE
:10040000C0F3C02023691B689B0403D520B1A368F7
:100410001B6903E00028FAD0A368DB6803484FF4A7
:10042000005103B0BDE83040184700BF6C650000C4
:100430009C69000070B5254C204605F0EBFE28B9FC
:1004400021682348BDE8704004F0F7BF4FF48031C5
:10045000204804F073FF014630B122681E480B2388
:10046000BDE8704004F0E9BFA5680B21AE694FF00C
:10047000C0634FF0A0722046B047014618B1226811
:1004800016480B23ECE71649164B4B604FF40063FC
:100490008B60EB6913B1012220469847216812480E
:1004A0000B2204F0CAFF094805F0B4FE60B10F4802
:1004B0004FF4D01104F042FF002805DB00214FF477
:1004C000004004F0D3FCF9E770BD00BF6C6500008C
:1004D000B2690000C8670000D8690000016A000026
:1004E000D0060020DD030000376A0000D06700005E
:1004F0002DE9F04F8BB00646DDF850B0049314465A
:100500000F46B1B1B578059535BBAA46F37801938E
:1005100013B11BF0020F22D1BAF1000F1FD124B189
:100520003A463146204605F097FB38460BB0BDE809
:10053000F08F90F80190B578007805EB8005354490
:100540008A46CA45DED20135284605F075FB0130E2
:1005500005440AF1010AF4E70BF0010AD6E796F820
:1005600000904FEA8903039306EB8909002C5BD1C5
:10057000BAF1000F32D04D444D451DD1A946DDF8EA
:1005800004A0DFF804C281490BF005084D46CA44B7
:100590000BF00202AA45C8D015F8010B56F820004E
:1005A000604524D3884222D21BF0010F39D1B8F123
:1005B000000FEFD1013FEDE719F8013B56F823009A
:1005C00005F03AFB159B013033B1169B9C423EBFB0
:1005D000159B23F8140001340744CDE72DB11BF01F
:1005E0000404CCD0A9445446C9E72C46C7E7002AE6
:1005F000D0D04FF00009019205F01EFB159BDFF8EB
:1006000088C1019A6149013033B1169B9C423EBFBB
:10061000159B23F8140001340744B9F1000FB9D039
:10062000C5E74FF00109E6E7039A3146204605F099
:1006300013FB039BE3180293BAF1000F0AD049465B
:100640002A4606A805F008FB0023A370A944DDF89C
:1006500008800DE0BDB11BF0040F14D02A464946B6
:10066000029805F0F9FA029BA94403EB05085546E8
:10067000019B0BF0020E0BF001004A4609EB030C44
:100680000BF0040B25E00025A570E0E712F8013B14
:10069000DFF8F4A056F82310514503D3DFF8ECA09F
:1006A000514505D3BEF1000F03D108F8013B10E01E
:1006B00038B10DF1280A691C554405F8103CCDB23B
:1006C00007E0BBF1000F04D008F8013BA378013329
:1006D000A3709445DAD16378019A2B446370029B2E
:1006E000A8EB030BA378ABEB030B059B84F803B0DB
:1006F0001344FF1A039BFF1A019B40463A4609EB3D
:100700000301B84405F0A8FAA8EB0400002D3FF45B
:100710000DAF049B1C1AA54202D36FF01B0005E726
:100720004FF0000906AB159A13F8093056F823105C
:10073000C2B132F81970C24604F1FF3B0AF8013B1E
:1007400097B13A46504605F087FA09F101094D453F
:10075000ABEB07040AEB0708E4DC049B1F44A7EBA0
:100760000B00E3E6159FE6E7013901239C42D4D054
:1007700011F8012F08F80320581C12B91F1EE4DAE3
:10078000CBE70346F2E700BFFC640000E87000001E
:100790000B6801330B60014B1B68184700000020F9
:1007A000014B1860704700BF0000002007B50B46E2
:1007B000002102460191034801A900F0F9F803B0B5
:1007C0005DF804FB9107000030B585B0CDE901016B
:1007D0000446002501A90548039500F0E9F8DDE984
:1007E00002309842B8BF255405B030BD1554000002
:1007F0002DE9F84FB0F8189019F008080446934610
:100800000DD001290CBF49F0100949F02009A0F8CA
:1008100018908BF31188BFF36F8FBDE8F88F09F044
:100820000709022907D1204604F021FE0028F0D054
:100830000128238B4ED16769218B002F15DA25689B
:1008400021F00701C4E9008841F00101218300265D
:10085000218B01F0070ACA4502D0A368002B5AD1A8
:100860000DB9002E71D0002356E001F007035A1F86
:10087000012A1ED821F00701062B256889B2C4E998
:1008800000880AD13DB1638B2A46126801339BB2BE
:10089000002AFAD1638341F002012183204604F04B
:1008A000E6FD06460028D3D0238B43F020032383A4
:1008B000CDE7042B0CD121F0070189B2218320461A
:1008C00004F0D5FD05460028C1D041F02001218368
:1008D0000025BCE7032809D1226923F00703166825
:1008E00043F00603238300252F46B1E7042806D1F1
:1008F000226923F00703566843F00403F2E7052852
:1009000006D1226923F00703966843F00503E9E75F
:1009100000252E46E8E7012341F0080121838BF3EF
:100920001188BFF36F8FFBB985BB16B11F492046F5
:10093000B0474FF02003EFF3118B83F31288BFF31E
:100940006F8F238B23F008032383238BDA0625D5AF
:1009500023F0100323830121B4F8189009F007094C
:1009600000297FF45EAF54E7A1680029DCD0D1F8FC
:100970000090D1F804B03B4652462046D847B9F122
:10098000000FD1D04946D9F80090F2E729463B46FE
:10099000524620462D6804F086FDC5E713F020017D
:1009A0001EBF23F0200323830221D5E7D354000088
:1009B0002DE9F04F91B08B46029092461C460025DF
:1009C0009AF8000008B928465FE325280AF10107D4
:1009D00007D0029B594698470028C0F2568301353C
:1009E00012E2182200210AA805F041F99AF8013014
:1009F000252B78D000221046964694461646394656
:100A000017F8013B2B2B00F09D8000F29480202BE7
:100A100000F09B80232B00F09B802EB19DF830606E
:100A200046F004068DF83060BCF1000F05D09DF84B
:100A3000306046F008068DF83060BEF1000F05D03A
:100A40009DF8306046F010068DF8306028B19DF8B2
:100A5000300040F020008DF830002AB19DF83020A1
:100A600042F040028DF830209DF8302002F0440022
:100A7000442803D16FF386128DF830209DF8302082
:100A80002A2B42F080028DF830207BD19DF8312056
:100A900042F001024B1C8DF831201A782E2A9DF865
:100AA00031200CBF0121002161F341028DF831207A
:100AB00074D15A782A2A6AD0013300210A261846AE
:100AC00010F8012BA2F13007092F40F28E809DF81B
:100AD00030200E91C2F3400040EAD17161F341022F
:100AE0008DF830205AE00AF102078DF833309DF876
:100AF0003130D90740F1498154F8049BB9F1000F16
:100B000007DA9DF8302042F004028DF83020C9F158
:100B100000095A0740F1428154F8048BB8F1000FE4
:100B200080F241819DF831306FF341038DF831300F
:100B30004FF0FF3837E12D2B0CD0302B7FF46DAF09
:100B400001225CE74FF0010C59E74FF0010E56E728
:100B5000012054E7012652E70CFB0202303A3346EB
:100B60001E4616F8010BA0F13007092FF4D999425F
:100B700093D09DF830100D92D20F62F341018DF8A1
:100B800030108AE70B4600224FF00A0CE8E79DF888
:100B9000312042F004028DF8312002331F4617F84D
:100BA000012B6C2A41D025D8682A2BD06A2A46D03E
:100BB0004C2A4CD01F4617F8012B9DF831308DF888
:100BC0003320782A00F2D980572A4DD8412A03D001
:100BD000453A022A00F2D1809DF83230042262F3B5
:100BE00002038DF8323001239EE006FB01213039EB
:100BF000034664E7742A26D07A2ADBD19DF8313087
:100C000006220DE05A78682A9DF8312006D101218C
:100C100061F3C6028DF831209F1CCCE713460222F7
:100C200062F3C6038DF83130C5E75A786C2A9DF817
:100C3000312001D10421EBE713460322F0E79DF8B0
:100C400031300522ECE79DF831300722E8E7BDF8A6
:100C5000303023F4F04323F0020343F4804343F0A5
:100C60000203ADF83030A6E7A2F15801202900F2C6
:100C7000848001A050F821F03D0D00007B0D0000A4
:100C80007B0D00007B0D00007B0D00007B0D000044
:100C90007B0D00007B0D00007B0D0000D90B0000D8
:100CA0007B0D00003D0D0000FD0C0000D90B000085
:100CB000D90B0000D90B00007B0D0000FD0C0000DB
:100CC0007B0D00007B0D00007B0D00007B0D000004
:100CD000450D00003D0D0000610D00007B0D000082
:100CE0007B0D0000610D00007B0D00003D0D00003C
:100CF0007B0D00007B0D00003D0D00009DF83210C3
:100D0000012003F0780360F30201402B8DF83210CC
:100D100002BF9DF8301041F001018DF83010632AB8
:100D200031D1003B18BF01239DF83020C2F34001B0
:100D30000B4363F341028DF83020D8E69DF8321062
:100D40000220DEE79DF8322003F07803A3F1400093
:100D5000032161F3020243428DF832204341E3E76D
:100D60009DF83220032113F0780F61F302028DF811
:100D7000322014BF01230023D6E79DF8303043F022
:100D800001038DF830300023CEE79DF93020002A92
:100D9000B4BFDDF834904FF0FF39BAE69B077FF51A
:100DA000C7AEDDF838809DF831100023CDE90D3352
:100DB0009DF8323003F00703012BC1F3C30138D192
:100DC000CB1E042B22D8DFE803F003090921210000
:100DD00054F8043BDA17CDE90A3206E0073424F070
:100DE0000704F4E80223CDE90A239DF8303013F01C
:100DF000030656D002983B465246594604F032FC50
:100E00000028C0F242810544BA46D9E554F8043BB3
:100E100001294FEAE372CDE90A3205D19DF8283065
:100E20000A9300230B93E0E70229DED1BDF92830B5
:100E3000D0E7022B23D1CB1E042B13D8DFE803F01D
:100E4000030A0A12120022680A920023201D0B9343
:100E50000446CAE7E01D20F00700F0E80223CDE9D0
:100E60000A23F5E754F8043B0A9301294FF00003E5
:100E70000B93D3D00229B8D1BDF82830D0E7042B8A
:100E800009D1E31D23F0070303F10804D3E900238C
:100E9000CDE90A23A9E7032B04BF54F8043B0A93C6
:100EA000A3E79DF833007828AED8622822D82528F9
:100EB0003FF48FAD5828A7D10DF126030093DDE94B
:100EC0000A0104AB0CAA04F087FB8246B8F1000FBC
:100ED0000DF126000CDB9DF83020A0EB0A036FF328
:100EE000861298458DF8302002D9A8EB03030D93A4
:100EF00080463DE06338152886D801A252F820F0DC
:100F0000810F0000E50F0000090E0000090E00002F
:100F1000090E0000090E0000E50F0000090E000098
:100F2000090E0000090E0000090E00003F1000002D
:100F30000D10000011100000090E0000090E000045
:100F4000590F0000090E00000D100000090E0000EE
:100F5000090E00000D100000B8F1000FDDF828A008
:100F60000ADB4146504604F06EFE0AEB00080026FC
:100F7000BAF1000F0CD147E7504604F05DFEF4E7EC
:100F80000A9B8DF8103000260DF1100A0DF11108A2
:100F9000A8EB0A0306B101339DF83220D00668D5CC
:100FA000023352060D9948BF0E9A0B4448BF9B1856
:100FB000B9F1000F76DD9DF83020A9EB0309C2F3EB
:100FC0008003039353076DD4500661D546B1029B4D
:100FD000594630469847002857DB039B01351E468B
:100FE000302356E01E070FD413F0100618BF20263A
:100FF000DDE90A23002BBFF65FAF524263EB4303E8
:10100000CDE90A232D2657E72B26F1E7002653E7E3
:101010000A9840B30DF1260300930CAA04AB0021FB
:1010200004F0DAFABDF8323003F0EF0343F4F04392
:1010300043F010038246ADF83230002646E70A9BA3
:1010400007293FF6E1AEDFE801F00C04060C0808C2
:101050000C0C1D70D8E61D80D6E6EA17C3E90052D5
:10106000D2E61D60D0E6DFF8C8A006460AF1050802
:101070008EE7110748BF013393E71846039359469B
:10108000029B98470028039B04DA11B0BDE8F08F5B
:1010900020234D444A46002AA5EB090109F1FF39F6
:1010A000EBDC0D4636B1029B594630469847002886
:1010B000EBDB01359DF83230D90601D41A0706D58D
:1010C000029B5946302098470028DEDB01359DF809
:1010D0003230DB0607D59DF83300029B594698470E
:1010E0000028D2DB01350D9E2E44731B002B16DC2D
:1010F000029843465246594604F0B4FA0028C4DB2D
:101100000544A944A9EB0503002B7FF77DAE029BA4
:101110005946202098470028B7DB0135F2E7029BAB
:101120005946302098470028AFDB0135DDE700BF86
:10113000536A000030B51049104889B0002205F00C
:10114000ACF90F4D0F4900220023CDE906230024FE
:101150000E23CDE90334CDE901440B4B00944FF449
:101160004072284603F004FA0849284605F066F85C
:10117000204609B030BD00BF91110000F0040020EE
:1011800028050020400D0020B5130000596A00001A
:10119000014803F04BBB00BFE0000020014B53F8B7
:1011A00020007047D867000070B5124BBFF35B8F0B
:1011B00053E8005F6A1C43E800210029F8D1BFF31F
:1011C0005B8F2DB90C4C0D4E361B3611B54200DB32
:1011D00070BD237B53B123689B690BB120469847B0
:1011E000636804221968204600F092F90135103432
:1011F000ECE700BFE40600208C6700009C6700005D
:1012000010B5044C237813B9034803F00FFB0123F6
:10121000237010BD00090020E00000200C4BBFF33C
:101220005B8F53E8002F013243E800210029F8D1F9
:10123000BFF35B8F58B1BFF35B8F064B53E8002FB2
:10124000013A43E800210029F8D1BFF35B8F7047D2
:10125000E0060020DC0600200020064BBFF35B8F79
:10126000024653E8000F43E800210029F9D1BFF3FB
:101270005B8F7047E0060020F8B5FFF7EDFF0A4CE2
:101280000A4D2D1B07462D110026AE4200DBF8BD8E
:1012900063685B792BB123681B6913B1394620461B
:1012A000984701361034F0E78C6700009C67000017
:1012B0000149024804F0A1BAE4670000E8060020F2
:1012C000084A08B500231370074A1360074B084A01
:1012D0001A604FF4004000F0FBFABDE80840FFF749
:1012E000E7BF00BF01090020E00600200400002045
:1012F000A35A0000014600220148002304F09EBAD0
:10130000E8060020014804F02FBB00BFE8060020DB
:101310000146014804F074BBE8060020014804F0CF
:10132000A3BB00BFE80600201D4B1B782DE9F04150
:10133000054603B988B304F0BBFB064618B16DB18E
:101340003046FFF7E5FF2DB9164B1B68002B01DD7A
:10135000FFF792FFBDE8F041FFF7E0BF124BBFF38C
:101360005B8F53E8002F013A43E800210029F8D1B0
:10137000BFF35B8F0D4C0E4F3F1B3F11A846B84586
:10138000DEDA63685B7923B1236831461B68204647
:10139000984708F101081034F1E7BDE8F08100BF7B
:1013A00000090020E0060020DC0600208C67000019
:1013B0009C67000010B5FFF7F7FE03F071FD0C4BC2
:1013C000186030B10B4B1B68092B02DD0A4803F093
:1013D0002DFA094C0020FFF7A7FF0028FAD14FF0A3
:1013E000FF324FF0FF33204603F040FAF2E700BF30
:1013F00020070020DC060020E000002013B51D4B74
:10140000BFF35B8F53E8002F511C43E80010002806
:10141000F8D1BFF35B8F184B1B7883B14FF02003DB
:10142000EFF3118483F31288BFF36F8F0020FFF76F
:101430007BFF84F31188BFF36F8F02B010BD0F4B99
:101440001B68002BF9D052B900220023CDE90023FC
:101450000B484FF40042002303F012FFEDE70A2A85
:10146000EBD1074805F025F8064802B0BDE810406A
:1014700003F0DCB9DC060020010900202007002071
:10148000F0040020E0000020064B10B51B68044665
:1014900098472146A060044804F046FABDE8104091
:1014A000FFF7ACBF04000020E8060020F8B50E4F9F
:1014B0003D7875B90D4C0E4EFFF776FE361B361192
:1014C000B54207DB0020FFF72FFF0028FAD10123E8
:1014D0003B70F8BD63685B791BB1236820465B698C
:1014E000984701351034EBE7010900208C670000B4
:1014F0009C670000044A054B9B1AB1EBD30F34BF25
:1015000052F83100002070474C6700008C670000E3
:10151000054A4368801A00110130012218711960D0
:101520005A71FFF76DBE00BF8C6700000EB403B5A3
:1015300003AB014653F8042B04480193FFF738FA34
:1015400002B05DF804EB03B0704700BFF15A000031
:101550002DE9F0471D46089B1746DA0604460E465D
:1015600005D499064CBF2A492A49FFF7DFFFDFF867
:10157000A8904FF00008A8452ADBDFF8A080DFF82C
:10158000A090DFF894A00025BD422FD2725D49469D
:101590002046FFF7CBFF0135102D20D12149DFF880
:1015A0007880DFF884902046FFF7C0FF0025AF4227
:1015B00028D9725DA2F120035F2B28BF2E22494655
:1015C0002046FFF7B3FF0135102D14D1BDE8F08799
:1015D00049462046FFF7AAFF08F10108CBE76A0752
:1015E000D2D151462046FFF7A1FFCDE74146204624
:1015F000FFF79CFFCFE76B07D9D141462046FFF7A5
:1016000095FFD4E741462046FFF790FFDBE700BF98
:10161000666A0000656A0000706A00006E6A000079
:10162000686A0000726A0000746A00002DE9F04FD9
:1016300087B01C4601F0010305929DF84090BDF96A
:1016400048A004930746884601F0020B01F0080603
:1016500004F032FA0246002844D03A493846FFF7EF
:1016600065FF0546BBF1000F08D018F0440F3BD1D1
:10167000354922463846FFF759FF0544049B53B1CC
:10168000324B334953F82920324B3846002A08BFE1
:101690001A46FFF74BFF3EB12F4B304953F8292034
:1016A0003846FFF743FF0646BAF1000F16DB059BED
:1016B000002B45D0012303FA09F9294B294C19F0D5
:1016C000100F18BF1C4651469DF84400FFF712FF4B
:1016D000214602463846FFF729FF0644701907B035
:1016E000BDE8F08F0546BDE71F4B18680028C4D041
:1016F0001E4B4FF47A781B68B4FBF3F44FF461612E
:10170000B4FBF0F300FB134408FB04F44FF03C0C73
:10171000B3FBF1F201FB1231B4FBF0FEB1FBFCF3C1
:1017200000FB1E440CFB131108FB04F40091B4FBF6
:10173000F0F00F49CDE901E03846FFF7F7FE9CE7EE
:10174000084CC0E7856A0000896A0000F86700005D
:10175000AE6A0000776A00000C680000B16A000001
:10176000816A00007C6A000024070020280700200E
:10177000926A000038B50C46E107054603D5084AD1
:101780000849FFF7D3FEE20608D4A30628464CBF5B
:1017900005490649BDE83840FFF7C8BE38BD00BF5F
:1017A000776A0000AE6A0000666A0000656A0000A1
:1017B0002DE9FF470B8813F4E07F06460C46904660
:1017C000C3F382194DD00A784B68C2F3C202002BD2
:1017D00044D025495B1A43F3CF03CDE90123CDF86B
:1017E0000090A368002241463046FFF71FFF824663
:1017F000254655F8103BC3F3492353B11B4F1C48F2
:101800001C492B463246B9F1000F08BF384603F099
:10181000B4FD6788C7F3CB0797B12368C3F34923A7
:101820001D44102F3C4628BF10242946CDF80080C7
:10183000534622463046FFF78BFE3F1B2544F0D12E
:10184000B9F1000F04D04A4641463046FFF792FFF7
:10185000304604B0BDE8F04704F03DB94FF0FF3327
:10186000BBE7CA46C4E700BF4C670000275B000027
:10187000F15A0000B109000073B542F20F738B42B8
:1018800028BF0B4605680F4A04460521684603F049
:10189000E1FD63680C495B6806460B22284604F0AC
:1018A0000DF963683246694628465B6804F006F91C
:1018B000636806495B681B22284604F0FFF802B003
:1018C00070BD00BF22700000F36A0000D76A0000FC
:1018D000084A10B50123084C13600021A04204D827
:1018E00001B11360054B186010BD40085B00012179
:1018F000F4E700BF2807002040420F002407002023
:10190000014B01221A70704712090020014B002080
:101910001960704734070020024B034801221A70F7
:1019200004F0D9B813090020406800000148FFF70F
:10193000A3BF00BF40680000064B10B518680C46F6
:10194000FFF72CFC21460346BDE8104002480F2259
:10195000184700BF3407002040680000054B1B7883
:101960001BB141F2883004F094BDA420002103F0A3
:101970007DBA00BF130900202DE9F047DFF88C90F5
:10198000DFF88CA080460F46042499F80050CDB9AA
:101990004FF0FF334FF0FF32504602F08DFE3A46D3
:1019A0004146284602F0D2FB0646504602F0FCFEB5
:1019B000184DFEB101232B7099F800306BB93846F1
:1019C000BDE8F0873A464146002002F0BFFB0646DC
:1019D000EEE75CB92C704FF0FF34002002F002FCFF
:1019E0000028ECD02B78002BF3D1E8E7013CFFF77F
:1019F000B5FFF2E72B7813B1013C04D12C702B78A2
:101A0000002BC2D1DBE7FFF7A9FFF8E7130900209D
:101A1000CC000020120900202DE9F84305464FF0C4
:101A20002003EFF3118683F31288BFF36F8F0E4B01
:101A30001C689CB10D4FDFF838804FF00C09D4E9D9
:101A40000132002D08BF13462BB198F8142009FB72
:101A500002F2B85C98472468002CF0D186F3118814
:101A6000BFF36F8FBDE8F883440700204C070020C8
:101A7000C80800204209012300F01F0003FA00F00B
:101A8000074BBFF35B8FC04303EB820353E8002F88
:101A9000024043E800210029F8D1BFF35B8F704773
:101AA0005807002038B51A4B1C7DBFF35B8F04F03C
:101AB0001F0301229A40174B6109D04303EB8103B6
:101AC00053E8001F01EA000543E8005CBCF1000F89
:101AD000F6D1BFF35B8F114213D00F4B0F4D8BB17B
:101AE0000C236343EA18E85C517804F0D8F800202E
:101AF000FFF792FF0C235C432A1900232B51C2E904
:101B0000013338BD83F31188BFF36F8FEFE700BF58
:101B1000C80800205C0700209F5C00004C070020E4
:101B20002DE9F843324B334A1C7DBFF35B8F6309C9
:101B30004FEA830952F823302F4EBFF35B8F04F036
:101B40001F0843FA08F313F0010F07460AD10146B4
:101B5000204600F069F828B107C80C2303FB046392
:101B600083E807000C236343F218F55C2DB9204687
:101B7000FFF780FF2846BDE8F8837B1C0FD0D2F822
:101B800008C01E481E4A4FF4004500210023ECFB0C
:101B90000501FEF7B5FA0121381A04F05CFC02F0E9
:101BA000E5FE0120FFF738FFBFF35B8F012303FA47
:101BB00008F8144B994459E8003F43EA080349E800
:101BC0000032002AF7D1BFF35B8F0F4B33B10C23E8
:101BD0006343F218F05C517804F055F8FFF762FFA8
:101BE0002046FFF747FF03F091F80120C3E700BF4D
:101BF000C8080020580700204C0700203F420F0073
:101C000040420F005C070020875C0000054BBFF3DB
:101C10005B8F53F82000BFF35B8F003818BF0120A3
:101C2000704700BF600700202DE9F04F85B00F46D8
:101C300003A900F047F8DFF88080DFF880A0441E99
:101C400024B24FF0000B631C04D10026304605B0CF
:101C5000BDE8F08F039A04EB440302EB830612F80D
:101C60002300FFF7D3FF054610BB70684FF400490F
:101C7000C4462946E0FB09C152465B466046FEF772
:101C80003FFA0190B068C4462946E0FB09C15B46B3
:101C900052466046FEF734FA094B1B68591C01D0C6
:101CA000834205D97A1CD1D0019B1844B842CDD9C2
:101CB000013C24B2C7E700BF3F420F0040420F0083
:101CC0000800002008B9024B0B600020704700BFDD
:101CD00050680000014910220A60704710ED00E0D2
:101CE00072B6404080F31188BFF36F8FBFF34F8F00
:101CF00030BF62B6BFF36F8F704700BF72B6494006
:101D000081F3118820BF80F3118862B6704700BF4D
:101D10002DE9F047814600AF0C4600294CD06E46B5
:101D20008AB06D46D1E90012A3682748A8464FF053
:101D3000050AC5E90501C5E9072348F810AF23489E
:101D4000424600234FF4215103F015FFD4E903125A
:101D500063691F48C5F810A0B546C5E90501AD4641
:101D6000C5E907231948424600234FF4215103F0E7
:101D700002FFB54688B06D46E369164AA8464FF0A3
:101D8000030AC5E9052348F810AF1048424600236E
:101D90004FF4C25103F0EFFE0F4AA369C5F810A03B
:101DA000B546C5E90523AD460848002342464FF431
:101DB000C25103F0E0FEB5462146484602F03CFA27
:101DC000BD46BDE8F08700BF126B00006C670000E5
:101DD000416B0000706B00007F6B000043B2002B72
:101DE00008DB012200F01F0002FA00F05B09024A42
:101DF00042F82300704700BF00E100E0054B4209B4
:101E000000F01F0053F82220012303FA00F01040D5
:101E1000704700BF00E100E043B2002BA8BF03F110
:101E2000604301F10101B8BF064B4FEA4111ACBF5D
:101E300003F5614300F00F00C9B2B4BF195483F831
:101E40000013704714ED00E030BFFFF7FDBF00BF87
:101E50000B4A08B50B4B22F07F029A60BFF34F8FFD
:101E6000BFF36F8FD3F8882022F47002C3F8882064
:101E700002F07AFA03F06CF800F0B8FB02F0B8FA5E
:101E80000000000000ED00E0094A0A499368096873
:101E90009967094958674B6843F080534B600023AA
:101EA00083F31188BFF36F8F9368986F704700BFFB
:101EB000C80800208469000000ED00E012498A682B
:101EC0004FF030001044EFF3098C80E8F01F202021
:101ED00080F31288BFF36F8F0C4F4FF00066CA6912
:101EE0008A603E60506F0023536780F3118804B509
:101EF000104600F017FCBDE8044002F1300090E805
:101F0000F01F8CF309887047C808002004ED00E03A
:101F10001EF0040F0CBFEFF30880EFF30980816916
:101F200011F8021C0229FFD001B503F069FE01BDC2
:101F300042F8203C009B42F81C3C0A49019B42F8B5
:101F4000183C029B42F8143C21F001014FF08073D1
:101F500042F8043C42F8081C0023203A026543671B
:101F6000704700BFC5550000094A0346906870B12C
:101F700013F1160F406E05D0A0F120029A4205D849
:101F8000834203D2814228BF00207047002070475F
:101F9000C808002008B5094B98600D46144600F0AB
:101FA000C1FB204685F30988002163B681F31188BF
:101FB000BFF36F8F0022002303F004FBC80800204A
:101FC00001B572B60B4A906900281EBF00219161CD
:101FD00004F039F962B6EFF30580A0F110004FEA82
:101FE000C0000549014409C99847BDE801400349BB
:101FF00008470000C8080020CC6500000120000050
:10200000044B9968D869884203D003494FF0805245
:102010000A607047C808002004ED00E02DE9F04197
:1020200086B000AF3F4B7B6106460D463E484FF4FD
:102030008251022407F110023C6103F0F0FD3B4B9A
:102040009B6AD90409D53A4B374807F110024FF47F
:102050008251C7E9044303F0E2FD344B9B6A1A0541
:102060000AD5344B7B613048022307F110024FF44C
:1020700082513B6103F0D3FD2C4CA36A9B0522D512
:102080002D4B29487B6107F1100202234FF4825146
:102090003B6103F0C4FDA36BA26A1004E84612D5AD
:1020A00088B0264920486A46C2E90513032342F84E
:1020B000103F4FF4C25103F0B2FDC5461EB1A36AF2
:1020C00023F40043A362194B9B6A59050AD51C4BA4
:1020D0007B611548022307F110024FF482513B61E6
:1020E00003F09DFD114B9A6AD20515D5154B7B6106
:1020F0000D48022307F110024FF482513B6103F0B7
:102100008EFD0A4A936A002043F47F431837936296
:102110002870BD46BDE8F0819B6A9B04F1D50A4B4F
:10212000E5E700BFAD6B00006C67000000ED00E06C
:10213000C36B0000D46B0000E76B0000006C000074
:10214000156C0000306C0000486C000010B586B0C3
:10215000334B34480593022404AA4FF4825104946B
:1021600003F05DFD304B9B6A9B0108D52F4B2D483A
:1021700004AA4FF48251CDE9044303F050FD2A4BE9
:102180009B6ADC0109D52A4B05932648022304AA41
:102190004FF48251049303F042FD234B9B6A1803D2
:1021A00009D5244B05931F48022304AA4FF48251FA
:1021B000049303F034FD1C4B9B6A590309D51E4B55
:1021C00005931848022304AA4FF48251049303F0A4
:1021D00026FD154B9B6A9A0309D5184B05931148A8
:1021E000022304AA4FF48251049303F018FD0E4B0E
:1021F0009B6ADB0309D5124B05930A48022304AA04
:102200004FF48251049303F00AFD074A936A6FEA80
:1022100003436FEA13430020936206B010BD00BF72
:10222000776C00006C67000000ED00E08F6C000030
:10223000A26C0000BC6C0000DA6C0000FF6C0000B7
:10224000196D00002DE9F04786B000AF504B7B615F
:10225000064688464F481446022507F110024FF4FF
:1022600082513D6103F0DBFC4B4B9B6AD80609D5DC
:102270004A4B484807F110024FF48251C7E9045312
:1022800003F0CDFC444B9B6A19070AD5444B7B6194
:102290004048022307F110024FF482513B6103F0E2
:1022A000BEFCDFF8F4A0DAF828309A0739D46FF0D2
:1022B0001505394B9B6AD8070AD53A4B7B613548DF
:1022C000022307F110024FF482513B6103F0A7FC97
:1022D000314B9B6A99060AD5334B7B612D4802230B
:1022E00007F110024FF482513B6103F098FC2A4B36
:1022F0009A6AD2063FD49A6A90073CD40020264BB3
:102300009A6A920642BF5A6A22F400525A629A6A44
:1023100042F0FF029A62183700232370BD46BDE8E1
:10232000F087224B7B611B48022307F110024FF418
:1023300082513B6103F073FCDAF83450DAF828304C
:102340001B06E946B3D588B0194B12486A46C2E964
:102350000535032342F8103F4FF4C25103F05FFCF0
:10236000CD46B8F1000FA4D0DAF8283023F080036E
:10237000CAF828309DE75B681905BFD53146284665
:10238000FFF7F2FD0028B9D080F309880220B6E7F4
:10239000446D00006C67000000ED00E05A6D000025
:1023A000D46B0000BB6D0000486C00008D6D000018
:1023B000A56D00002DE9F04F764B8BB0D3F804806B
:1023C00000AF0D46C8F30804002686F31188BFF35A
:1023D0006F8F02F07F43B3F17F4F0ED102F00C03F9
:1023E000082B0CD16C4BFB616C48022307F11802DF
:1023F0004FF48251BB6103F012FC354603E0120733
:1024000001D4054601260023FB71E31E092B00F2CF
:10241000A180DFE803F0059497919F9F9F9F9F9A6B
:10242000DFF870815E4B5D48FB614FF0020A07F1F7
:1024300018024FF48251C7F818A003F0F0FBD8F847
:102440002C404FF0000B14EA0A04E94687F807B065
:102450000BD0544BC7E906A3504807F118024FF4BC
:10246000825103F0DCFB00240DE0D8F82C30002B67
:1024700025DA4D4B494807F118024FF48251C7E95C
:1024800006A303F0CCFBFB79ABB92022294607F168
:10249000080003F0E1FB7B6A002E76D0C3F308024C
:1024A00022B96FEA53236FEA43237B6207F10801E5
:1024B0002046FFF72DFC2C37BD46BDE8F08FD8F83D
:1024C0002C305B00DFD5394B344807F118024FF44C
:1024D0008251C7E906A303F0A2FBAB6933F8022CD3
:1024E0004DF602739A4209D098F82830BBB1FA1D14
:1024F00001212846FFF7A6FE0446C4E788B02B68F2
:102500002B4926486A46C2E90513032342F8103FC7
:102510004FF4C25103F083FBCD462C68B3E798F823
:10252000293023B1F91D0120FFF778FDE4E7B8F861
:102530002A309BB2002BA6D0FFF708FEDCE7FA1D7D
:102540000021D6E7F91D0020EEE71A4BFB610223BC
:10255000BB6181E7184A194B1949104818F4F87FF4
:10256000E8468AB018BF13466A46C2E9051302233B
:1025700082F82030103C134BD4614FF4095142F8DB
:10258000103F03F04CFBC5466DE723F4FF7323F0C7
:1025900001038AE700ED00E0086E00006C670000B0
:1025A000336E00004A6E00006B6E0000796E000012
:1025B000986E0000B46E0000EF6D0000DA6D000050
:1025C000D86E000004000001024A536943F0100372
:1025D0005361704700ED00E0EFF30880EFF30981ED
:1025E00001B57246FFF7E6FE01BD00BF04480023B7
:1025F0002021C2180133302B82F80013F9D1704723
:1026000000E100E0002080F31488BFF36F8F03F037
:102610006FFF00200D490860BFF34F8F0C4880F317
:10262000088800F02BF8202080F3118809484FF427
:102630000261401880F30988EFF3148002210843F7
:1026400080F31488BFF36F8FFFF702FC94ED00E076
:1026500060140020E01500200749D1F890200023E5
:10266000C2F307221846934200D17047C1F8983050
:10267000C1F8A0000133F6E700ED00E008B572B63E
:10268000002383F31388FFF7E7FF144B4FF0FF326B
:10269000C3F88020C3F88420C3F88820C3F88C20B6
:1026A000C3F89020C3F89420C3F89820C3F89C2066
:1026B000C3F88021C3F88421C3F88821C3F88C2192
:1026C000C3F89021C3F89421C3F89821C3F89C2142
:1026D00062B6BFF34F8FBFF36F8F08BD00E100E01C
:1026E000084B9B6883420BD1EFF3058343B1064B44
:1026F0005A6842F080525A605A6A22F400425A6282
:1027000002F0D4BBC808002000ED00E0024B034AF1
:102710000348012100F090B80000022000000020D2
:1027200050680000426E054B203A1A60044A20218E
:10273000C3E901121846012100F088B87C07002087
:1027400000000B15F8B5DFF8B4C000AF00258D42CE
:102750001ADA4468002C4DD0FBB104F1FF3E14EAB4
:102760000E0F14D0264B6C4688B06A46C2E9053578
:10277000032342F8103F234800234FF4C25103F0D3
:10278000FAF96FF01502A5461046BD46F8BD1F2C9C
:10279000E8D906681EEA060FE4D1202C0668D0F8B6
:1027A00008E0D2B214D9B4F1004F13D8013CB4FA06
:1027B00084F4C4F11F046400072A4EEA04040BD910
:1027C00011496C4688B06B46C3E905121A46CFE73B
:1027D0000824F1E73E24EFE726F01F06164346F0F3
:1027E000100644F00104CCF89820CCF89C6001322B
:1027F000CCF8A04001350C30A9E700BF00ED00E0A7
:10280000EF6E000064670000126F0000044B0522A9
:10281000C3F89420BFF34F8FBFF36F8F704700BF93
:1028200000ED00E0BFF35F8F024B0022C3F894205D
:10283000704700BF00ED00E010B5034C0123227883
:10284000FFF780FF207010BD1409002008B5094A69
:1028500000231278FFF776FF10F1160F03D0064B16
:102860000022072800DD08BDC3F89800C3F8A020A7
:102870000130F6E71409002000ED00E01449086873
:10288000082810B521D8FFF7CDFF124C4968002267
:10289000904201F10C0105D10F4B1870FFF7B6FF04
:1028A000002010BDC4F8982051F80C3C23F01F0301
:1028B000134343F01003C4F89C3051F8043C43F038
:1028C0000103C4F8A0300132E2E74FF0FF30E8E73F
:1028D0005C68000000ED00E014090020014B186066
:1028E000704700BF0C0000204FF02002EFF311836F
:1028F00082F31288BFF36F8F044A0121C2F840159A
:1029000083F31188BFF36F8F0020704700E0014010
:102910004FF08043C0B2C3F81C05BFF34F8F054989
:10292000054BCA6802F4E0621343CB60BFF34F8FDC
:1029300000BFFDE700ED00E00400FA0520B1034B05
:10294000800143F001031847704700BFC0670000D3
:10295000084B70B5C31A0D4607499B1004465943EE
:102960000648402203F0BDF92B4601462046BDE84B
:102970007040184798070020B76DDBB6546500001B
:1029800073B50C4C0C4A4023041B00930D460B46B8
:102990000A49A41061430646094803F0CFF9011E15
:1029A00005DA30462B4602B0BDE87040184702B049
:1029B00070BD00BF98070020AB5D0000B76DDBB6AF
:1029C00054650000002270B5012104461046FFF74F
:1029D00023FA0F4800F0E2FF0E4B984215D103F0A6
:1029E0006FFB26690C49304602F090FD00280BDB96
:1029F000246909490125356404F11C0002F086FDB3
:102A0000002801DBE564002070BD6FF00400FBE7E7
:102A1000512A00000000AD0BAC68000001460C23F9
:102A200009484B4370B5C418D4E90E560022403310
:102A3000A263184403F042F92DB132462B460348F5
:102A4000BDE87040184770BD98070020546500002D
:102A500010B1012804D07047034B1B6C5B0701D1F8
:102A6000FFF7DCBF704700BF9807002008B54FF0A4
:102A70002003EFF3118183F31288BFF36F8F124AA3
:102A8000136843F0020013F0010310600CD04FF004
:102A90008042D2F80C34D2F80C2413F0010303D096
:102AA0000A4803F00BF9012381F31188BFF36F8FFC
:102AB00023B1BDE808400020FFF7B0BFBDE80840E3
:102AC000012003F00ABB00BFE8070020D807002060
:102AD0001FB500220123CDE90223094ACDF800D019
:102AE0006B46CDF804D003F059F9002805DB4FF40C
:102AF00080420023684601F0B9FE05B05DF804FB92
:102B0000C95D0000094BBFF35B8F53E8002F22F033
:102B1000020143E800100028F7D1BFF35B8FD30711
:102B200002D4012003F016BB704700BFE807002065
:102B30002DE9F0413949BFF35B8F0746012251E887
:102B4000003F41E800200028F9D1BFF35B8F33B983
:102B5000334934484B60CB608A6002F0EAFC7B1E4C
:102B6000012B2FD8012F07D14FF08043D3F81C340D
:102B700003F00303012B25D003F05AFB044618B9D8
:102B8000294B1B78002B41D14FF02003EFF3118626
:102B900083F31288BFF36F8F0124DFF890804FF02A
:102BA0008045D5F81834D5F81824D2030CD503F095
:102BB0000303012B01D0012F06D10CB386F311883A
:102BC000BFF36F8FBDE8F081ACB13046FFF796F8E8
:102BD000D5F81835002BE4D1D5F80421002AE0D02F
:102BE000C5F80431D5F804310123C5F81835C8F803
:102BF0008031AB60D5E70021212002F037F9E7E70B
:102C00004FF080430222C3F80423DBE74FF08043F8
:102C10000222C3F808230646BFE700BFEC070020E6
:102C200088070020B4070020250D002000E100E007
:102C300008B5084B0848186003F0ECFA38B10748AB
:102C4000FFF74CFE0548FDF7ABFD002008BD6FF017
:102C50001200FBE7F0070020B4650000612C0000C3
:102C60000A2838B5074D044604D1286883680D2129
:102C70005B68984728688368E1B25B68984720469C
:102C800038BD00BFF007002030B54068047B01F07C
:102C90001F05B2F5001F45EA441585B04FF000044A
:102CA00004D1284601F0FAF8002032E0B2F5800F96
:102CB000CDE902442FD1B3F1007F0CBF04230523DB
:102CC0008DF80830836823FA01F1C9072FD4B2F1D7
:102CD000A07F2CD16A09012A05F01F031C4A03F5C5
:102CE000E07318BF4FF0A04252F82330DB071ED428
:102CF0000DF107042146284601F034F8154B98429F
:102D000014D1204601F07CF8134B98420ED06FF09E
:102D10000B0005B030BDB3F1C06F05D0B3F1007F3B
:102D20000CBF02230123CBE70323C9E7039400234D
:102D3000194602AA284600F0EFFE074B984204D13C
:102D40000121284601F062F8AEE76FF00400E0E7E9
:102D5000000300500400AD0B0000AD0B10B501F0F6
:102D60003FF8044668B901F013F8084B98420AD1BD
:102D70000748214600F0F0FF224605210620FFF714
:102D80004BF8002010BD6FF00400FBE70000AD0B16
:102D9000952D0000420970B5034602D0012A15D0D6
:102DA00070BD0B4E326951680029F9D003F01F0342
:102DB00001250C689D408A682A4002D04B68304645
:102DC0009847002CECD021462468F4E7014EE9E74F
:102DD0006C650000846500002DE9F04347683B7B8B
:102DE00001F01F0585B00E4645EA43151446CAB9E1
:102DF00002A9284600F0B6FF0446284601F076F8FE
:102E00004A4B984204D06FF0040005B0BDE8F0834F
:102E1000844205D19DF8080000F0ECFFA042F2D1F9
:102E20000020F2E74FF000090DF103013046CDE933
:102E3000029900F097FF4B46804602AA4946284671
:102E400000F06AFE394B984202D06FF01500DCE7C3
:102E5000804503D19DF8030000F0CCFFA30351D5BA
:102E600040F20663234040F2062293423BD00CD846
:102E7000062B15D004D89BB1022BE6D104230FE01A
:102E8000B3F5007FE1D101230AE040F20242934210
:102E90002BD0B3F5C06F2AD0B3F5806FD5D1022304
:102EA0008DF8043084F48033C3F30043E0068DF8DA
:102EB000053054BFC4F34013032321038DF80630BB
:102EC00017D57B68012101FA06F6C3F808650022D0
:102ED00001A9284600F0CEFE144B984214BF6FF0B3
:102EE0001500002091E70723DAE70523D8E703233D
:102EF000D6E7620341BF7B68012101FA06F6C3F8F9
:102F00000C65E4E7E3064FF0000354BFC4F340143C
:102F100003241A4601A928468DF8044000F0FCFD60
:102F2000024B98423FF47CAF8FE700BF0000AD0B2F
:102F3000F0B54B79012B28D0032B23D110278B79A7
:102F4000032B1FD1CD790DB1012D1BD10A79012A97
:102F50001DD0022A1FD0AAB914460B684668B3F5E3
:102F6000164F36686ED033D8B3F5165F6DD01CD8C7
:102F7000B3F5966F6BD010D8B3F5967F6AD0B3F5E2
:102F8000167F6AD06FF085005BE00027D7E74FF42B
:102F900080740E22E1E70024FBE7B3F5166F5FD0E3
:102FA000B3F5965FEED1394B3EE0B3F5E14F5AD021
:102FB00007D8B3F5615F58D0B3F5964FE2D1344BE3
:102FC00032E047F6122C6345DCD14FF400032BE0CE
:102FD000B3F5613F4BD013D8B3F5963F4AD009D82B
:102FE0004DF6C02C634547D0B3F5614FCAD14FF4BD
:102FF0006B0319E0B3F5E13FC4D14FF0EB7313E07D
:10300000B3F5612F3BD009D8DFF888C0634539D0CC
:10301000B3F5E12FB6D14FF0E86305E0DFF878C0F3
:103020006345AFD14FF080530069C6F82435031DC6
:1030300003C92C433A432243C6F86C2583E80300B6
:103040000020F0BD4FF41D03EEE7144BECE74FF406
:103050009E23E9E74FF4A033E6E74FF41C33E3E7A0
:103060004FF41D23E0E70E4BDEE70E4BDCE74FF09D
:103070006C73D9E70C4BD7E74FF46503D4E74FF0F7
:103080007063D1E74FF08063CEE700BF00B013005C
:1030900000A04E0090D0030040420F0000502700D7
:1030A00000C0750000F03A0000903A012DE9F043AD
:1030B000D0F804800669D8F80040D8F80C9087B0A2
:1030C0000021C4F80015074630606A46484602F001
:1030D0005DFF051E26DB009BD9F8002019791868D2
:1030E00002F06CFF051E1DDB311D3846FFF720FF87
:1030F0000546B8B9D8F8043099072AD506F1120068
:1031000000F0EEFF284B984210D0284B0593022385
:10311000049327482B4604AA4FF482516FF004050C
:1031200002F029FD284607B0BDE8F083B07CC3005B
:1031300003F1804303F5F83304F10C0204F59071B8
:10314000C3F81015C3F814251A4A01238340C2F8A6
:1031500004350823C4F8003598F808305BB9C4F882
:103160001031D4F8103106F11103C4F834350123BD
:10317000C4F838352360D8F804309A075CBF4FF4A0
:103180008072C4F80423DB0644BF4FF48003C4F804
:10319000043310360023C4F84465C4F848350123CD
:1031A000A360E360BEE700BF0000AD0B796F0000D5
:1031B0008467000000F00140F8B5066905460F4637
:1031C00003F036F810B92C4B1B7883B94FF020036D
:1031D000EFF3118483F31288BFF36F8F686802F0F6
:1031E00069FE28BB84F31188BFF36F8FEEE7642478
:1031F000686802F05FFE70B9012002F014FF013C24
:10320000F6D10021212001F031FEF0E784F311888E
:10321000BFF36F8FF5E74FF02003EFF3118483F3D3
:103220001288BFF36F8F686802F044FE0028EDD06B
:1032300006F8107F69680B680122C3F84465C3F87B
:1032400048250022C3F82021D3F82001C3F85821D3
:10325000D3F858214A68D20641BF0822C3F8002596
:103260004FF48002C3F8042301229A6084F311888A
:10327000BFF36F8FF8BD00BF250D002010B50123EF
:103280008340114ABFF35B8FDC4352E8001F01EA21
:10329000040C42E800CEBEF1000FF6D1BFF35B8F05
:1032A0004FF4803202FA00F002F1804202F58052BF
:1032B000C2F80803BFF35F8FBFF36F8F0B4214BFD9
:1032C0000120002010BD00BF100800201949F8B5EA
:1032D000044622F07F450868C1E90023A5F50013E4
:1032E000101AB3F5400F22D2134B1B681A0A1B06A3
:1032F0005E19124B42F10007C3E90067012601F095
:1033000005FFA30003F1804303F58833D3F840257C
:10331000AA420BD11EB94FF40002C3F84025084B56
:103320004FF4803000FA04F4C3F84443F8BD00269B
:10333000E5E700BFC005002014080020A805002014
:103340000010014019B3BFF35B8F0123104A834083
:1033500052E8001F194342E8001CBCF1000FF7D1EE
:10336000BFF35B8F0B4A4FF480338340C2F80433C2
:10337000094BBFF35B8F1B68BFF35B8F23FA00F031
:10338000C30742BF054B4FF40032C3F8002170471A
:1033900010080020001001400C08002000E100E0AF
:1033A0000D4B1868010A0006BFF35F8F0B4BD3F873
:1033B0000435181841F10001B3F5801F0AD2084BFB
:1033C000D3E90023904271EB030303D210F1807024
:1033D00041F10001704700BF1408002000100140B7
:1033E000A80500202DE9F04F85B016469846054601
:1033F000FFF744FF0090FFF7D3FFB04271EB0803E3
:1034000078D2464B301A68EB0101984271F1000303
:1034100080F08180424B03EB0513D3E902ABD84522
:1034200008BF564551D04FEA850909F1804905F199
:10343000500709F58839BF004FF4803101FA05F3D0
:10344000BFB226F07F4207F180470193D9F84005CB
:10345000344B07F588371446D3F80415401A20F08A
:103460007F4021F07F4C0128C9F840C507D1CDE944
:103470000221132003F00DF8DDE90221294B01F1AF
:10348000020CA4EB0C0020F07F40B0F5000F88BFC9
:1034900064460020386038680198C3F8440324F07B
:1034A0007F40C9F84005D3F80405814206D0201AB0
:1034B000023820F07F40B0F5000F19D8A41A24F08C
:1034C0007F4414EB060A48F1000B15490E982B01B6
:1034D00001EB0512C2E902ABC8500F9B53600024F8
:1034E00028460099FFF72EFF204605B0BDE8F08F73
:1034F0002046B1E701230C4ABFF35B8FAB4052E893
:10350000001F194342E800100028F8D1BFF35B8F79
:10351000B246C346D9E76FF01504E1E701000001A8
:10352000B0050020001001400C08002073B5194BB5
:10353000194D00244FF0FF304FF0FF31C5F808451A
:10354000C3E902014FF48033C5F80433134B02265C
:103550004FF400320121C5F804631120C3F8802123
:103560002246FEF759FC1120FEF738FC0C4A0123D5
:10357000AB602B6013600B4B0B4A0093019400234C
:103580002046FFF72FFF3046FFF7D2FA204602B061
:1035900070BD00BFB00500200010014000E100E058
:1035A00010080020CD320000FFFF7F002DE9F74317
:1035B000354CD4F804339A070BD5D4F8043143B111
:1035C000324A0023C4F80431D4F8043113680133BB
:1035D00013604FF02003EFF3118283F31288BFF3DF
:1035E0006F8FD4F80433DB0312D5BFF35B8F284B06
:1035F00053E8001F21F0010043E80006002EF7D138
:10360000BFF35B8F002936D1D4F84031002B32D183
:10361000002382F31188BFF36F8F4BB3FFF7C0FE17
:103620004FF02003EFF3118C83F31288BFF36F8FF9
:10363000184BD3E90267B04271EB07024FF000026A
:1036400020D34FF0FF384FF0FF39D3E90015C3E91D
:1036500002891A604FF48033C4F848338CF3118820
:10366000BFF36F8F21B1009532463B46002088475B
:1036700003B0BDE8F0830023C4F84031D4F84031F2
:103680000123C6E71146E9E70010014014080020B5
:103690000C080020B0050020431C13B521D00128E0
:1036A00021DDB0F5000F20DA441EFFF779FE104B44
:1036B000D3E90013401AB0F5000F28BF00240130F1
:1036C00002190C48824228BF024652184FF00000EF
:1036D00009490190009143F10003FFF783FE02B016
:1036E00010BD0448E0E70024DFE7024CDDE700BF3F
:1036F000C0050020FFFF7F00CD32000008B5FFF7B6
:103700004FFE024B1B68C01A08BD00BFC005002059
:1037100000F48053002B30B507BF14460D4601243A
:103720000025C0F3811200F01F0110F0200F00F4FB
:10373000706040EA8202064B42EA050208BF4FF081
:10374000A04301F5E07142EA440243F8212030BD74
:103750000003005000F01F0140090128044B4FF006
:10376000010218BF4FF0A0438A40C3F808257047F4
:10377000000300507FB5FDF799FE074B0593022328
:1037800004930648002304AA4FF4825102F0F3F98F
:103790000020FFF7BDF800BFB66F000054670000BF
:1037A000024AD2F80034002BFBD0704700E0014001
:1037B0004FF0805310B5D3F830210D2A55D14FF07A
:1037C00080410022C1F80C21C1F81021C1F8382530
:1037D000484AD3F80404C2F82005D3F80804C2F814
:1037E0002405D3F80C04C2F82805D3F81004C2F855
:1037F0002C05D3F81404C2F83005D3F81804C2F825
:103800003405D3F81C04C2F84005D3F82004C2F8EC
:103810004405D3F82404C2F84805D3F82804C2F8B4
:103820004C05D3F82C04C2F85005D3F83004C2F884
:103830005405D3F83404C2F86005D3F83804C2F84C
:103840006405D3F83C04C2F86805D3F84004C2F814
:103850006C05D3F84434C2F87035D1F80034DB0776
:1038600009D56FF00103C1F800344FF08053D3F84D
:1038700030310D2B0CD14FF08053D3F834313BB1A4
:103880004FF01023D3F808224FF08043C3F8582597
:103890004FF01023D3F80022002A03DBD3F80432C0
:1038A000002B22DA144901234FF01020C1F804350F
:1038B0001224FFF775FFC0F80042FFF771FFC0F850
:1038C0000442FFF76DFF0023C1F80435FFF768FFDE
:1038D000BFF34F8F09490A4BCA6802F4E0621343F1
:1038E000CB60BFF34F8F00BFFDE7064B064A1A605F
:1038F00010BD00BF00C0004000E0014000ED00E04E
:103900000400FA05380000200090D00370B50125AE
:103910000268B2FA82F3C3F11F035E1CDCB214D05A
:10392000BFF35B8F05FA03F322EA030350E8006F4D
:10393000964204D140E8003CBCF1000FF6D1BFF341
:103940005B8FE5D102480C7070BD0248FCE700BFF8
:103950000000AD0B0200AD0B0368CB40DB0710B5D8
:1039600015D4012303FA01F10368BFF35B8F41EA29
:10397000030250E8004F9C4204D140E8002CBCF107
:10398000000FF6D1BFF35B8FEED1024810BD0248A5
:10399000FCE700BF0000AD0B0400AD0B044B1A792F
:1039A00022B9012218601A71024870470248704714
:1039B000180800200000AD0B0C00AD0B4FF0804349
:1039C00010B5D3F8002152B10020C3F80001D3F89C
:1039D00000210122C3F80823104B1B6898474FF0C1
:1039E0008043D3F8042172B10022C3F80421D3F834
:1039F0000421D3F81824D3F81814920704D1012213
:103A0000C3F818259A6010BD0222C3F80823034B9F
:103A1000BDE810401B680120184700BF18080020AF
:103A2000036803F01F025B09012B0260024818BF04
:103A30004FF0A040704700BF00030050034B083018
:103A400033F81000C0F34010704700BF3C00002066
:103A500070B500F108030C4C34F81330DA05054654
:103A60000E4607D5C3F3432304EBC30254F83330A7
:103A700052689847A3682BB1E26831462846BDE8F2
:103A80007040184770BD00BF3C000020124A08304B
:103A900010B432F81030D9051BD5C3F3432123F4F9
:103AA000F85322F8103002F11004002034F8023BE1
:103AB00013F4807F03D0C3F34323994209D001302C
:103AC0002A28F3D1002342F83130044810BCFFF714
:103AD00043BF10BC704700BF3C000020A400002082
:103AE00038B50246FFF7AAFF094C02F1080540B1BC
:103AF00034F8153007495B0B03F5A273002041F839
:103B000023001046FFF7C2FF002324F8153038BD0C
:103B10003C000020006000402DE9FF4104461746AC
:103B20001D4621B34E4E00F1080836F818309B07A9
:103B300006D5FFF783FF18B14A4804B0BDE8F0810D
:103B40000023CDE900338DF80E308DF80F300DF1E4
:103B50000F020B4620460DF10E0102F0FDFA36F879
:103B6000183023F0020343F0010326F8183097B110
:103B70003B4B3E787A6804F1080033F810108F0749
:103B80000CD5002AD8D133F8102022F01C0242EACA
:103B9000860223F81020CDBB3348CEE721F0200168
:103BA000C904C90C23F81010002AECD0032EC3D886
:103BB00017782EB92D4A07F5A27142F82160E2E785
:103BC000BA0002F1804202F5C04241EA4731D2F820
:103BD00010C52CF0030CC2F810C5D2F810C52CF497
:103BE0004F3C2CF4407CC2F810C5D2F810E54FEAE7
:103BF000042C0CF47C5C4EEA064E4CEA0E0C41F0B0
:103C0000200123F81010C2F810C5BCE7D5E9006701
:103C10002046FFF73BFF002EBED0114D2B689E4281
:103C200004D16B689F4201D100220AE010480DF1D7
:103C30000F01FFF76BFE0C4B98427FF47EAF9DF8AF
:103C40000F2045F8326005EBC20308345F6035F899
:103C5000143043EA422343F4807325F814309BE781
:103C60003C0000200400AD0B0000AD0B00600040E4
:103C7000A4000020F0B5044685B0154619B3334EB4
:103C800000F1080736F81720930703D4FFF7D6FE94
:103C9000002858D112F01C0F02D04B78012B52D0C3
:103CA00001238DF80F300023CDE900134A1C8B1C33
:103CB00020460DF10F0102F04FFA36F8173043F0AD
:103CC000030326F8173015B9214805B0F0BD1F4E83
:103CD00004F1080736F81700830734D595F800C0BB
:103CE0006146890020F0200001F18041C00401F507
:103CF000C041C00C26F817000023C1F810356A78BF
:103D0000002AE1D0D1F81035AD7823F4991323F4CB
:103D1000F853C1F81035D1F810E5230203F47C53B1
:103D2000120402F4403243EA0E0313432A0502F45C
:103D3000801240EA4C30134340F0200026F8170070
:103D4000C1F81035C0E70348BFE700BF3C000020C2
:103D50000000AD0B0400AD0B014BC3E9020170473D
:103D60003C00002008B50246FFF768FE38B1054B5D
:103D70000548083233F812305B0B0B7008BD03485E
:103D8000FCE700BF3C0000200000AD0B0400AD0BC1
:103D900038B50F4C94F86C50BDB95422294604F143
:103DA000100001F064FF0620FEF718F8094B0A48DE
:103DB000C3F87C51D3F87C214FF00042C3F80423B0
:103DC000012384F86C30A36638BD0448FCE700BFCB
:103DD0003C000020006000400000AD0B0500AD0B72
:103DE000034B93F86C00003818BF0120704700BFE8
:103DF0003C00002001460148FFF7AEBDA0000020B6
:103E000001460148FFF782BDA000002037B50446F7
:103E1000FFF714FE04F108021E4B33F81230E8B12C
:103E200013F002051AD15B0B9A0002F1804000F5F5
:103E3000C24002F1804202F5C04205600068D2F83B
:103E4000100540F00100C2F8100529B1012202FA64
:103E500003F3114AC2F8043303B030BDC3F3820345
:103E6000042B12D0052B12D001A80194FFF7D8FD26
:103E7000019BD0F81015D94001F001010231204614
:103E800003B0BDE8304002F0AEB90321F7E70221EC
:103E9000F5E700BF3C0000200060004008B5024686
:103EA000FFF7CCFDC0B102F108010E4B33F8113021
:103EB000990711D45B0B01229A409B000A4903F138
:103EC000804303F5C043C1F80823D3F8102522F03E
:103ED0000302C3F8102508BDBDE8084000211046C4
:103EE00002F081B93C000020006000400E4B00F160
:103EF000080213B533F81230DB07044611D5FFF77B
:103F0000CDFF2046FFF7ECFD01A80194FFF788FDE7
:103F1000019B03F5E073022240F82320034802B01E
:103F200010BD0348FBE700BF3C0000200000AD0BC4
:103F30000400AD0B2DE9F04F644B65486549002640
:103F400087B0012234461D6835B1D0F804531542BC
:103F50001EBF1C601D68164304338B424FEA4202A9
:103F6000F1D1DFF86C81D8F87C31002B00F0918022
:103F70004FF0A043D3F820250492C3F82025D3F8AE
:103F800020280592C3F8202800270DF110097B0195
:103F900000934FF0010A49E0009B4F4A94FAA4F4C1
:103FA000B4FA84F41C4404F10803E00832F8133036
:103FB000039404F007020AFA02FC19F8002022EA2E
:103FC0000C0209F8002003A8C3F382059908FFF743
:103FD00027FD039A02F5E0724B0750F82220AB460A
:103FE000C2F3014229D520465946D5B2FFF730FD2C
:103FF00003A80394FFF714FD039B03F5E07350F847
:104000002330C3F301439D4207D10021204602F033
:10401000EAF82946204602F0E6F803A80394FFF7E1
:10402000FFFC039B0AFA03F3C0F8203559F8274038
:10403000002CB1D1CFB90127A9E7022A0CBF032177
:1040400002212046019202F0CEF8032D04D0019AFD
:10405000022A06D1012DE0D159462046FFF7F8FC8F
:10406000DBE7032AD9D1022DF5E7C8F87C41D8F85F
:104070007C311A494FF0A043D3F820250492C3F8AD
:104080002025D1F820350593C1F8203513437FF45E
:104090007BAF012416B907B0BDE8F08F96FAA6F3FE
:1040A000B3FA83F304FA03F29B0003F1804303F5B0
:1040B000C04326EA0206D3F81005D3F81015C0F362
:1040C0000520C1F30141FFF7C3FCE3E700610040B5
:1040D00000600040206100403C00002000030050D0
:1040E00001460148FFF712BCAC00002010B5114C8E
:1040F000114A1249032323616361114BA261E361F9
:104100004FF4806323620023A3626362E36222664A
:104110000C4A6266E01D1022A2662367E3666367AD
:1041200001F080FD0849204601F07CFD2023A371A9
:1041300010BD00BF20080020D36F0000DC6F00001E
:104140002509002015090020E06F00002DE9F84F37
:10415000234F4FF0180B14460BFB00720646936A70
:10416000556AAB42884634D8D2F820A0AAEB05099C
:1041700009F1FF32944211D84FF0180906FB099358
:104180003B44224658684146284401F065FD09FB3E
:1041900006762C4474620120BDE8F88F13449C42DB
:1041A0001BD800FB0BBBBB444A46DBF804002C4485
:1041B000284401F051FDB4EB0A0406D0DBF80400FA
:1041C000224608EB090101F047FD182000FB0676A6
:1041D000E0E7013B5B1BA342CED20020DCE700BF3F
:1041E00020080020034B182202FB00339A6A586A09
:1041F000801A7047200800200E4B70B553F82040FD
:10420000013053F82060A64200D870BDD4E90035D3
:104210002846984765B1EB6830B10028B8BF4042E6
:10422000FF28A8BFFF2018705A7842F001025A7088
:104230000834E8E7706900002DE9F04786B00546CC
:1042400000AF0E464FF02003EFF3118883F312887E
:10425000BFF36F8F00F024FE042D96BF2C4B2D4B27
:1042600053F825302C49E9468AB06A464FF0000AD7
:10427000D361032382F82430284BC2F820A0C2E97E
:104280000515044642F8103F254853464FF429517E
:1042900001F071FCCD467EB1F369C3F308035BB155
:1042A000204B7B6102233B611D48534607F11002FE
:1042B0004FF4825101F05FFC2CB1204601F0C1FFA8
:1042C00008B1037803B91848184BE9468AB06A4622
:1042D000C2E90534032382F82030154BD06142F83F
:1042E000103F00230E484FF4095101F044FC3146C1
:1042F000CD462846FFF73EFA88F31188BFF36F8F4B
:104300002046FEF7EDF91837BD46BDE8F08700BF3F
:1043100088690000E76F0000FD6F000005000001E4
:104320006C67000025700000F56F0000467000000B
:104330000400000108B50A4B012202201A70FFF7A1
:104340005BFF00F0EFFF0320FFF756FF00F03CF9A2
:10435000FCF770F8034A137B23F00103137308BDC5
:10436000250D00204806002008B50348034A002117
:10437000121A01F059FF08BDF0000020280D00209E
:1043800070B5002386B00122CDE90423134E144DED
:1043900001930F22CDE902321249182303FB005585
:1043A00006EBC01604464FF4B07000FB04110E4B30
:1043B00000954FF4A072304600F0A8F8737B0B48CC
:1043C0002C7523F0040373734FF4026303FB04049E
:1043D0001C44EE606C6006B070BD00BFC8050020D4
:1043E000C80800208014002081460000E01500204D
:1043F00080B52E4BA6B083F308882D4D2D4E6B69EA
:104400002D4F43F4007300246B61E02385F82230C4
:10441000EC772C766C76AC7685F820406B6A43F4AA
:10442000E0236B6285F82340FEF7CEF8FDF752FCDF
:104430004FF0FF33AB62EB62FEF720FAFEF766F94E
:10444000FCF73EFF40F20113ADF8243006ABB36039
:10445000CDE91F44229401F0DCFE2046FFF7CCFE9C
:104460000120164DFFF7C8FE00F06CFC144BF561FF
:104470000593012313490094CDE903434FF480626F
:104480003B46CDE90144284600F040F86A7B0646E9
:1044900022F0040228466A7301F02EFF2046FFF73F
:1044A0006FFF3A4631462846FDF774FD001E002096
:1044B00000ED00E0C8080020354300004806002059
:1044C000A87000006010002070B50E4B0E4CA34287
:1044D00001D3002070BDD3E9030141EA000212F0CC
:1044E00003020BD19D685A61AA4201D11C33EEE749
:1044F0005E690E60013259610144F5E76FF0150005
:10450000E8E700BFCC000020CC0000202DE9FF41EF
:104510000E9E0673042646730D9E867300F15805A1
:104520000F46D61DC0E916550C9A002526F0070641
:104530002037C0E90655C0E919768560C573C566A0
:1045400006F1200802920B9A019288440A9A00927E
:1045500042460446FDF7ECFC044B65659B6803B1DD
:104560001B6F2367404604B0BDE8F081C8080020F7
:10457000F0B587B000270597109F04970F9F03970A
:104580000E9F0297DDE912650D9F01970C9F009722
:104590000446FFF7BBFFB5F1FF3F08BFB6F1FF3F91
:1045A00005D055EA060305D1204600F0C5FA20469D
:1045B00007B0F0BD034932462B4604F1180000F065
:1045C0002BFDF4E7196300002DE9F043294C2A4D37
:1045D00087B02646AE4204F130040FD300F0C6F98E
:1045E000244CDFF898904FF4004640F2E737AC4295
:1045F00020D307B0BDE8F04300F088BB54F8043C7A
:10460000059354F8103C049354F8143C039354F865
:10461000183C029354F81C3C019354F8203C00933E
:1046200054E90C0154E90A23FFF770FF54F8303CB9
:104630005E65CEE7636A5A1C0DD023EAE37300215E
:104640003846C3FB060151EAC333D4F8008004D1D5
:10465000404600F071FA3034C9E74FF47A72002313
:10466000FBF74EFD02460B4608F11800494600F0E4
:10467000D3FCF0E7CC000020CC0000201963000040
:1046800008B50B4C0B4D4FF02002EFF3118382F372
:104690001288BFF36F8F01F0CEFE2B78A06113B9A3
:1046A000FDF71EFBEFE7FDF73BFA0028EBD1F7E73C
:1046B000C8080020250D00202DE9F34104461746C7
:1046C0001E464FF02003EFF3118883F31288BFF3E7
:1046D0006F8FC368324A6BB180689168884219D085
:1046E00057EA060318D188F31188BFF36F8F6FF074
:1046F0000F000CE0916891F90E1021610133E36025
:104700009368A36088F31188BFF36F8F002002B015
:10471000BDE8F0812169F0E791F90E1090F90E30B3
:104720009942A8BF19466FF07E029142B8BF114668
:104730008B422EDD01F08EFD0546CDE9007619484D
:104740002246414600F054FA0028E0D04FF0200302
:10475000EFF3118683F31288BFF36F8F236821690B
:104760009C420AD04BB193F90E309942A8BF19462A
:104770006FF07E039942B8BF1946A06801F06AFD48
:1047800000B945B10748314600F0DEF86FF00A0085
:10479000BDE70025D1E786F31188BFF36F8FF5E7FA
:1047A000C8080020260D002038B583680446002B79
:1047B00032D01C4A9268934231D1DA7B013ADA73E3
:1047C000C368012B05D9013BC36000F09FFA0020AC
:1047D00038BD4FF02003EFF3118583F31288BFF348
:1047E0006F8F0169806801F035FD204601F0F5FD0D
:1047F000A06058B190F90E2022610022826701F07A
:104800007BFD0948294600F09FF8DEE7E06085F36C
:104810001188BFF36F8FD8E76FF01500D8E74FF01E
:10482000FF30D5E7C8080020260D002038B5044623
:104830004FF02003EFF3118583F31288BFF36F8FDE
:1048400001F0CBFD48B10022826701F055FD2946F9
:104850000548BDE8384000F077B8D4E902329A4202
:1048600018BF0133A360F2E7260D002013B54FF007
:104870002004EFF3118184F31288BFF36F8F8468F3
:1048800044B1013C846081F31188BFF36F8F002035
:1048900002B010BD52EA030406D181F31188BFF3C0
:1048A0006F8F6FF00F00F3E7CDE900230246024857
:1048B00000F09EF9ECE700BF260D002038B5074D4B
:1048C0002C6854B1FEF71AFF054B04441C6128689C
:1048D0000021BDE8384001F0BEBD38BDF808002019
:1048E000C8080020F8B504460D464FF02003EFF34A
:1048F000118783F31288BFF36F8F104E00214FF49E
:10490000004C40F2E730316100234FF47A72E4FB4F
:104910000C01FBF7F5FB002C094B0ADC1860094B76
:10492000B0681D60FFF7CAFF87F31188BFF36F8F70
:10493000F8BD0228B8BF0220F0E700BFC808002079
:10494000F8080020F408002049B9EFF3058030B9D9
:10495000054BDA699B689A4201D0FDF795BA81F35D
:104960001188BFF36F8F7047C80800204FF02003F5
:10497000EFF3118183F31288BFF36F8F044B9A68B2
:10498000D37B013BD37381F31188BFF36F8F7047E3
:10499000C808002038B502460C480D4D01F0A6FCB1
:1049A000044600B9EC68AB684AB95A7BD20606D116
:1049B000A26922B9DA897F2A01D9EB6138BD9C420C
:1049C00002D02046FFF77AFFEC61F7E7E808002005
:1049D000C808002070B590F90D20437B002A0146DD
:1049E00004DA03F07F03437301F048FC4B7B154A64
:1049F00063F07F034B73D2E9083402F12005AB4228
:104A00001BD0D3B191F90E6093F90E0086420FD0FE
:104A1000801B00280CDD5868C1E900300160596036
:104A20009068431A5842BDE870405841FFF7B2BF42
:104A3000A34202D01B68002BE6D1C1E900542160DB
:104A40005162EDE7C808002038B54FF02003EFF3BE
:104A5000118583F31288BFF36F8F174B174A9C6839
:104A600011688C4207D12046FFF728FF85F3118893
:104A7000BFF36F8F38BD00211160114A1268C2B1B7
:104A8000E2897F2A15D8627BD20612D10D4A94F9A9
:104A90000E10126891420CDB0B4A944209D01A693D
:104AA000824203DC2046FFF795FFDCE7121A1A6109
:104AB000DCE70022FBE700BFC8080020F008002068
:104AC000F8080020F4080020C805002070B490F910
:104AD0000D20437B002A2ADBDA0628D1826932BB0B
:104AE000144A63F07F034373D2E9083402F12005CE
:104AF000AB4217D0B3B190F90E6093F90E108E420D
:104B00000BD0891B002908DD5A68C0E9003210600B
:104B1000586070BC0020FFF73DBFA34202D01B6865
:104B2000002BEAD1C0E9005420605062F1E770BC6C
:104B3000704700BFC808002010B54FF02002EFF307
:104B4000118482F31288BFF36F8F427B510704D424
:104B500084F31188BFF36F8F10BD22F004024273FB
:104B6000FFF7B4FF21460248BDE81040FFF7ECBE56
:104B7000260D002008B590F90D20437B002A014640
:104B800004DA03F07F03437301F078FB044B986869
:104B9000431A58425841BDE80840FFF7FBBE00BF2A
:104BA000C80800202DE9F041064615461C464FF086
:104BB0002003EFF3118783F31288BFF36F8F01F0A7
:104BC000CDFB87F31188BFF36F8FB4F1FF3F08BFB0
:104BD000B5F1FF3F08D02A46234606F118000349E5
:104BE000BDE8F04100F018BABDE8F081196300009B
:104BF00010B5074B9868074B0C4618601146DDE965
:104C00000223FFF7CFFF2046BDE81040FDF73CB977
:104C1000C8080020F0080020F8B504464FF0200333
:104C2000EFF3118683F31288BFF36F8F437BDA06AD
:104C300049B233D182698ABB03F07F03437301F029
:104C40001DFB437B174A817363F07F034373104658
:104C500050F8203F83421BD0D3B1576A93F90E50CE
:104C6000A94210D06D1A002D0DDD5A68C4E900323A
:104C700014605C600120FFF78DFE012086F311882F
:104C8000BFF36F8FF8BDBB4202D01B68002BE5D18C
:104C9000536AC4E900031C605462EBE7A17300206F
:104CA000ECE700BFC808002070B50446183001F0DA
:104CB000ACFB4FF02003EFF3118683F31288BFF3B0
:104CC0006F8F94F90D20637B002A05DA03F07F03D0
:104CD0006373204601F0D2FA0B4D637BA86843F062
:104CE00010036373031B58425841FFF753FE86F3CA
:104CF0001188BFF36F8FAB68A34203D1BDE870404A
:104D000001F0EABA70BD00BFC808002010B54FF02E
:104D10002003EFF3118483F31288BFF36F8F084BE6
:104D20009A68D37B0133D3730020FFF733FE84F3FB
:104D30001188BFF36F8FBDE8104001F0CDBA00BFFE
:104D4000C8080020044B002103F12002C3E9082217
:104D50000846FFF7C7BD00BFC8080020F8B54FF0F0
:104D60002003EFF3118583F31288BFF36F8F1A4985
:104D70008868437B03F07F03437301F07FFA8B68FD
:104D80005A7B084662F07F025A7350F8202F824205
:104D90001CD0DAB14F6A93F90E6092F90E40A64228
:104DA0000FD0A41B002C0CDD5168C3E900210B605F
:104DB00053600120FFF7EEFD2846BDE8F840FDF7FF
:104DC00063B8BA4202D01268002AE6D14A6AC3E93F
:104DD000000213604B62ECE7C808002050EA0103B0
:104DE0002DE9F04105460E4603D1FFF7B7FF00203D
:104DF00033E06FF00104241A4FF0FF3363EB01033B
:104E0000012C73F1000302DA01F03FFB44194FF06B
:104E10002003EFF3118883F31288BFF36F8F104FD5
:104E2000104BB8681860FFF7A5FEB8680E492A460F
:104E30003346183000F0F0F8BA68537B43F01003A3
:104E400053734046FDF720F801F01FFB201A63EB77
:104E50000303012873F10003C9DBBDE8F08100BF43
:104E6000C8080020F008002019630000B1F1FF3FDE
:104E700008BFB0F1FF3F08B506D1084B9868FFF7AF
:104E800013FF4FF0FF3008BDFFF7A8FF4FF47A7310
:104E900080FB0303C00B40EA4340F4E7C80800204E
:104EA000014B9868704700BFC80800202DE9F04109
:104EB00004464FF02003EFF3118683F31288BFF30B
:104EC0006F8F437B1A0705D586F31188BFF36F8F69
:104ED000BDE8F08123F0200242F00801D20920D180
:104EE0004173A36813B1204601F0D0F904F1180012
:104EF00001F08BFA04F158074FF00008A56DBD4290
:104F000000D0B5B90120FFF745FD104B9B68A342C7
:104F1000DAD1EFF30583002BD6D13046FCF7B4FF8E
:104F2000D2E703F05F0343F00803437301F0A6F9EF
:104F3000D7E7284601F0AAF905F1180001F065FA53
:104F4000C5F878802846FFF7C1FDD7E7C8080020DC
:104F500008B50648064A0749121A01F067F9BDE884
:104F60000840054A0549064801F060B900000020E4
:104F7000F0000020E870000000000000E870000071
:104F800000000020034B1B680BB9FEF7B7BB0020E5
:104F9000704700BFFC080020104B10B51C689C42F5
:104FA00008BF0024FFF7EEFFA4B1D4E904321B1AB6
:104FB00062EBE070B3F1004F70F100020ADA0028F2
:104FC000ACBF18460020064B1B6913B19842A8BF1E
:104FD000184610BD6FF00040F5E700BFB00000209C
:104FE000C808002030B5036868B10A4A5268904288
:104FF00009D043B1D3E90421D0E90445121941EBAA
:105000000501C3E90421426813605A600023C0E926
:10501000003330BDB0000020B3F1FF3F08BFB2F154
:10502000FF3FF8B504461F46154667D081604FF034
:105030002003EFF3118683F31288BFF36F8F6FF0B5
:105040000102531B4FF0FF3C6CEB0703002B1BDBF3
:105050002B4BD3E90013521A6CEB0303551B63EB84
:105060000703012D73F10002BCBF01250023C0E935
:1050700004532448D0E9003C834218D1C4E9000C11
:10508000CCF80040446026E0FFF77CFF013547F193
:1050900000072D1847EBE077C4E90457E9E7521AF7
:1050A00065EB07059C45C4E90425E7D01B68002B88
:1050B000E4D0D3E90417D4E904258A4275EB070E3E
:1050C000EDDA8A1A67EB0505C3E904255A68C4E9D5
:1050D000003214605C60036883420BD09C4209D1AB
:1050E000FFF75AFF18B1084B1B69834202D0002119
:1050F000FEF7D2FA86F31188BFF36F8FF8BD00BFB9
:10510000C8060020B0000020C80800202DE9F843A0
:105110000546FFF799FC4FF02003EFF3118483F36A
:105120001288BFF36F8F244EDFF890803560244DD6
:10513000D8F8000032684045D5E9001E4FEAE27712
:105140000BD050B1D0E9043C9A4277EB0C0916DA47
:105150009B1A6CEB070CC0E9043C52184EEB070796
:10516000C5E9002700253560FFF716FF2946FEF741
:1051700093FA84F31188BFF36F8FBDE8F883591851
:105180004EEBE377D31A336000220023C0E90423F7
:10519000C5E90017FFF726FF84F31188BFF36F8F6F
:1051A000836898474FF02003EFF3118483F312884C
:1051B000BFF36F8FBCE700BFFC080020B0000020E9
:1051C000C806002010B54FF02003EFF3118483F3DD
:1051D0001288BFF36F8FFEF791FA054AD2E90031CA
:1051E000C01841F1000184F31188BFF36F8F10BD27
:1051F000C806002070B504464FF02003EFF3118578
:1052000083F31288BFF36F8FD0E90A32013342F182
:105210000002022B72F1000304D3D0E90A231749DC
:10522000FFF7FAFE236B01332363236A73B185F31F
:105230001188BFF36F8F236A204698474FF02003F1
:10524000EFF3118583F31288BFF36F8F54F8186F53
:10525000A64200D026B985F31188BFF36F8F70BDC9
:10526000304601F01DF80023B36785F31188BFF3C2
:105270006F8F3046BDE8704001F03EB8F551000038
:105280002DE9F0471146B3F1FF3F08BFB1F1FF3FF1
:1052900006461C46DDE90820894698463ED0B0F116
:1052A000FF3F08BFB2F1FF3F1546074614D050EA52
:1052B000020311D06FF001039B1A4FF0FF3363EB31
:1052C0000003002B08DA022A70F10003BCBF02259C
:1052D0000027013D47F1FF376FF001035B1A4FF0E4
:1052E000FF3363EB0403002B09DA012974F1000397
:1052F000BCBF0121002411F1FF3944F1FF383046D1
:1053000001F083F800233363C6E90A574A4643464F
:1053100030460349BDE8F047FFF77EBEBDE8F087A1
:10532000F5510000024A0349034800F086B800BF67
:10533000676A0000B0700000BF700000F0B4024661
:105340000068D38816790B43DC028768016906D5AB
:1053500013F4402F03D0DA0748BF83F440230C68CE
:105360000125B54023F48012DB074CBF2C43AC432E
:105370000C603B683146F0BC18472DE9F047074602
:105380000E4690461D460BB318789C7893F801A002
:10539000DB781C4404EB80042C444FF00009D14519
:1053A00008D36A6805F1080341463846B446BDE8AB
:1053B000F047604714F8013B45F82340204600F0D1
:1053C0003BFC0130044409F10109E8E76FF01500E6
:1053D000BDE8F087034658B1426802F00302012A93
:1053E00003D0032A04D1026812B1002098607047EC
:1053F0006FF0150070474268816002F00302032AD3
:105400004FF0000203460CBF006810465A60704718
:105410000020704730B58A680C68551C14B14B6881
:10542000934201DC8D6030BD013B934208BF0022F6
:105430008D600CBFE254A054F5E70FB407B504A982
:1054400051F8040B0191FBF7B1F903B05DF804EBDF
:1054500004B070470CB407B504AB53F8042B0193A8
:10546000FBF7B2F903B05DF804EB02B07047038BB1
:1054700013F0070305D10368002B0CBF00200320A5
:105480007047022B05D1438B002B14BF0020042052
:105490007047012B05D10368002B0CBF00200520AD
:1054A0007047002070472DE9F0410D460746194628
:1054B000281D90461E46FFF79EFF044638B133462E
:1054C000424629463846A446BDE8F0416047BDE85B
:1054D000F08110B44FF02004EFF3118284F31288AE
:1054E000BFF36F8F416110BC0121FBF781B910B58B
:1054F0000C4640B139B1081DFFF76CFF28B9A3680D
:1055000033F0030301D06FF0150010BD38B50C4621
:10551000054658B151B10B6843B14B6833B11C22F9
:10552000002100F0A4FB2C61002038BD6FF01500B5
:10553000FBE770B504460E46FFF7D9FF051E31DBC9
:105540004FF02003EFF3118183F31288BFF36F8FC5
:10555000638B208B4FF6FF75AB4200F007022ED015
:10556000022A0ED1013363831546012381F311888A
:10557000BFF36F8FB3B1002331462046FFF793FF8F
:1055800010E0830701D0062A0ED100233360636840
:1055900093B9C4E90066154662B90A46204602215D
:1055A000FBF726F9284670BD052A0CBF6FF085056C
:1055B0006FF004050023D9E71E606660EBE76FF02B
:1055C0000A05F7E7044608B5084611461A46A047FB
:1055D000FFF766FCFDF784F82DE9F84F9A46D3787B
:1055E0006F2B80460F461546A3F1410B29D024D8D6
:1055F000582B14BF0A261026DDF8289032460023C7
:1056000040463946FAF77CFD092AD4B21ED8303418
:10561000B045E4B277F1000309F8014D01D3D1455B
:1056200011D82B789B0605D5082E15D1AB7843F001
:105630000803AB704846BDE8F88F03F0F703702B02
:10564000D7E70826D8E780460F46D7E7BBF1190F02
:1056500094BF37345734DBE7102EEBD1AB7843F0EF
:105660001003E6E72DE9F0410746884615461E4639
:105670001446B442A4EB050002D33EB923782BB103
:1056800014F8010B4146B8470028F2DABDE8F08172
:10569000024610B5C0681468A04204D90138001B46
:1056A0000860002010BD136A18B9013B1B1B0B607A
:1056B000F8E71B1B0B600120F4E713B501A90446B2
:1056C000FFF7E6FF20B1019BE268013B1344019321
:1056D0000198236AC043184402B010BD10B50446B7
:1056E00088182269236AD20702D5013B184010BDF1
:1056F000984228BFC01AFAE738B5C2690D468B0038
:10570000016843F0020342F821302A46016804464A
:10571000FFF7E4FF616820602A462046FFF7DEFFBE
:10572000606038BD38B503695B07044606D5456A35
:10573000FFF7C3FF854202D9606A606238BD204628
:10574000FFF7BBFFF9E72DE9F84FD0F80CA0D0F830
:105750001C901F4600233B7019F82A3003F0030306
:10576000022B04468B46904609EB8A0603D159F872
:105770002A50AD082ED1A369304698470546B8F1A6
:10578000000F36D019F82A309B072FD50BF10101F5
:105790002046FFF7B1FF61682A462046FFF79EFFCB
:1057A000216860602A462046FFF798FF2A4620605D
:1057B000E1682046FFF792FFE36913F8202002F02A
:1057C0000302022A03EB80060CD153F820309B0819
:1057D00008D01D44E1682A462046FFF77FFFC4E950
:1057E000020007E0A36930469847054401233B7057
:1057F000F0E746463046BDE8F88F38B50D4604461A
:105800001C22002100F033FAEB68A361AB686A68E0
:1058100063612B68E3610023636222622B6922B11A
:10582000511E114208BF43F001032361012204F11C
:1058300028000021BDE8384000F014BD2DE9F04FEC
:105840009946036A013B8B4285B004460F46904659
:1058500064D30025AA4600F1280B4FF02003EFF394
:10586000118683F31288BFF36F8F03A92046FFF7D9
:105870000FFF0399B94221D32168E36913F821206E
:1058800022F0030203F8212020463A4603EB810A66
:10589000FFF724FF0023206086F31188BFF36F8F8A
:1058A000002B3DD0002DD8D09DF80B30002BD4D04C
:1058B00029466369204698470025CEE728B1019024
:1058C0002046FFF719FF019BE6E758EA090317D0C6
:1058D00000F0AEFCA0B986F31188BFF36F8F42468B
:1058E0004B465846FEF7C2FF4FF02003EFF31186F8
:1058F00083F31288BFF36F8FB0FA80F35B09CBE7B5
:10590000226903990DF10B03C2F340022046FFF711
:105910001AFF031E054618BF0123BDE74FF0000A1A
:10592000504605B0BDE8F08F70B58369044608465F
:105930000D46984702464FF02003EFF3118683F39C
:105940001288BFF36F8F2B7843F001032B706168CF
:105950002046FFF7C3FE60602046FFF7E3FE86F3B4
:105960001188BFF36F8F70BD2DE9F04104464FF0F1
:105970002003EFF3118683F31288BFF36F8FD4E90E
:1059800001379F4288BF236ADB1BF3B1E16911F83D
:10599000272012F0030301EB870816D0022B03D156
:1059A00051F82750AD0815D1D007A3690FD542F0A3
:1059B000020201F827204046984739460246204611
:1059C000FFF78CFE0023A06011E098460FE04046F0
:1059D00098470546A1682A462046FFF77FFEE16802
:1059E000A0602A462046FFF779FE0123E06086F397
:1059F0001188BFF36F8F002BB9D14046BDE8F0810D
:105A000070B58369044608460D46984702464FF034
:105A10002003EFF3118683F31288BFF36F8F2B7887
:105A20006FF300032B7023699B0705D5E168E369D9
:105A300003EB81039D4212D12B786FF341032B704E
:105A4000E1682046FFF74AFEE06086F31188BFF365
:105A50006F8F04F12800BDE87040FEF7E7BE2B68A9
:105A600060F39F032B60F0E7D0E9012393428ABFE4
:105A7000006AD31AC31A181E18BF01207047704756
:105A800003785B070BD403684088C3F34923C0F352
:105A9000CB001844173020F0070080087047002022
:105AA000704700F06FBA002070470120FBF7B6BBCB
:105AB00008B5FBF727FC08BD00207047F8B506467F
:105AC0000D4614461F46214628463A46B047241A3A
:105AD0000544F8D1F8BD4268816810B50446D2E9A2
